{
	"_format": "hh-sol-artifact-1",
	"contractName": "ParentPool",
	"sourceName": "contracts/ParentPool.sol",
	"abi": [
		{
			"inputs": [
				{
					"internalType": "address",
					"name": "_parentPoolProxy",
					"type": "address"
				},
				{
					"internalType": "address",
					"name": "_parentPoolCLFCLA",
					"type": "address"
				},
				{
					"internalType": "address",
					"name": "_automationForwarder",
					"type": "address"
				},
				{
					"internalType": "address",
					"name": "_link",
					"type": "address"
				},
				{
					"internalType": "address",
					"name": "_ccipRouter",
					"type": "address"
				},
				{
					"internalType": "address",
					"name": "_usdc",
					"type": "address"
				},
				{
					"internalType": "address",
					"name": "_lpToken",
					"type": "address"
				},
				{
					"internalType": "address",
					"name": "_infraProxy",
					"type": "address"
				},
				{
					"internalType": "address",
					"name": "_clfRouter",
					"type": "address"
				},
				{
					"internalType": "address",
					"name": "_owner",
					"type": "address"
				},
				{
					"internalType": "address[3]",
					"name": "_messengers",
					"type": "address[3]"
				}
			],
			"stateMutability": "nonpayable",
			"type": "constructor"
		},
		{
			"inputs": [
				{
					"internalType": "address",
					"name": "target",
					"type": "address"
				}
			],
			"name": "AddressEmptyCode",
			"type": "error"
		},
		{
			"inputs": [
				{
					"internalType": "address",
					"name": "account",
					"type": "address"
				}
			],
			"name": "AddressInsufficientBalance",
			"type": "error"
		},
		{
			"inputs": [
				{
					"internalType": "uint256",
					"name": "minAmount",
					"type": "uint256"
				}
			],
			"name": "DepositAmountBelowMinimum",
			"type": "error"
		},
		{
			"inputs": [],
			"name": "DepositRequestNotReady",
			"type": "error"
		},
		{
			"inputs": [],
			"name": "DepositsOnTheWayArrayFull",
			"type": "error"
		},
		{
			"inputs": [
				{
					"internalType": "bytes32",
					"name": "requestId",
					"type": "bytes32"
				}
			],
			"name": "DistributeLiquidityRequestAlreadyProceeded",
			"type": "error"
		},
		{
			"inputs": [],
			"name": "FailedInnerCall",
			"type": "error"
		},
		{
			"inputs": [],
			"name": "InvalidAddress",
			"type": "error"
		},
		{
			"inputs": [],
			"name": "InvalidAddress",
			"type": "error"
		},
		{
			"inputs": [
				{
					"internalType": "address",
					"name": "router",
					"type": "address"
				}
			],
			"name": "InvalidRouter",
			"type": "error"
		},
		{
			"inputs": [
				{
					"internalType": "uint256",
					"name": "maxCap",
					"type": "uint256"
				}
			],
			"name": "MaxDepositCapReached",
			"type": "error"
		},
		{
			"inputs": [],
			"name": "NotAllowedToCompleteDeposit",
			"type": "error"
		},
		{
			"inputs": [],
			"name": "NotConceroInfraProxy",
			"type": "error"
		},
		{
			"inputs": [],
			"name": "NotMessenger",
			"type": "error"
		},
		{
			"inputs": [],
			"name": "NotOwner",
			"type": "error"
		},
		{
			"inputs": [
				{
					"internalType": "address",
					"name": "sender",
					"type": "address"
				}
			],
			"name": "NotParentPoolProxy",
			"type": "error"
		},
		{
			"inputs": [],
			"name": "NotUsdcToken",
			"type": "error"
		},
		{
			"inputs": [
				{
					"internalType": "address",
					"name": "",
					"type": "address"
				}
			],
			"name": "OnlyRouterCanFulfill",
			"type": "error"
		},
		{
			"inputs": [
				{
					"internalType": "address",
					"name": "token",
					"type": "address"
				}
			],
			"name": "SafeERC20FailedOperation",
			"type": "error"
		},
		{
			"inputs": [
				{
					"internalType": "address",
					"name": "_sender",
					"type": "address"
				}
			],
			"name": "SenderNotAllowed",
			"type": "error"
		},
		{
			"inputs": [
				{
					"internalType": "bytes",
					"name": "data",
					"type": "bytes"
				}
			],
			"name": "UnableToCompleteDelegateCall",
			"type": "error"
		},
		{
			"inputs": [],
			"name": "Unauthorized",
			"type": "error"
		},
		{
			"inputs": [
				{
					"internalType": "uint256",
					"name": "minAmount",
					"type": "uint256"
				}
			],
			"name": "WithdrawAmountBelowMinimum",
			"type": "error"
		},
		{
			"inputs": [
				{
					"internalType": "bytes32",
					"name": "withdrawalId",
					"type": "bytes32"
				}
			],
			"name": "WithdrawRequestDoesntExist",
			"type": "error"
		},
		{
			"inputs": [],
			"name": "WithdrawalRequestAlreadyExists",
			"type": "error"
		},
		{
			"anonymous": false,
			"inputs": [
				{
					"indexed": true,
					"internalType": "bytes32",
					"name": "ccipMessageId",
					"type": "bytes32"
				},
				{
					"indexed": false,
					"internalType": "uint64",
					"name": "srcChainSelector",
					"type": "uint64"
				},
				{
					"indexed": false,
					"internalType": "address",
					"name": "sender",
					"type": "address"
				},
				{
					"indexed": false,
					"internalType": "address",
					"name": "token",
					"type": "address"
				},
				{
					"indexed": false,
					"internalType": "uint256",
					"name": "amount",
					"type": "uint256"
				}
			],
			"name": "CCIPReceived",
			"type": "event"
		},
		{
			"anonymous": false,
			"inputs": [
				{
					"indexed": true,
					"internalType": "bytes32",
					"name": "messageId",
					"type": "bytes32"
				},
				{
					"indexed": false,
					"internalType": "uint64",
					"name": "destinationChainSelector",
					"type": "uint64"
				},
				{
					"indexed": false,
					"internalType": "address",
					"name": "receiver",
					"type": "address"
				},
				{
					"indexed": false,
					"internalType": "uint256",
					"name": "amount",
					"type": "uint256"
				}
			],
			"name": "CCIPSent",
			"type": "event"
		},
		{
			"anonymous": false,
			"inputs": [
				{
					"indexed": true,
					"internalType": "bytes32",
					"name": "requestId",
					"type": "bytes32"
				},
				{
					"indexed": true,
					"internalType": "address",
					"name": "lpAddress",
					"type": "address"
				},
				{
					"indexed": false,
					"internalType": "uint256",
					"name": "usdcAmount",
					"type": "uint256"
				},
				{
					"indexed": false,
					"internalType": "uint256",
					"name": "_lpTokensToMint",
					"type": "uint256"
				}
			],
			"name": "DepositCompleted",
			"type": "event"
		},
		{
			"anonymous": false,
			"inputs": [
				{
					"indexed": true,
					"internalType": "bytes32",
					"name": "requestId",
					"type": "bytes32"
				},
				{
					"indexed": true,
					"internalType": "address",
					"name": "liquidityProvider",
					"type": "address"
				},
				{
					"indexed": false,
					"internalType": "uint256",
					"name": "_amount",
					"type": "uint256"
				},
				{
					"indexed": false,
					"internalType": "uint256",
					"name": "deadline",
					"type": "uint256"
				}
			],
			"name": "DepositInitiated",
			"type": "event"
		},
		{
			"anonymous": false,
			"inputs": [
				{
					"indexed": true,
					"internalType": "bytes32",
					"name": "conceroMessageId",
					"type": "bytes32"
				}
			],
			"name": "FailedExecutionLayerTxSettled",
			"type": "event"
		},
		{
			"anonymous": false,
			"inputs": [
				{
					"indexed": true,
					"internalType": "bytes32",
					"name": "requestId",
					"type": "bytes32"
				},
				{
					"indexed": true,
					"internalType": "address",
					"name": "to",
					"type": "address"
				},
				{
					"indexed": false,
					"internalType": "address",
					"name": "token",
					"type": "address"
				},
				{
					"indexed": false,
					"internalType": "uint256",
					"name": "amount",
					"type": "uint256"
				}
			],
			"name": "WithdrawalCompleted",
			"type": "event"
		},
		{
			"anonymous": false,
			"inputs": [
				{
					"indexed": true,
					"internalType": "bytes32",
					"name": "requestId",
					"type": "bytes32"
				},
				{
					"indexed": false,
					"internalType": "address",
					"name": "caller",
					"type": "address"
				}
			],
			"name": "WithdrawalRequestInitiated",
			"type": "event"
		},
		{
			"inputs": [
				{
					"internalType": "uint256",
					"name": "childPoolsBalance",
					"type": "uint256"
				},
				{
					"internalType": "uint256",
					"name": "amountToDeposit",
					"type": "uint256"
				}
			],
			"name": "calculateLPTokensToMint",
			"outputs": [
				{
					"internalType": "uint256",
					"name": "",
					"type": "uint256"
				}
			],
			"stateMutability": "view",
			"type": "function"
		},
		{
			"inputs": [
				{
					"internalType": "uint256",
					"name": "childPoolsBalance",
					"type": "uint256"
				},
				{
					"internalType": "uint256",
					"name": "clpAmount",
					"type": "uint256"
				}
			],
			"name": "calculateWithdrawableAmount",
			"outputs": [
				{
					"internalType": "uint256",
					"name": "",
					"type": "uint256"
				}
			],
			"stateMutability": "view",
			"type": "function"
		},
		{
			"inputs": [
				{
					"internalType": "uint256",
					"name": "childPoolsBalance",
					"type": "uint256"
				},
				{
					"internalType": "uint256",
					"name": "clpAmount",
					"type": "uint256"
				}
			],
			"name": "calculateWithdrawableAmountViaDelegateCall",
			"outputs": [
				{
					"internalType": "uint256",
					"name": "",
					"type": "uint256"
				}
			],
			"stateMutability": "nonpayable",
			"type": "function"
		},
		{
			"inputs": [
				{
					"components": [
						{
							"internalType": "bytes32",
							"name": "messageId",
							"type": "bytes32"
						},
						{
							"internalType": "uint64",
							"name": "sourceChainSelector",
							"type": "uint64"
						},
						{
							"internalType": "bytes",
							"name": "sender",
							"type": "bytes"
						},
						{
							"internalType": "bytes",
							"name": "data",
							"type": "bytes"
						},
						{
							"components": [
								{
									"internalType": "address",
									"name": "token",
									"type": "address"
								},
								{
									"internalType": "uint256",
									"name": "amount",
									"type": "uint256"
								}
							],
							"internalType": "struct Client.EVMTokenAmount[]",
							"name": "destTokenAmounts",
							"type": "tuple[]"
						}
					],
					"internalType": "struct Client.Any2EVMMessage",
					"name": "message",
					"type": "tuple"
				}
			],
			"name": "ccipReceive",
			"outputs": [],
			"stateMutability": "nonpayable",
			"type": "function"
		},
		{
			"inputs": [
				{
					"internalType": "bytes",
					"name": "",
					"type": "bytes"
				}
			],
			"name": "checkUpkeep",
			"outputs": [
				{
					"internalType": "bool",
					"name": "",
					"type": "bool"
				},
				{
					"internalType": "bytes",
					"name": "",
					"type": "bytes"
				}
			],
			"stateMutability": "view",
			"type": "function"
		},
		{
			"inputs": [],
			"name": "checkUpkeepViaDelegate",
			"outputs": [
				{
					"internalType": "bool",
					"name": "",
					"type": "bool"
				},
				{
					"internalType": "bytes",
					"name": "",
					"type": "bytes"
				}
			],
			"stateMutability": "nonpayable",
			"type": "function"
		},
		{
			"inputs": [
				{
					"internalType": "bytes32",
					"name": "_depositRequestId",
					"type": "bytes32"
				}
			],
			"name": "completeDeposit",
			"outputs": [],
			"stateMutability": "nonpayable",
			"type": "function"
		},
		{
			"inputs": [
				{
					"internalType": "uint64",
					"name": "_chainSelector",
					"type": "uint64"
				},
				{
					"internalType": "uint256",
					"name": "_amountToSend",
					"type": "uint256"
				},
				{
					"internalType": "bytes32",
					"name": "_requestId",
					"type": "bytes32"
				},
				{
					"internalType": "enum ICCIP.CcipTxType",
					"name": "_ccipTxType",
					"type": "uint8"
				}
			],
			"name": "distributeLiquidity",
			"outputs": [],
			"stateMutability": "nonpayable",
			"type": "function"
		},
		{
			"inputs": [],
			"name": "getDepositsOnTheWay",
			"outputs": [
				{
					"components": [
						{
							"internalType": "uint64",
							"name": "chainSelector",
							"type": "uint64"
						},
						{
							"internalType": "bytes32",
							"name": "ccipMessageId",
							"type": "bytes32"
						},
						{
							"internalType": "uint256",
							"name": "amount",
							"type": "uint256"
						}
					],
					"internalType": "struct IParentPool.DepositOnTheWay[150]",
					"name": "",
					"type": "tuple[150]"
				}
			],
			"stateMutability": "view",
			"type": "function"
		},
		{
			"inputs": [
				{
					"internalType": "uint256",
					"name": "amount",
					"type": "uint256"
				}
			],
			"name": "getDstTotalFeeInUsdc",
			"outputs": [
				{
					"internalType": "uint256",
					"name": "",
					"type": "uint256"
				}
			],
			"stateMutability": "pure",
			"type": "function"
		},
		{
			"inputs": [],
			"name": "getLiquidityCap",
			"outputs": [
				{
					"internalType": "uint256",
					"name": "",
					"type": "uint256"
				}
			],
			"stateMutability": "view",
			"type": "function"
		},
		{
			"inputs": [],
			"name": "getPendingWithdrawalRequestIds",
			"outputs": [
				{
					"internalType": "bytes32[]",
					"name": "",
					"type": "bytes32[]"
				}
			],
			"stateMutability": "view",
			"type": "function"
		},
		{
			"inputs": [],
			"name": "getRouter",
			"outputs": [
				{
					"internalType": "address",
					"name": "",
					"type": "address"
				}
			],
			"stateMutability": "view",
			"type": "function"
		},
		{
			"inputs": [],
			"name": "getUsdcInUse",
			"outputs": [
				{
					"internalType": "uint256",
					"name": "",
					"type": "uint256"
				}
			],
			"stateMutability": "view",
			"type": "function"
		},
		{
			"inputs": [
				{
					"internalType": "address",
					"name": "_lpAddress",
					"type": "address"
				}
			],
			"name": "getWithdrawalIdByLPAddress",
			"outputs": [
				{
					"internalType": "bytes32",
					"name": "",
					"type": "bytes32"
				}
			],
			"stateMutability": "view",
			"type": "function"
		},
		{
			"inputs": [
				{
					"internalType": "bytes32",
					"name": "requestId",
					"type": "bytes32"
				},
				{
					"internalType": "bytes",
					"name": "delegateCallResponse",
					"type": "bytes"
				},
				{
					"internalType": "bytes",
					"name": "err",
					"type": "bytes"
				}
			],
			"name": "handleOracleFulfillment",
			"outputs": [],
			"stateMutability": "nonpayable",
			"type": "function"
		},
		{
			"inputs": [],
			"name": "i_lpToken",
			"outputs": [
				{
					"internalType": "contract LPToken",
					"name": "",
					"type": "address"
				}
			],
			"stateMutability": "view",
			"type": "function"
		},
		{
			"inputs": [
				{
					"internalType": "bytes",
					"name": "_performData",
					"type": "bytes"
				}
			],
			"name": "performUpkeep",
			"outputs": [],
			"stateMutability": "nonpayable",
			"type": "function"
		},
		{
			"inputs": [
				{
					"internalType": "uint64",
					"name": "_chainSelector",
					"type": "uint64"
				}
			],
			"name": "removePools",
			"outputs": [],
			"stateMutability": "payable",
			"type": "function"
		},
		{
			"inputs": [],
			"name": "retryPerformWithdrawalRequest",
			"outputs": [],
			"stateMutability": "nonpayable",
			"type": "function"
		},
		{
			"inputs": [
				{
					"internalType": "uint64",
					"name": "chainSelector",
					"type": "uint64"
				}
			],
			"name": "s_childPools",
			"outputs": [
				{
					"internalType": "address",
					"name": "pool",
					"type": "address"
				}
			],
			"stateMutability": "view",
			"type": "function"
		},
		{
			"inputs": [
				{
					"internalType": "bytes32",
					"name": "clfReqId",
					"type": "bytes32"
				}
			],
			"name": "s_clfRequestTypes",
			"outputs": [
				{
					"internalType": "enum IParentPool.CLFRequestType",
					"name": "",
					"type": "uint8"
				}
			],
			"stateMutability": "view",
			"type": "function"
		},
		{
			"inputs": [
				{
					"internalType": "bytes32",
					"name": "clfReqId",
					"type": "bytes32"
				}
			],
			"name": "s_depositRequests",
			"outputs": [
				{
					"internalType": "address",
					"name": "lpAddress",
					"type": "address"
				},
				{
					"internalType": "uint256",
					"name": "childPoolsLiquiditySnapshot",
					"type": "uint256"
				},
				{
					"internalType": "uint256",
					"name": "usdcAmountToDeposit",
					"type": "uint256"
				},
				{
					"internalType": "uint256",
					"name": "deadline",
					"type": "uint256"
				}
			],
			"stateMutability": "view",
			"type": "function"
		},
		{
			"inputs": [],
			"name": "s_depositsOnTheWayAmount",
			"outputs": [
				{
					"internalType": "uint256",
					"name": "",
					"type": "uint256"
				}
			],
			"stateMutability": "view",
			"type": "function"
		},
		{
			"inputs": [
				{
					"internalType": "bytes32",
					"name": "",
					"type": "bytes32"
				}
			],
			"name": "s_distributeLiquidityRequestProcessed",
			"outputs": [
				{
					"internalType": "bool",
					"name": "",
					"type": "bool"
				}
			],
			"stateMutability": "view",
			"type": "function"
		},
		{
			"inputs": [
				{
					"internalType": "uint64",
					"name": "chainSelector",
					"type": "uint64"
				},
				{
					"internalType": "address",
					"name": "poolAddress",
					"type": "address"
				}
			],
			"name": "s_isSenderContractAllowed",
			"outputs": [
				{
					"internalType": "bool",
					"name": "",
					"type": "bool"
				}
			],
			"stateMutability": "view",
			"type": "function"
		},
		{
			"inputs": [],
			"name": "s_liquidityCap",
			"outputs": [
				{
					"internalType": "uint256",
					"name": "",
					"type": "uint256"
				}
			],
			"stateMutability": "view",
			"type": "function"
		},
		{
			"inputs": [],
			"name": "s_loansInUse",
			"outputs": [
				{
					"internalType": "uint256",
					"name": "",
					"type": "uint256"
				}
			],
			"stateMutability": "view",
			"type": "function"
		},
		{
			"inputs": [],
			"name": "s_withdrawAmountLocked",
			"outputs": [
				{
					"internalType": "uint256",
					"name": "",
					"type": "uint256"
				}
			],
			"stateMutability": "view",
			"type": "function"
		},
		{
			"inputs": [
				{
					"internalType": "bytes32",
					"name": "withdrawalId",
					"type": "bytes32"
				}
			],
			"name": "s_withdrawRequests",
			"outputs": [
				{
					"internalType": "address",
					"name": "lpAddress",
					"type": "address"
				},
				{
					"internalType": "uint256",
					"name": "lpSupplySnapshot_DEPRECATED",
					"type": "uint256"
				},
				{
					"internalType": "uint256",
					"name": "lpAmountToBurn",
					"type": "uint256"
				},
				{
					"internalType": "uint256",
					"name": "totalCrossChainLiquiditySnapshot",
					"type": "uint256"
				},
				{
					"internalType": "uint256",
					"name": "amountToWithdraw",
					"type": "uint256"
				},
				{
					"internalType": "uint256",
					"name": "liquidityRequestedFromEachPool",
					"type": "uint256"
				},
				{
					"internalType": "uint256",
					"name": "remainingLiquidityFromChildPools",
					"type": "uint256"
				},
				{
					"internalType": "uint256",
					"name": "triggeredAtTimestamp",
					"type": "uint256"
				}
			],
			"stateMutability": "view",
			"type": "function"
		},
		{
			"inputs": [
				{
					"internalType": "bytes32",
					"name": "withdrawalId",
					"type": "bytes32"
				}
			],
			"name": "s_withdrawTriggered",
			"outputs": [
				{
					"internalType": "bool",
					"name": "isTriggered",
					"type": "bool"
				}
			],
			"stateMutability": "view",
			"type": "function"
		},
		{
			"inputs": [
				{
					"internalType": "bytes32",
					"name": "clfReqId",
					"type": "bytes32"
				}
			],
			"name": "s_withdrawalIdByCLFRequestId",
			"outputs": [
				{
					"internalType": "bytes32",
					"name": "withdrawalId",
					"type": "bytes32"
				}
			],
			"stateMutability": "view",
			"type": "function"
		},
		{
			"inputs": [
				{
					"internalType": "address",
					"name": "lpAddress",
					"type": "address"
				}
			],
			"name": "s_withdrawalIdByLPAddress",
			"outputs": [
				{
					"internalType": "bytes32",
					"name": "withdrawalId",
					"type": "bytes32"
				}
			],
			"stateMutability": "view",
			"type": "function"
		},
		{
			"inputs": [
				{
					"internalType": "uint256",
					"name": "",
					"type": "uint256"
				}
			],
			"name": "s_withdrawalRequestIds",
			"outputs": [
				{
					"internalType": "bytes32",
					"name": "",
					"type": "bytes32"
				}
			],
			"stateMutability": "view",
			"type": "function"
		},
		{
			"inputs": [
				{
					"internalType": "bytes32",
					"name": "_hashSum",
					"type": "bytes32"
				}
			],
			"name": "setCollectLiquidityJsCodeHashSum",
			"outputs": [],
			"stateMutability": "payable",
			"type": "function"
		},
		{
			"inputs": [
				{
					"internalType": "uint64",
					"name": "_chainSelector",
					"type": "uint64"
				},
				{
					"internalType": "address",
					"name": "_contractAddress",
					"type": "address"
				},
				{
					"internalType": "bool",
					"name": "_isAllowed",
					"type": "bool"
				}
			],
			"name": "setConceroContractSender",
			"outputs": [],
			"stateMutability": "payable",
			"type": "function"
		},
		{
			"inputs": [
				{
					"internalType": "bytes32",
					"name": "_hashSum",
					"type": "bytes32"
				}
			],
			"name": "setDistributeLiquidityJsCodeHashSum",
			"outputs": [],
			"stateMutability": "payable",
			"type": "function"
		},
		{
			"inputs": [
				{
					"internalType": "uint8",
					"name": "_slotId",
					"type": "uint8"
				}
			],
			"name": "setDonHostedSecretsSlotId",
			"outputs": [],
			"stateMutability": "payable",
			"type": "function"
		},
		{
			"inputs": [
				{
					"internalType": "uint64",
					"name": "_version",
					"type": "uint64"
				}
			],
			"name": "setDonHostedSecretsVersion",
			"outputs": [],
			"stateMutability": "payable",
			"type": "function"
		},
		{
			"inputs": [
				{
					"internalType": "bytes32",
					"name": "_ethersHashSum",
					"type": "bytes32"
				}
			],
			"name": "setEthersHashSum",
			"outputs": [],
			"stateMutability": "payable",
			"type": "function"
		},
		{
			"inputs": [
				{
					"internalType": "bytes32",
					"name": "_hashSum",
					"type": "bytes32"
				}
			],
			"name": "setGetBalanceJsCodeHashSum",
			"outputs": [],
			"stateMutability": "payable",
			"type": "function"
		},
		{
			"inputs": [
				{
					"internalType": "uint256",
					"name": "_newCap",
					"type": "uint256"
				}
			],
			"name": "setPoolCap",
			"outputs": [],
			"stateMutability": "payable",
			"type": "function"
		},
		{
			"inputs": [
				{
					"internalType": "uint64",
					"name": "_chainSelector",
					"type": "uint64"
				},
				{
					"internalType": "address",
					"name": "_pool",
					"type": "address"
				},
				{
					"internalType": "bool",
					"name": "isRebalancingNeeded",
					"type": "bool"
				}
			],
			"name": "setPools",
			"outputs": [],
			"stateMutability": "payable",
			"type": "function"
		},
		{
			"inputs": [
				{
					"internalType": "uint256",
					"name": "_usdcAmount",
					"type": "uint256"
				}
			],
			"name": "startDeposit",
			"outputs": [],
			"stateMutability": "nonpayable",
			"type": "function"
		},
		{
			"inputs": [
				{
					"internalType": "uint256",
					"name": "_lpAmount",
					"type": "uint256"
				}
			],
			"name": "startWithdrawal",
			"outputs": [],
			"stateMutability": "nonpayable",
			"type": "function"
		},
		{
			"inputs": [
				{
					"internalType": "bytes4",
					"name": "interfaceId",
					"type": "bytes4"
				}
			],
			"name": "supportsInterface",
			"outputs": [
				{
					"internalType": "bool",
					"name": "",
					"type": "bool"
				}
			],
			"stateMutability": "view",
			"type": "function"
		},
		{
			"inputs": [
				{
					"internalType": "address",
					"name": "_token",
					"type": "address"
				},
				{
					"internalType": "uint256",
					"name": "_amount",
					"type": "uint256"
				},
				{
					"internalType": "address",
					"name": "_receiver",
					"type": "address"
				}
			],
			"name": "takeLoan",
			"outputs": [],
			"stateMutability": "payable",
			"type": "function"
		},
		{
			"inputs": [],
			"name": "withdrawDepositFees",
			"outputs": [],
			"stateMutability": "payable",
			"type": "function"
		},
		{
			"stateMutability": "payable",
			"type": "receive"
		}
	],
	"bytecode": "0x6102206040523480156200001257600080fd5b5060405162004b4f38038062004b4f83398101604081905262000035916200010d565b8a8587838a6001600160a01b03811662000069576040516335fdcccd60e21b81526000600482015260240160405180910390fd5b6001600160a01b0390811660805293841660a05291831660c05281518316610100526020820151831661012052604090910151821661014052811660e0529788166101805250918616610160529085166101c0529584166101a0525050509182166101e0521661020052506200025c565b80516001600160a01b0381168114620000f257600080fd5b919050565b634e487b7160e01b600052604160045260246000fd5b60008060008060008060008060008060006101a0808d8f0312156200013157600080fd5b6200013c8d620000da565b9b506200014c60208e01620000da565b9a506200015c60408e01620000da565b99506200016c60608e01620000da565b98506200017c60808e01620000da565b97506200018c60a08e01620000da565b96506200019c60c08e01620000da565b9550620001ac60e08e01620000da565b9450620001bd6101008e01620000da565b9350620001ce6101208e01620000da565b92508d61015f8e0112620001e157600080fd5b604051606081016001600160401b0381118282101715620002065762000206620000f7565b604052908d0190808f8311156200021c57600080fd5b6101408f015b8381101562000245576200023681620000da565b82526020918201910162000222565b505080925050509295989b509295989b9093969950565b60805160a05160c05160e05161010051610120516101405161016051610180516101a0516101c0516101e0516102005161471b620004346000396000610f0601526000610a920152600081816109e201528181610b6601528181610fcf015281816111f7015281816112b8015281816115d101528181611641015281816116b3015281816116ea01528181611b5f01528181611f3a015261256e015260008181610b2f01528181610ecc01528181610f990152818161158201528181611afe01528181611e680152818161201d01528181612230015261237701526000818161296a015261342a01526000818161241201528181612deb0152612ec801526000612701015260006126c50152600061268a0152600081816113f00152818161169001528181611c6301528181612479015281816127b2015281816128b401528181612aa501528181612d1101528181612f500152818161357e015261363401526000818161080501528181611434015281816121b201528181612b4201526135130152600081816110760152818161130701528181611bbe0152818161205101526123c70152600081816107a701528181611259015281816127de015281816128820152818161293b01526129ef015261471b6000f3fe6080604052600436106102975760003560e01c806387906d511161015a578063c27e26cb116100c1578063e69bb20d1161007a578063e69bb20d146108f4578063ed12c5f914610914578063f3141e8014610945578063f364c1e61461095a578063fce32c6d1461096d578063fdb742d91461098d57600080fd5b8063c27e26cb14610847578063cf10af021461085a578063d4602f121461088a578063d835f535146108aa578063dad35590146108bd578063de5dff36146108df57600080fd5b8063aac0167b11610113578063aac0167b14610790578063b0f479a114610798578063b15a49c1146107cb578063b2232657146107e0578063b2b0b0bd146107f3578063c0279b251461082757600080fd5b806387906d51146106dd5780638c503dc4146106f05780639a7c3c52146107105780639b9cf8a214610730578063a2d3dc4714610743578063a9431ba31461076357600080fd5b80634585e33b116101fe57806367511437116101b757806367511437146105395780636e04ff0d146105e65780637ff643521461061457806380e3748a1461062757806384d5b8d31461069d57806385572ffb146106bd57600080fd5b80634585e33b14610498578063493df3f0146104b85780634b55ab86146104cb5780635926b8e8146104ed578063631a5a4f1461050357806366352e301461051957600080fd5b80632fdf2993116102505780632fdf2993146103dc578063322127761461040957806337ae5b561461041e57806338c6494b146104345780633d0a18bf1461044a5780633ea5f26d1461045d57600080fd5b806301ffc9a7146102a357806303851d05146102d8578063066e34431461031c5780630a80a8431461036a5780630ca761751461037f578063231d3b6b1461039f57600080fd5b3661029e57005b600080fd5b3480156102af57600080fd5b506102c36102be3660046139db565b6109a0565b60405190151581526020015b60405180910390f35b3480156102e457600080fd5b5061030e6102f3366004613a1a565b6001600160a01b031660009081526043602052604090205490565b6040519081526020016102cf565b34801561032857600080fd5b50610352610337366004613a4e565b603e602052600090815260409020546001600160a01b031681565b6040516001600160a01b0390911681526020016102cf565b61037d610378366004613a77565b6109d7565b005b34801561038b57600080fd5b5061037d61039a366004613bef565b610a87565b3480156103ab57600080fd5b506103cf6103ba366004613c5b565b60416020526000908152604090205460ff1681565b6040516102cf9190613c9a565b3480156103e857600080fd5b5061030e6103f7366004613a1a565b60436020526000908152604090205481565b34801561041557600080fd5b5060015461030e565b34801561042a57600080fd5b5061030e60015481565b34801561044057600080fd5b5061030e60005481565b61037d610458366004613a77565b610b5b565b34801561046957600080fd5b506102c3610478366004613cad565b603f60209081526000928352604080842090915290825290205460ff1681565b3480156104a457600080fd5b5061037d6104b3366004613ce4565b610efb565b61037d6104c6366004613c5b565b610fc4565b3480156104d757600080fd5b506104e0611012565b6040516102cf9190613d55565b3480156104f957600080fd5b5061030e60085481565b34801561050f57600080fd5b5061030e60055481565b34801561052557600080fd5b5061037d610534366004613da6565b61106b565b34801561054557600080fd5b506105a1610554366004613c5b565b604560205260009081526040902080546001820154600283015460038401546004850154600586015460068701546007909701546001600160a01b03909616969495939492939192909188565b604080516001600160a01b0390991689526020890197909752958701949094526060860192909252608085015260a084015260c083015260e0820152610100016102cf565b3480156105f257600080fd5b50610606610601366004613ce4565b611172565b6040516102cf929190613e3e565b61037d610622366004613c5b565b6111ec565b34801561063357600080fd5b50610673610642366004613c5b565b60426020526000908152604090208054600182015460028301546003909301546001600160a01b0390921692909184565b604080516001600160a01b03909516855260208501939093529183015260608201526080016102cf565b3480156106a957600080fd5b5061030e6106b8366004613e59565b61123b565b3480156106c957600080fd5b5061037d6106d8366004613e7b565b61124e565b61037d6106eb366004613c5b565b6112ad565b3480156106fc57600080fd5b5061037d61070b366004613c5b565b6112fc565b34801561071c57600080fd5b5061030e61072b366004613e59565b61153a565b61037d61073e366004613c5b565b6115c6565b34801561074f57600080fd5b5061030e61075e366004613c5b565b611614565b34801561076f57600080fd5b5061030e61077e366004613c5b565b60446020526000908152604090205481565b61037d611636565b3480156107a457600080fd5b507f0000000000000000000000000000000000000000000000000000000000000000610352565b3480156107d757600080fd5b5060005461030e565b61037d6107ee366004613a4e565b6116df565b3480156107ff57600080fd5b506103527f000000000000000000000000000000000000000000000000000000000000000081565b34801561083357600080fd5b5061030e610842366004613c5b565b611b2b565b61037d610855366004613eb5565b611b54565b34801561086657600080fd5b506102c3610875366004613c5b565b60406020819052600091825290205460ff1681565b34801561089657600080fd5b5061037d6108a5366004613c5b565b611bb3565b61037d6108b8366004613c5b565b611f2f565b3480156108c957600080fd5b506108d2611f7d565b6040516102cf9190613ed8565b3480156108eb57600080fd5b5061037d611fef565b34801561090057600080fd5b5061037d61090f366004613c5b565b612046565b34801561092057600080fd5b506102c361092f366004613c5b565b61020b6020526000908152604090205460ff1681565b34801561095157600080fd5b50610606612311565b61037d610968366004613f2c565b6123bc565b34801561097957600080fd5b5061030e610988366004613e59565b6124f9565b61037d61099b366004613a4e565b612563565b60006001600160e01b031982166385572ffb60e01b14806109d157506001600160e01b031982166301ffc9a760e01b145b92915050565b336001600160a01b037f00000000000000000000000000000000000000000000000000000000000000001614610a20576040516330cd747160e01b815260040160405180910390fd5b6001600160a01b038216610a475760405163e6c4247b60e01b815260040160405180910390fd5b6001600160401b039092166000908152603f602090815260408083206001600160a01b03909416835292905220805491151560ff19909216919091179055565b336001600160a01b037f00000000000000000000000000000000000000000000000000000000000000001614610ad757604051630e7cf39b60e11b81523360048201526024015b60405180910390fd5b600063be3fbad860e01b848484604051602401610af693929190613f63565b60408051601f198184030181529190526020810180516001600160e01b03166001600160e01b0319909316929092179091529050610b547f0000000000000000000000000000000000000000000000000000000000000000826125d5565b5050505050565b336001600160a01b037f00000000000000000000000000000000000000000000000000000000000000001614610ba4576040516330cd747160e01b815260040160405180910390fd5b6001600160401b0383166000908152603e60205260409020546001600160a01b0383811691161480610bdd57506001600160a01b038216155b15610bfb5760405163e6c4247b60e01b815260040160405180910390fd5b603c8054600181019091557fc6bb06cb7f92603de181bf256cd16846b93b752a170ff24824098b31aa008a7e6004820401805460039092166008026101000a6001600160401b03818102199093169286169081029290921790556000908152603e6020526040902080546001600160a01b0319166001600160a01b0384161790558015610ef6576000828460004243604051602001610c9e959493929190613fa5565b60408051808303601f190181528282528051602090910120600680845260e08401909252925060009190816020015b6060815260200190600190039081610ccd57905050905061020954604051602001610cfa91815260200190565b60405160208183030381529060405281600081518110610d1c57610d1c613ff3565b6020026020010181905250600454604051602001610d3c91815260200190565b60405160208183030381529060405281600181518110610d5e57610d5e613ff3565b60200260200101819052506003604051602001610d7b9190614009565b60405160208183030381529060405281600281518110610d9d57610d9d613ff3565b602002602001018190525084604051602001610dcc919060c09190911b6001600160c01b031916815260080190565b60405160208183030381529060405281600381518110610dee57610dee613ff3565b602002602001018190525081604051602001610e0c91815260200190565b60405160208183030381529060405281600481518110610e2e57610e2e613ff3565b60200260200101819052506000604051602001610e4b9190614020565b60405160208183030381529060405281600581518110610e6d57610e6d613ff3565b60200260200101819052506000635dc9f75a60e01b82604051602401610e939190614032565b60408051601f198184030181529190526020810180516001600160e01b03166001600160e01b0319909316929092179091529050610ef17f0000000000000000000000000000000000000000000000000000000000000000826125d5565b505050505b505050565b336001600160a01b037f00000000000000000000000000000000000000000000000000000000000000001614610f43576040516282b42960e81b815260040160405180910390fd5b6000634585e33b60e01b8383604051602401610f60929190614094565b60408051601f198184030181529190526020810180516001600160e01b03166001600160e01b0319909316929092179091529050610fbe7f0000000000000000000000000000000000000000000000000000000000000000826125d5565b50505050565b336001600160a01b037f0000000000000000000000000000000000000000000000000000000000000000161461100d576040516330cd747160e01b815260040160405180910390fd5b600355565b606061020a80548060200260200160405190810160405280929190818152602001828054801561106157602002820191906000526020600020905b81548152602001906001019080831161104d575b5050505050905090565b306001600160a01b037f000000000000000000000000000000000000000000000000000000000000000016146110b657604051634082dd8760e01b8152306004820152602401610ace565b6110bf33612686565b6110dc57604051631e51e47d60e01b815260040160405180910390fd5b6001600160401b0384166000908152603e60205260409020546001600160a01b031661111b5760405163e6c4247b60e01b815260040160405180910390fd5b60008281526040602081905290205460ff161561114e57604051636a53016360e01b815260048101839052602401610ace565b6000828152604060208190529020805460ff19166001179055610b5484848361273a565b60006060600080306001600160a01b031663f3141e806040518163ffffffff1660e01b8152600401600060405180830381865afa1580156111b7573d6000803e3d6000fd5b505050506040513d6000823e601f3d908101601f191682016040526111df9190810190614108565b9097909650945050505050565b336001600160a01b037f00000000000000000000000000000000000000000000000000000000000000001614611235576040516330cd747160e01b815260040160405180910390fd5b61020955565b60006112478383612a76565b9392505050565b336001600160a01b037f00000000000000000000000000000000000000000000000000000000000000001614611299576040516335fdcccd60e21b8152336004820152602401610ace565b6112aa6112a58261420e565b612c30565b50565b336001600160a01b037f000000000000000000000000000000000000000000000000000000000000000016146112f6576040516330cd747160e01b815260040160405180910390fd5b61020855565b306001600160a01b037f0000000000000000000000000000000000000000000000000000000000000000161461134757604051634082dd8760e01b8152306004820152602401610ace565b60008181526042602052604081208054600282015491926001600160a01b039091169190611379620f424060036142d0565b61138390836142e7565b6001850154909150336001600160a01b038516146113b457604051630c92ba2960e21b815260040160405180910390fd5b806000036113d557604051630ed4bcbf60e41b815260040160405180910390fd5b60006113e18284612a76565b90506114186001600160a01b037f000000000000000000000000000000000000000000000000000000000000000016333087613159565b6040516340c10f1960e01b8152336004820152602481018290527f00000000000000000000000000000000000000000000000000000000000000006001600160a01b0316906340c10f1990604401600060405180830381600087803b15801561148057600080fd5b505af1158015611494573d6000803e3d6000fd5b505050506114a38360006131c0565b6114b1620f424060036142d0565b600760008282546114c291906142fa565b90915550506040805185815260208101839052339189917ffdf07b7baadecc03be23c95df6e9d261146d07447ade958ec47988e840b1acd4910160405180910390a3505050600093845250506042602052506040812080546001600160a01b0319168155600181018290556002810182905560030155565b604080516024810184905260448082018490528251808303909101815260649091019091526020810180516001600160e01b031663fce32c6d60e01b179052600090816115a77f0000000000000000000000000000000000000000000000000000000000000000836125d5565b9050808060200190518101906115bd919061430d565b95945050505050565b336001600160a01b037f0000000000000000000000000000000000000000000000000000000000000000161461160f576040516330cd747160e01b815260040160405180910390fd5b600455565b61020a818154811061162557600080fd5b600091825260209091200154905081565b336001600160a01b037f0000000000000000000000000000000000000000000000000000000000000000161461167f576040516330cd747160e01b815260040160405180910390fd5b6007546116d8906001600160a01b037f000000000000000000000000000000000000000000000000000000000000000016907f0000000000000000000000000000000000000000000000000000000000000000906132e2565b6000600755565b336001600160a01b037f00000000000000000000000000000000000000000000000000000000000000001614611728576040516330cd747160e01b815260040160405180910390fd5b6000805b603c548110156118b357826001600160401b0316603c828154811061175357611753613ff3565b6000918252602090912060048204015460039091166008026101000a90046001600160401b0316036118a1576001600160401b0383166000908152603e6020526040902054603c80546001600160a01b039092169350906117b6906001906142e7565b815481106117c6576117c6613ff3565b90600052602060002090600491828204019190066008029054906101000a90046001600160401b0316603c828154811061180257611802613ff3565b90600052602060002090600491828204019190066008026101000a8154816001600160401b0302191690836001600160401b03160217905550603c80548061184c5761184c614326565b6000828152602080822060046000199094019384040180546001600160401b03600860038716026101000a810219909116909155929093559085168152603e9091526040902080546001600160a01b03191690555b806118ab8161433c565b91505061172c565b5060008183600142436040516020016118d0959493929190613fa5565b60408051808303601f190181528282528051602090910120600680845260e08401909252925060009190816020015b60608152602001906001900390816118ff5790505090506102095460405160200161192c91815260200190565b6040516020818303038152906040528160008151811061194e5761194e613ff3565b602002602001018190525060045460405160200161196e91815260200190565b6040516020818303038152906040528160018151811061199057611990613ff3565b602002602001018190525060036040516020016119ad9190614009565b604051602081830303815290604052816002815181106119cf576119cf613ff3565b6020026020010181905250836040516020016119fe919060c09190911b6001600160c01b031916815260080190565b60405160208183030381529060405281600381518110611a2057611a20613ff3565b602002602001018190525081604051602001611a3e91815260200190565b60405160208183030381529060405281600481518110611a6057611a60613ff3565b60200260200101819052506001604051602001611a7d9190614020565b60405160208183030381529060405281600581518110611a9f57611a9f613ff3565b60200260200101819052506000635dc9f75a60e01b82604051602401611ac59190614032565b60408051601f198184030181529190526020810180516001600160e01b03166001600160e01b0319909316929092179091529050611b237f0000000000000000000000000000000000000000000000000000000000000000826125d5565b505050505050565b60006402540be4006103e8611b4082856142d0565b611b4a9190614355565b6109d19190614355565b336001600160a01b037f00000000000000000000000000000000000000000000000000000000000000001614611b9d576040516330cd747160e01b815260040160405180910390fd5b6002805460ff191660ff92909216919091179055565b306001600160a01b037f00000000000000000000000000000000000000000000000000000000000000001614611bfe57604051634082dd8760e01b8152306004820152602401610ace565b611c0c620f424060646142d0565b811015611c3d57611c21620f424060646142d0565b604051631aaf7c3f60e01b8152600401610ace91815260200190565b6000546008546001546007546040516370a0823160e01b815230600482015284939291907f00000000000000000000000000000000000000000000000000000000000000006001600160a01b0316906370a0823190602401602060405180830381865afa158015611cb2573d6000803e3d6000fd5b505050506040513d601f19601f82011682018060405250810190611cd6919061430d565b611ce090876142fa565b611cea91906142e7565b611cf491906142fa565b611cfe91906142e7565b1115611d205760405163037eeee360e11b815260048101829052602401610ace565b60408051600380825260808201909252600091816020015b6060815260200190600190039081611d38579050509050600354604051602001611d6491815260200190565b60405160208183030381529060405281600081518110611d8657611d86613ff3565b6020026020010181905250600454604051602001611da691815260200190565b60405160208183030381529060405281600181518110611dc857611dc8613ff3565b60200260200101819052506000604051602001611de59190614009565b60405160208183030381529060405281600281518110611e0757611e07613ff3565b60200260200101819052506000635dc9f75a60e01b82604051602401611e2d9190614032565b60408051601f198184030181529190526020810180516001600160e01b03166001600160e01b03199093169290921790915290506000611e8d7f0000000000000000000000000000000000000000000000000000000000000000836125d5565b90506000611e9a82614377565b90506000611ea9603c426142fa565b6000838152604160209081526040808320805460ff19169055604282529182902080546001600160a01b031916339081178255600282018c9055600390910184905582518b815291820184905292935084917feb9aaadd237168a4ac14b70e452788aea49cf98bafcd0d64a94cfda748aa7edc910160405180910390a350505050505050565b336001600160a01b037f00000000000000000000000000000000000000000000000000000000000000001614611f78576040516330cd747160e01b815260040160405180910390fd5b600055565b611f8561399b565b604080516112c08101909152604660966000835b82821015611fe6576040805160608101825260038402860180546001600160401b031682526001808201546020808501919091526002909201549383019390935290835292019101611f99565b50505050905090565b6040805160048152602481019091526020810180516001600160e01b0316636f2eff9b60e11b1790526120427f0000000000000000000000000000000000000000000000000000000000000000826125d5565b5050565b306001600160a01b037f0000000000000000000000000000000000000000000000000000000000000000161461209157604051634082dd8760e01b8152306004820152602401610ace565b670de0b6b3a76400008110156120c457604051638b66dc5b60e01b8152670de0b6b3a76400006004820152602401610ace565b33600090815260436020526040902054156120f2576040516305e05f3160e11b815260040160405180910390fd5b60408051600280825260608201909252600091816020015b606081526020019060019003908161210a57905050905060035460405160200161213691815260200190565b6040516020818303038152906040528160008151811061215857612158613ff3565b602002602001018190525060045460405160200161217891815260200190565b6040516020818303038152906040528160018151811061219a5761219a613ff3565b60209081029190910101526121da6001600160a01b037f000000000000000000000000000000000000000000000000000000000000000016333085613159565b6000635dc9f75a60e01b826040516024016121f59190614032565b60408051601f198184030181529190526020810180516001600160e01b03166001600160e01b031990931692909217909152905060006122557f0000000000000000000000000000000000000000000000000000000000000000836125d5565b9050600061226282614377565b6040516bffffffffffffffffffffffff193360601b166020820152603481018790524360548201526074810182905290915060009060940160408051808303601f190181529181528151602092830120600085815260418452828120805460ff19166001179055818152604584528281208054336001600160a01b03199091168117825560029091019a909a559485526044835281852081905597845260439091529091209490945550505050565b60408051602081018252600080825291516060918391636e04ff0d60e01b9161233c9160240161439e565b60408051601f198184030181529190526020810180516001600160e01b03166001600160e01b0319909316929092179091529050600061239c7f0000000000000000000000000000000000000000000000000000000000000000836125d5565b9050808060200190518101906123b29190614108565b9350935050509091565b306001600160a01b037f0000000000000000000000000000000000000000000000000000000000000000161461240757604051634082dd8760e01b8152306004820152602401610ace565b336001600160a01b037f000000000000000000000000000000000000000000000000000000000000000016146124505760405163cbf86ac160e01b815260040160405180910390fd5b6001600160a01b0381166124775760405163e6c4247b60e01b815260040160405180910390fd5b7f00000000000000000000000000000000000000000000000000000000000000006001600160a01b0316836001600160a01b0316146124c9576040516315af893960e21b815260040160405180910390fd5b6124dd6001600160a01b03841682846132e2565b81600160008282546124ef91906142fa565b9091555050505050565b604051634d3e1e2960e11b815260048101839052602481018290526000903090639a7c3c5290604401602060405180830381865afa15801561253f573d6000803e3d6000fd5b505050506040513d601f19601f82011682018060405250810190611247919061430d565b336001600160a01b037f000000000000000000000000000000000000000000000000000000000000000016146125ac576040516330cd747160e01b815260040160405180910390fd5b600280546001600160401b039092166101000268ffffffffffffffff0019909216919091179055565b60606001600160a01b0383166125fe5760405163e6c4247b60e01b815260040160405180910390fd5b600080846001600160a01b03168460405161261991906143b1565b600060405180830381855af49150503d8060008114612654576040519150601f19603f3d011682016040523d82523d6000602084013e612659565b606091505b50915091508161267e5783604051631127aa3160e21b8152600401610ace919061439e565b949350505050565b60007f00000000000000000000000000000000000000000000000000000000000000006001600160a01b0316826001600160a01b031614806126f957507f00000000000000000000000000000000000000000000000000000000000000006001600160a01b0316826001600160a01b0316145b806109d157507f00000000000000000000000000000000000000000000000000000000000000006001600160a01b0316826001600160a01b03161492915050565b600060606000604051806040016040528085600381111561275d5761275d613c74565b81526020018360405160200161277391906143cd565b60408051601f1981840301815291815291526001600160401b0388166000908152603e602052908120549192506001600160a01b03909116906127d8827f00000000000000000000000000000000000000000000000000000000000000008986613313565b905060007f00000000000000000000000000000000000000000000000000000000000000006001600160a01b03166320487ded8a846040518363ffffffff1660e01b815260040161282a929190614425565b602060405180830381865afa158015612847573d6000803e3d6000fd5b505050506040513d601f19601f8201168201806040525081019061286b919061430d565b60405163095ea7b360e01b81526001600160a01b037f000000000000000000000000000000000000000000000000000000000000000081166004830152602482018b90529192507f00000000000000000000000000000000000000000000000000000000000000009091169063095ea7b3906044016020604051808303816000875af11580156128ff573d6000803e3d6000fd5b505050506040513d601f19601f8201168201806040525081019061292391906144fe565b5060405163095ea7b360e01b81526001600160a01b037f000000000000000000000000000000000000000000000000000000000000000081166004830152602482018390527f0000000000000000000000000000000000000000000000000000000000000000169063095ea7b3906044016020604051808303816000875af11580156129b3573d6000803e3d6000fd5b505050506040513d601f19601f820116820180604052508101906129d791906144fe565b506040516396f4e9f960e01b81526001600160a01b037f000000000000000000000000000000000000000000000000000000000000000016906396f4e9f990612a26908c908690600401614425565b6020604051808303816000875af1158015612a45573d6000803e3d6000fd5b505050506040513d601f19601f82011682018060405250810190612a69919061430d565b9998505050505050505050565b6007546005546001546040516370a0823160e01b81523060048201526000938493909290916001600160a01b037f000000000000000000000000000000000000000000000000000000000000000016906370a0823190602401602060405180830381865afa158015612aec573d6000803e3d6000fd5b505050506040513d601f19601f82011682018060405250810190612b10919061430d565b612b1a91906142fa565b612b2491906142fa565b612b2e91906142e7565b90506000612b3c82866142fa565b905060007f00000000000000000000000000000000000000000000000000000000000000006001600160a01b03166318160ddd6040518163ffffffff1660e01b8152600401602060405180830381865afa158015612b9e573d6000803e3d6000fd5b505050506040513d601f19601f82011682018060405250810190612bc2919061430d565b905080600003612bdf57612bd5856134bb565b93505050506109d1565b6000612bea836134bb565b90506000612bf7876134bb565b9050828281612c0684836142fa565b612c1091906142d0565b612c1a9190614355565b612c2491906142e7565b98975050505050505050565b80602001518160400151806020019051810190612c4d919061451b565b6001600160401b0382166000908152603f602090815260408083206001600160a01b038516845290915290205460ff16612ca5576040516368692cbb60e11b81526001600160a01b0382166004820152602401610ace565b60008360600151806020019051810190612cbf9190614538565b905060008460800151600081518110612cda57612cda613ff3565b602002602001015160200151905060008560800151600081518110612d0157612d01613ff3565b60200260200101516000015190507f00000000000000000000000000000000000000000000000000000000000000006001600160a01b0316816001600160a01b031614612d61576040516315af893960e21b815260040160405180910390fd5b600183516003811115612d7657612d76613c74565b03612fea5760008360200151806020019051810190612d9591906145b7565b905060005b8151811015612fe3576000828281518110612db757612db7613ff3565b60200260200101516000015190506000838381518110612dd957612dd9613ff3565b602002602001015160200151905060007f00000000000000000000000000000000000000000000000000000000000000006001600160a01b031663b8357a8d846040518263ffffffff1660e01b8152600401612e3791815260200190565b602060405180830381865afa158015612e54573d6000803e3d6000fd5b505050506040513d601f19601f82011682018060405250810190612e7891906144fe565b90508015612eb257612e8982611b2b565b612e9390836142e7565b91508160016000828254612ea791906142e7565b90915550612fcf9050565b60405163216903f960e01b8152600481018490527f00000000000000000000000000000000000000000000000000000000000000006001600160a01b03169063216903f990602401600060405180830381600087803b158015612f1457600080fd5b505af1158015612f28573d6000803e3d6000fd5b50505050612f87858581518110612f4157612f41613ff3565b602002602001015160400151837f00000000000000000000000000000000000000000000000000000000000000006001600160a01b03166132e29092919063ffffffff16565b848481518110612f9957612f99613ff3565b6020908102919091010151516040517f6c418f31b032b649e45a47560b499048b82774aca9ef1118891701026b9cbafb90600090a25b50505080612fdc9061433c565b9050612d9a565b50506130d4565b600283516003811115612fff57612fff613c74565b036130d4576000836020015180602001905181019061301e919061430d565b6000818152604560205260408120600481015492935091900361305757604051635d22619760e11b815260048101839052602401610ace565b838160060154101561306a57600061307a565b83816006015461307a91906142e7565b600682015560095484111561309057600061309e565b8360095461309e91906142e7565b60098190555083600860008282546130b691906142fa565b90915550506006810154600a11156130d1576130d1826134d3565b50505b85600001517f8b047d148394eedc8fcd21d97a72e23b8c446ebf1ee926a0b642299ad89fa4b187602001518860400151806020019051810190613117919061451b565b604080516001600160401b0390931683526001600160a01b039182166020840152908516908201526060810185905260800160405180910390a2505050505050565b6040516001600160a01b038481166024830152838116604483015260648201839052610fbe9186918216906323b872dd906084015b604051602081830303815290604052915060e01b6020820180516001600160e01b038381831617835250505050613692565b603c5460006402540be4006131d68360016142fa565b6131e56402540be400876142d0565b6131ef9190614355565b6131f99190614355565b90506000603c80548060200260200160405190810160405280929190818152602001828054801561327b57602002820191906000526020600020906000905b82829054906101000a90046001600160401b03166001600160401b0316815260200190600801906020826007010492830192600103820291508084116132385790505b5050505050905060005b83811015611b235760006132b38383815181106132a4576132a4613ff3565b6020026020010151858861273a565b90506132d9818484815181106132cb576132cb613ff3565b6020026020010151866136f5565b50600101613285565b6040516001600160a01b03838116602483015260448201839052610ef691859182169063a9059cbb9060640161318e565b61334e6040518060a0016040528060608152602001606081526020016060815260200160006001600160a01b03168152602001606081525090565b604080516001808252818301909252600091816020015b60408051808201909152600080825260208201528152602001906001900390816133655790505090506040518060400160405280866001600160a01b0316815260200185815250816000815181106133bf576133bf613ff3565b60209081029190910101526040805160a081019091526001600160a01b03871660c08201528060e0810160405160208183030381529060405281526020018460405160200161340e919061467d565b60405160208183030381529060405281526020018281526020017f00000000000000000000000000000000000000000000000000000000000000006001600160a01b031681526020016134af6040518060200160405280620493e063ffffffff1681525060408051915160248084019190915281518084039091018152604490920190526020810180516001600160e01b03166397a657c960e01b17905290565b90529695505050505050565b6000620f4240611b4a670de0b6b3a7640000846142d0565b60008181526045602052604090819020600480820154825460028401549451630852cd8d60e31b81529283019490945291926001600160a01b03908116917f0000000000000000000000000000000000000000000000000000000000000000909116906342966c6890602401600060405180830381600087803b15801561355957600080fd5b505af115801561356d573d6000803e3d6000fd5b506135a79250506001600160a01b037f000000000000000000000000000000000000000000000000000000000000000016905082846132e2565b81600854116135b75760006135c5565b816008546135c591906142e7565b6008556001600160a01b0381811660008181526043602090815260408083208390558883526045825280832080546001600160a01b03191681556001810184905560028101849055600381018490556004810184905560058101849055600681018490556007019290925581517f000000000000000000000000000000000000000000000000000000000000000090941684528301859052909186917f078355a5c5497271cb4931fd64c9c4508e55b72009043b3efc749e697e48d14e910160405180910390a350505050565b60006136a76001600160a01b038416836137eb565b905080516000141580156136cc5750808060200190518101906136ca91906144fe565b155b15610ef657604051635274afe760e01b81526001600160a01b0384166004820152602401610ace565b6000613703600160966146ad565b60065460ff91821691161061371f5761371a6137f9565b61374a565b600680546000906137329060ff166146c6565b91906101000a81548160ff021916908360ff16021790555b90506040518060600160405280846001600160401b031681526020018581526020018381525060468260ff166096811061378657613786613ff3565b6003020160008201518160000160006101000a8154816001600160401b0302191690836001600160401b03160217905550602082015181600101556040820151816002015590505081600560008282546137e091906142fa565b909155505050505050565b606061124783836000613879565b60008060015b609660ff8216101561384f576000604660ff83166096811061382357613823613ff3565b600302016001015403613847576006805460ff191660ff831617905590508061384f565b6001016137ff565b508060ff1660000361387457604051631e0fc5a560e11b815260040160405180910390fd5b919050565b60608147101561389e5760405163cd78605960e01b8152306004820152602401610ace565b600080856001600160a01b031684866040516138ba91906143b1565b60006040518083038185875af1925050503d80600081146138f7576040519150601f19603f3d011682016040523d82523d6000602084013e6138fc565b606091505b509150915061390c868383613916565b9695505050505050565b60608261392b5761392682613972565b611247565b815115801561394257506001600160a01b0384163b155b1561396b57604051639996b31560e01b81526001600160a01b0385166004820152602401610ace565b5080611247565b8051156139825780518082602001fd5b604051630a12f52160e11b815260040160405180910390fd5b604051806112c001604052806096905b60408051606081018252600080825260208083018290529282015282526000199092019101816139ab5790505090565b6000602082840312156139ed57600080fd5b81356001600160e01b03198116811461124757600080fd5b6001600160a01b03811681146112aa57600080fd5b600060208284031215613a2c57600080fd5b813561124781613a05565b80356001600160401b038116811461387457600080fd5b600060208284031215613a6057600080fd5b61124782613a37565b80151581146112aa57600080fd5b600080600060608486031215613a8c57600080fd5b613a9584613a37565b92506020840135613aa581613a05565b91506040840135613ab581613a69565b809150509250925092565b634e487b7160e01b600052604160045260246000fd5b604080519081016001600160401b0381118282101715613af857613af8613ac0565b60405290565b60405160a081016001600160401b0381118282101715613af857613af8613ac0565b604051606081016001600160401b0381118282101715613af857613af8613ac0565b604051601f8201601f191681016001600160401b0381118282101715613b6a57613b6a613ac0565b604052919050565b60006001600160401b03821115613b8b57613b8b613ac0565b50601f01601f191660200190565b600082601f830112613baa57600080fd5b8135613bbd613bb882613b72565b613b42565b818152846020838601011115613bd257600080fd5b816020850160208301376000918101602001919091529392505050565b600080600060608486031215613c0457600080fd5b8335925060208401356001600160401b0380821115613c2257600080fd5b613c2e87838801613b99565b93506040860135915080821115613c4457600080fd5b50613c5186828701613b99565b9150509250925092565b600060208284031215613c6d57600080fd5b5035919050565b634e487b7160e01b600052602160045260246000fd5b600481106112aa576112aa613c74565b60208101613ca783613c8a565b91905290565b60008060408385031215613cc057600080fd5b613cc983613a37565b91506020830135613cd981613a05565b809150509250929050565b60008060208385031215613cf757600080fd5b82356001600160401b0380821115613d0e57600080fd5b818501915085601f830112613d2257600080fd5b813581811115613d3157600080fd5b866020828501011115613d4357600080fd5b60209290920196919550909350505050565b6020808252825182820181905260009190848201906040850190845b81811015613d8d57835183529284019291840191600101613d71565b50909695505050505050565b600481106112aa57600080fd5b60008060008060808587031215613dbc57600080fd5b613dc585613a37565b935060208501359250604085013591506060850135613de381613d99565b939692955090935050565b60005b83811015613e09578181015183820152602001613df1565b50506000910152565b60008151808452613e2a816020860160208601613dee565b601f01601f19169290920160200192915050565b821515815260406020820152600061267e6040830184613e12565b60008060408385031215613e6c57600080fd5b50508035926020909101359150565b600060208284031215613e8d57600080fd5b81356001600160401b03811115613ea357600080fd5b820160a0818503121561124757600080fd5b600060208284031215613ec757600080fd5b813560ff8116811461124757600080fd5b6138408101818360005b6096811015613f2357815180516001600160401b03168452602080820151818601526040918201519185019190915260609093019290910190600101613ee2565b50505092915050565b600080600060608486031215613f4157600080fd5b8335613f4c81613a05565b9250602084013591506040840135613ab581613a05565b838152606060208201526000613f7c6060830185613e12565b828103604084015261390c8185613e12565b60028110613f9e57613f9e613c74565b60f81b9052565b606086901b6bffffffffffffffffffffffff1916815260c085901b6001600160c01b0319166014820152613fdc601c820185613f8e565b601d810192909252603d820152605d019392505050565b634e487b7160e01b600052603260045260246000fd5b61401282613c8a565b60f89190911b815260010190565b61402a8183613f8e565b600101919050565b6000602080830181845280855180835260408601915060408160051b870101925083870160005b8281101561408757603f19888603018452614075858351613e12565b94509285019290850190600101614059565b5092979650505050505050565b60208152816020820152818360408301376000818301604090810191909152601f909201601f19160101919050565b600082601f8301126140d457600080fd5b81516140e2613bb882613b72565b8181528460208386010111156140f757600080fd5b61267e826020830160208701613dee565b6000806040838503121561411b57600080fd5b825161412681613a69565b60208401519092506001600160401b0381111561414257600080fd5b61414e858286016140c3565b9150509250929050565b60006001600160401b0382111561417157614171613ac0565b5060051b60200190565b600082601f83011261418c57600080fd5b8135602061419c613bb883614158565b82815260069290921b840181019181810190868411156141bb57600080fd5b8286015b8481101561420357604081890312156141d85760008081fd5b6141e0613ad6565b81356141eb81613a05565b815281850135858201528352918301916040016141bf565b509695505050505050565b600060a0823603121561422057600080fd5b614228613afe565b8235815261423860208401613a37565b602082015260408301356001600160401b038082111561425757600080fd5b61426336838701613b99565b6040840152606085013591508082111561427c57600080fd5b61428836838701613b99565b606084015260808501359150808211156142a157600080fd5b506142ae3682860161417b565b60808301525092915050565b634e487b7160e01b600052601160045260246000fd5b80820281158282048414176109d1576109d16142ba565b818103818111156109d1576109d16142ba565b808201808211156109d1576109d16142ba565b60006020828403121561431f57600080fd5b5051919050565b634e487b7160e01b600052603160045260246000fd5b60006001820161434e5761434e6142ba565b5060010190565b60008261437257634e487b7160e01b600052601260045260246000fd5b500490565b80516020808301519190811015614398576000198160200360031b1b821691505b50919050565b6020815260006112476020830184613e12565b600082516143c3818460208701613dee565b9190910192915050565b602080825282518282018190526000919060409081850190868401855b82811015614418578151805185528601516001600160a01b03168685015292840192908501906001016143ea565b5091979650505050505050565b600060406001600160401b038516835260208181850152845160a08386015261445160e0860182613e12565b905081860151603f198087840301606088015261446e8383613e12565b88860151888203830160808a01528051808352908601945060009350908501905b808410156144c157845180516001600160a01b031683528601518683015293850193600193909301929086019061448f565b5060608901516001600160a01b031660a08901526080890151888203830160c08a015295506144f08187613e12565b9a9950505050505050505050565b60006020828403121561451057600080fd5b815161124781613a69565b60006020828403121561452d57600080fd5b815161124781613a05565b60006020828403121561454a57600080fd5b81516001600160401b038082111561456157600080fd5b908301906040828603121561457557600080fd5b61457d613ad6565b825161458881613d99565b815260208301518281111561459c57600080fd5b6145a8878286016140c3565b60208301525095945050505050565b600060208083850312156145ca57600080fd5b82516001600160401b038111156145e057600080fd5b8301601f810185136145f157600080fd5b80516145ff613bb882614158565b8181526060918202830184019184820191908884111561461e57600080fd5b938501935b838510156146715780858a03121561463b5760008081fd5b614643613b20565b85518152868601518782015260408087015161465e81613a05565b9082015283529384019391850191614623565b50979650505050505050565b602081526000825161468e81613c8a565b80602084015250602083015160408084015261267e6060840182613e12565b60ff82811682821603908111156109d1576109d16142ba565b600060ff821660ff81036146dc576146dc6142ba565b6001019291505056fea2646970667358221220fc5d3f9c8210021d1c9d3912f3105e471f83000a080046b79e01c3d9fa3922c764736f6c63430008140033",
	"linkReferences": {},
	"deployedLinkReferences": {}
}