{
	"abi": [
		{
			"type": "constructor",
			"inputs": [
				{
					"name": "_parentProxy",
					"type": "address",
					"internalType": "address"
				},
				{
					"name": "_link",
					"type": "address",
					"internalType": "address"
				},
				{
					"name": "_donId",
					"type": "bytes32",
					"internalType": "bytes32"
				},
				{
					"name": "_subscriptionId",
					"type": "uint64",
					"internalType": "uint64"
				},
				{
					"name": "_functionsRouter",
					"type": "address",
					"internalType": "address"
				},
				{
					"name": "_ccipRouter",
					"type": "address",
					"internalType": "address"
				},
				{
					"name": "_usdc",
					"type": "address",
					"internalType": "address"
				},
				{
					"name": "_lpToken",
					"type": "address",
					"internalType": "address"
				},
				{
					"name": "_automation",
					"type": "address",
					"internalType": "address"
				},
				{
					"name": "_orchestrator",
					"type": "address",
					"internalType": "address"
				},
				{
					"name": "_owner",
					"type": "address",
					"internalType": "address"
				}
			],
			"stateMutability": "nonpayable"
		},
		{
			"type": "receive",
			"stateMutability": "payable"
		},
		{
			"type": "function",
			"name": "CL_FUNCTIONS_CALLBACK_GAS_LIMIT",
			"inputs": [],
			"outputs": [
				{
					"name": "",
					"type": "uint32",
					"internalType": "uint32"
				}
			],
			"stateMutability": "view"
		},
		{
			"type": "function",
			"name": "CL_FUNCTIONS_GAS_OVERHEAD",
			"inputs": [],
			"outputs": [
				{
					"name": "",
					"type": "uint256",
					"internalType": "uint256"
				}
			],
			"stateMutability": "view"
		},
		{
			"type": "function",
			"name": "ccipReceive",
			"inputs": [
				{
					"name": "message",
					"type": "tuple",
					"internalType": "struct Client.Any2EVMMessage",
					"components": [
						{
							"name": "messageId",
							"type": "bytes32",
							"internalType": "bytes32"
						},
						{
							"name": "sourceChainSelector",
							"type": "uint64",
							"internalType": "uint64"
						},
						{
							"name": "sender",
							"type": "bytes",
							"internalType": "bytes"
						},
						{
							"name": "data",
							"type": "bytes",
							"internalType": "bytes"
						},
						{
							"name": "destTokenAmounts",
							"type": "tuple[]",
							"internalType": "struct Client.EVMTokenAmount[]",
							"components": [
								{
									"name": "token",
									"type": "address",
									"internalType": "address"
								},
								{
									"name": "amount",
									"type": "uint256",
									"internalType": "uint256"
								}
							]
						}
					]
				}
			],
			"outputs": [],
			"stateMutability": "nonpayable"
		},
		{
			"type": "function",
			"name": "completeWithdrawal",
			"inputs": [],
			"outputs": [],
			"stateMutability": "nonpayable"
		},
		{
			"type": "function",
			"name": "depositLiquidity",
			"inputs": [
				{
					"name": "_usdcAmount",
					"type": "uint256",
					"internalType": "uint256"
				}
			],
			"outputs": [],
			"stateMutability": "nonpayable"
		},
		{
			"type": "function",
			"name": "getMaxCap",
			"inputs": [],
			"outputs": [
				{
					"name": "_maxCap",
					"type": "uint256",
					"internalType": "uint256"
				}
			],
			"stateMutability": "view"
		},
		{
			"type": "function",
			"name": "getRouter",
			"inputs": [],
			"outputs": [
				{
					"name": "",
					"type": "address",
					"internalType": "address"
				}
			],
			"stateMutability": "view"
		},
		{
			"type": "function",
			"name": "getUsdcInUse",
			"inputs": [],
			"outputs": [
				{
					"name": "_usdcInUse",
					"type": "uint256",
					"internalType": "uint256"
				}
			],
			"stateMutability": "view"
		},
		{
			"type": "function",
			"name": "handleOracleFulfillment",
			"inputs": [
				{
					"name": "requestId",
					"type": "bytes32",
					"internalType": "bytes32"
				},
				{
					"name": "response",
					"type": "bytes",
					"internalType": "bytes"
				},
				{
					"name": "err",
					"type": "bytes",
					"internalType": "bytes"
				}
			],
			"outputs": [],
			"stateMutability": "nonpayable"
		},
		{
			"type": "function",
			"name": "i_lp",
			"inputs": [],
			"outputs": [
				{
					"name": "",
					"type": "address",
					"internalType": "contract LPToken"
				}
			],
			"stateMutability": "view"
		},
		{
			"type": "function",
			"name": "orchestratorLoan",
			"inputs": [
				{
					"name": "_token",
					"type": "address",
					"internalType": "address"
				},
				{
					"name": "_amount",
					"type": "uint256",
					"internalType": "uint256"
				},
				{
					"name": "_receiver",
					"type": "address",
					"internalType": "address"
				}
			],
			"outputs": [],
			"stateMutability": "payable"
		},
		{
			"type": "function",
			"name": "removePoolsFromListOfSenders",
			"inputs": [
				{
					"name": "_chainSelector",
					"type": "uint64",
					"internalType": "uint64"
				}
			],
			"outputs": [],
			"stateMutability": "payable"
		},
		{
			"type": "function",
			"name": "s_contractsToReceiveFrom",
			"inputs": [
				{
					"name": "chainSelector",
					"type": "uint64",
					"internalType": "uint64"
				},
				{
					"name": "poolAddress",
					"type": "address",
					"internalType": "address"
				}
			],
			"outputs": [
				{
					"name": "",
					"type": "uint256",
					"internalType": "uint256"
				}
			],
			"stateMutability": "view"
		},
		{
			"type": "function",
			"name": "s_loansInUse",
			"inputs": [],
			"outputs": [
				{
					"name": "",
					"type": "uint256",
					"internalType": "uint256"
				}
			],
			"stateMutability": "view"
		},
		{
			"type": "function",
			"name": "s_maxDeposit",
			"inputs": [],
			"outputs": [
				{
					"name": "",
					"type": "uint256",
					"internalType": "uint256"
				}
			],
			"stateMutability": "view"
		},
		{
			"type": "function",
			"name": "s_pendingWithdrawRequests",
			"inputs": [
				{
					"name": "_liquidityProvider",
					"type": "address",
					"internalType": "address"
				}
			],
			"outputs": [
				{
					"name": "amountEarned",
					"type": "uint256",
					"internalType": "uint256"
				},
				{
					"name": "amountToBurn",
					"type": "uint256",
					"internalType": "uint256"
				},
				{
					"name": "amountToRequest",
					"type": "uint256",
					"internalType": "uint256"
				},
				{
					"name": "amountToReceive",
					"type": "uint256",
					"internalType": "uint256"
				},
				{
					"name": "token",
					"type": "address",
					"internalType": "address"
				},
				{
					"name": "liquidityProvider",
					"type": "address",
					"internalType": "address"
				},
				{
					"name": "deadline",
					"type": "uint256",
					"internalType": "uint256"
				}
			],
			"stateMutability": "view"
		},
		{
			"type": "function",
			"name": "s_poolToSendTo",
			"inputs": [
				{
					"name": "chainSelector",
					"type": "uint64",
					"internalType": "uint64"
				}
			],
			"outputs": [
				{
					"name": "pool",
					"type": "address",
					"internalType": "address"
				}
			],
			"stateMutability": "view"
		},
		{
			"type": "function",
			"name": "s_requests",
			"inputs": [
				{
					"name": "requestId",
					"type": "bytes32",
					"internalType": "bytes32"
				}
			],
			"outputs": [
				{
					"name": "requestType",
					"type": "uint8",
					"internalType": "enum IParentPool.RequestType"
				},
				{
					"name": "liquidityProvider",
					"type": "address",
					"internalType": "address"
				},
				{
					"name": "usdcBeforeRequest",
					"type": "uint256",
					"internalType": "uint256"
				},
				{
					"name": "lpSupplyBeforeRequest",
					"type": "uint256",
					"internalType": "uint256"
				},
				{
					"name": "amount",
					"type": "uint256",
					"internalType": "uint256"
				}
			],
			"stateMutability": "view"
		},
		{
			"type": "function",
			"name": "s_withdrawRequests",
			"inputs": [],
			"outputs": [
				{
					"name": "",
					"type": "uint256",
					"internalType": "uint256"
				}
			],
			"stateMutability": "view"
		},
		{
			"type": "function",
			"name": "setConceroContractSender",
			"inputs": [
				{
					"name": "_chainSelector",
					"type": "uint64",
					"internalType": "uint64"
				},
				{
					"name": "_contractAddress",
					"type": "address",
					"internalType": "address"
				},
				{
					"name": "_isAllowed",
					"type": "uint256",
					"internalType": "uint256"
				}
			],
			"outputs": [],
			"stateMutability": "payable"
		},
		{
			"type": "function",
			"name": "setPoolCap",
			"inputs": [
				{
					"name": "_newCap",
					"type": "uint256",
					"internalType": "uint256"
				}
			],
			"outputs": [],
			"stateMutability": "payable"
		},
		{
			"type": "function",
			"name": "setPoolsToSend",
			"inputs": [
				{
					"name": "_chainSelector",
					"type": "uint64",
					"internalType": "uint64"
				},
				{
					"name": "_pool",
					"type": "address",
					"internalType": "address"
				}
			],
			"outputs": [],
			"stateMutability": "payable"
		},
		{
			"type": "function",
			"name": "startWithdrawal",
			"inputs": [
				{
					"name": "_lpAmount",
					"type": "uint256",
					"internalType": "uint256"
				}
			],
			"outputs": [],
			"stateMutability": "nonpayable"
		},
		{
			"type": "function",
			"name": "supportsInterface",
			"inputs": [
				{
					"name": "interfaceId",
					"type": "bytes4",
					"internalType": "bytes4"
				}
			],
			"outputs": [
				{
					"name": "",
					"type": "bool",
					"internalType": "bool"
				}
			],
			"stateMutability": "pure"
		},
		{
			"type": "function",
			"name": "updateUSDCAmountEarned",
			"inputs": [
				{
					"name": "_liquidityProvider",
					"type": "address",
					"internalType": "address"
				},
				{
					"name": "_lpSupplyBeforeRequest",
					"type": "uint256",
					"internalType": "uint256"
				},
				{
					"name": "_lpToBurn",
					"type": "uint256",
					"internalType": "uint256"
				},
				{
					"name": "_totalUSDC",
					"type": "uint256",
					"internalType": "uint256"
				}
			],
			"outputs": [],
			"stateMutability": "nonpayable"
		},
		{
			"type": "function",
			"name": "updateUSDCAmountManually",
			"inputs": [
				{
					"name": "_liquidityProvider",
					"type": "address",
					"internalType": "address"
				},
				{
					"name": "_lpSupplyBeforeRequest",
					"type": "uint256",
					"internalType": "uint256"
				},
				{
					"name": "_depositedAmount",
					"type": "uint256",
					"internalType": "uint256"
				},
				{
					"name": "_crossChainBalance",
					"type": "uint256",
					"internalType": "uint256"
				}
			],
			"outputs": [],
			"stateMutability": "nonpayable"
		},
		{
			"type": "event",
			"name": "FunctionsRequestError",
			"inputs": [
				{
					"name": "requestId",
					"type": "bytes32",
					"indexed": false,
					"internalType": "bytes32"
				},
				{
					"name": "requestType",
					"type": "uint8",
					"indexed": false,
					"internalType": "enum IParentPool.RequestType"
				}
			],
			"anonymous": false
		},
		{
			"type": "event",
			"name": "ParentPool_CCIPReceived",
			"inputs": [
				{
					"name": "ccipMessageId",
					"type": "bytes32",
					"indexed": true,
					"internalType": "bytes32"
				},
				{
					"name": "srcChainSelector",
					"type": "uint64",
					"indexed": false,
					"internalType": "uint64"
				},
				{
					"name": "sender",
					"type": "address",
					"indexed": false,
					"internalType": "address"
				},
				{
					"name": "token",
					"type": "address",
					"indexed": false,
					"internalType": "address"
				},
				{
					"name": "amount",
					"type": "uint256",
					"indexed": false,
					"internalType": "uint256"
				}
			],
			"anonymous": false
		},
		{
			"type": "event",
			"name": "ParentPool_MessageSent",
			"inputs": [
				{
					"name": "messageId",
					"type": "bytes32",
					"indexed": false,
					"internalType": "bytes32"
				},
				{
					"name": "destinationChainSelector",
					"type": "uint64",
					"indexed": false,
					"internalType": "uint64"
				},
				{
					"name": "receiver",
					"type": "address",
					"indexed": false,
					"internalType": "address"
				},
				{
					"name": "linkToken",
					"type": "address",
					"indexed": false,
					"internalType": "address"
				},
				{
					"name": "fees",
					"type": "uint256",
					"indexed": false,
					"internalType": "uint256"
				}
			],
			"anonymous": false
		},
		{
			"type": "event",
			"name": "ParentPool_RequestUpdated",
			"inputs": [
				{
					"name": "liquidityProvider",
					"type": "address",
					"indexed": false,
					"internalType": "address"
				}
			],
			"anonymous": false
		},
		{
			"type": "event",
			"name": "ParentPool_SuccessfulDeposited",
			"inputs": [
				{
					"name": "liquidityProvider",
					"type": "address",
					"indexed": true,
					"internalType": "address"
				},
				{
					"name": "_amount",
					"type": "uint256",
					"indexed": false,
					"internalType": "uint256"
				},
				{
					"name": "_token",
					"type": "address",
					"indexed": false,
					"internalType": "contract IERC20"
				}
			],
			"anonymous": false
		},
		{
			"type": "event",
			"name": "ParentPool_WithdrawRequest",
			"inputs": [
				{
					"name": "caller",
					"type": "address",
					"indexed": false,
					"internalType": "address"
				},
				{
					"name": "token",
					"type": "address",
					"indexed": false,
					"internalType": "contract IERC20"
				},
				{
					"name": "deadline",
					"type": "uint256",
					"indexed": false,
					"internalType": "uint256"
				}
			],
			"anonymous": false
		},
		{
			"type": "event",
			"name": "ParentPool_Withdrawn",
			"inputs": [
				{
					"name": "to",
					"type": "address",
					"indexed": true,
					"internalType": "address"
				},
				{
					"name": "token",
					"type": "address",
					"indexed": false,
					"internalType": "address"
				},
				{
					"name": "amount",
					"type": "uint256",
					"indexed": false,
					"internalType": "uint256"
				}
			],
			"anonymous": false
		},
		{
			"type": "event",
			"name": "ParentStorage_ChainAndAddressRemoved",
			"inputs": [
				{
					"name": "_chainSelector",
					"type": "uint64",
					"indexed": false,
					"internalType": "uint64"
				}
			],
			"anonymous": false
		},
		{
			"type": "event",
			"name": "ParentStorage_ConceroContractUpdated",
			"inputs": [
				{
					"name": "concero",
					"type": "address",
					"indexed": false,
					"internalType": "address"
				}
			],
			"anonymous": false
		},
		{
			"type": "event",
			"name": "ParentStorage_ConceroSendersUpdated",
			"inputs": [
				{
					"name": "chainSelector",
					"type": "uint64",
					"indexed": false,
					"internalType": "uint64"
				},
				{
					"name": "conceroContract",
					"type": "address",
					"indexed": false,
					"internalType": "address"
				},
				{
					"name": "isAllowed",
					"type": "uint256",
					"indexed": false,
					"internalType": "uint256"
				}
			],
			"anonymous": false
		},
		{
			"type": "event",
			"name": "ParentStorage_MasterPoolCapUpdated",
			"inputs": [
				{
					"name": "_newCap",
					"type": "uint256",
					"indexed": false,
					"internalType": "uint256"
				}
			],
			"anonymous": false
		},
		{
			"type": "event",
			"name": "ParentStorage_PoolReceiverUpdated",
			"inputs": [
				{
					"name": "chainSelector",
					"type": "uint64",
					"indexed": false,
					"internalType": "uint64"
				},
				{
					"name": "pool",
					"type": "address",
					"indexed": false,
					"internalType": "address"
				}
			],
			"anonymous": false
		},
		{
			"type": "event",
			"name": "RequestFulfilled",
			"inputs": [
				{
					"name": "id",
					"type": "bytes32",
					"indexed": true,
					"internalType": "bytes32"
				}
			],
			"anonymous": false
		},
		{
			"type": "event",
			"name": "RequestSent",
			"inputs": [
				{
					"name": "id",
					"type": "bytes32",
					"indexed": true,
					"internalType": "bytes32"
				}
			],
			"anonymous": false
		},
		{
			"type": "error",
			"name": "AddressEmptyCode",
			"inputs": [
				{
					"name": "target",
					"type": "address",
					"internalType": "address"
				}
			]
		},
		{
			"type": "error",
			"name": "AddressInsufficientBalance",
			"inputs": [
				{
					"name": "account",
					"type": "address",
					"internalType": "address"
				}
			]
		},
		{
			"type": "error",
			"name": "FailedInnerCall",
			"inputs": []
		},
		{
			"type": "error",
			"name": "InvalidRouter",
			"inputs": [
				{
					"name": "router",
					"type": "address",
					"internalType": "address"
				}
			]
		},
		{
			"type": "error",
			"name": "OnlyRouterCanFulfill",
			"inputs": []
		},
		{
			"type": "error",
			"name": "ParentPool_ActiveRequestNotFulfilledYet",
			"inputs": []
		},
		{
			"type": "error",
			"name": "ParentPool_AmountBelowMinimum",
			"inputs": [
				{
					"name": "minAmount",
					"type": "uint256",
					"internalType": "uint256"
				}
			]
		},
		{
			"type": "error",
			"name": "ParentPool_AmountNotAvailableYet",
			"inputs": [
				{
					"name": "received",
					"type": "uint256",
					"internalType": "uint256"
				}
			]
		},
		{
			"type": "error",
			"name": "ParentPool_CallerIsNotTheProxy",
			"inputs": [
				{
					"name": "caller",
					"type": "address",
					"internalType": "address"
				}
			]
		},
		{
			"type": "error",
			"name": "ParentPool_InsufficientBalance",
			"inputs": []
		},
		{
			"type": "error",
			"name": "ParentPool_InvalidAddress",
			"inputs": []
		},
		{
			"type": "error",
			"name": "ParentPool_ItsNotOrchestrator",
			"inputs": [
				{
					"name": "caller",
					"type": "address",
					"internalType": "address"
				}
			]
		},
		{
			"type": "error",
			"name": "ParentPool_MaxCapReached",
			"inputs": [
				{
					"name": "maxCap",
					"type": "uint256",
					"internalType": "uint256"
				}
			]
		},
		{
			"type": "error",
			"name": "ParentPool_NotEnoughLinkBalance",
			"inputs": [
				{
					"name": "linkBalance",
					"type": "uint256",
					"internalType": "uint256"
				},
				{
					"name": "fees",
					"type": "uint256",
					"internalType": "uint256"
				}
			]
		},
		{
			"type": "error",
			"name": "ParentPool_SenderNotAllowed",
			"inputs": [
				{
					"name": "_sender",
					"type": "address",
					"internalType": "address"
				}
			]
		},
		{
			"type": "error",
			"name": "ParentPool_ThereIsNoPoolToDistribute",
			"inputs": []
		},
		{
			"type": "error",
			"name": "ParentStorage_InvalidAddress",
			"inputs": []
		},
		{
			"type": "error",
			"name": "ParentStorage_NotContractOwner",
			"inputs": []
		},
		{
			"type": "error",
			"name": "SafeERC20FailedOperation",
			"inputs": [
				{
					"name": "token",
					"type": "address",
					"internalType": "address"
				}
			]
		}
	],
	"bytecode": {
		"object": "0x6101e06040523480156200001257600080fd5b50604051620036f7380380620036f78339810160408190526200003591620000e3565b8681876001600160a01b03811662000067576040516335fdcccd60e21b81526000600482015260240160405180910390fd5b6001600160a01b0390811660805290811660a05290811660c0526101a099909952506001600160401b039096166101c05297861660e05295851661012052841661014052505091811661016052918216610180521661010052620001cb565b80516001600160a01b0381168114620000de57600080fd5b919050565b60008060008060008060008060008060006101608c8e0312156200010657600080fd5b620001118c620000c6565b9a506200012160208d01620000c6565b60408d015160608e0151919b5099506001600160401b03811681146200014657600080fd5b97506200015660808d01620000c6565b96506200016660a08d01620000c6565b95506200017660c08d01620000c6565b94506200018660e08d01620000c6565b9350620001976101008d01620000c6565b9250620001a86101208d01620000c6565b9150620001b96101408d01620000c6565b90509295989b509295989b9093969950565b60805160a05160c05160e05161010051610120516101405161016051610180516101a0516101c0516133bd6200033a60003960005050600050506000611daa01526000818161023101528181610dd6015281816114440152818161148a01528181611588015281816117430152611aa2015260008181610b4d01528181610d5a01528181610ee001528181610f40015281816112c5015281816113de015281816114fd0152818161186701528181611b2801528181611c6e01528181611ed8015281816122880152612686015260008181611fed0152818161211c015281816121ab0152818161233c015261246c01526000818161088a01526125d801526000818161083a01528181610abe015281816111db0152611531015260006105f3015260008181610677015281816109bb01528181610fe401526111570152600081816104bb01528181610f850152818161208d015281816122590152818161230d01526123c301526133bd6000f3fe6080604052600436106101855760003560e01c80637304b4da116100d1578063befd072c1161008a578063d835f53511610064578063d835f5351461053d578063df7b374414610550578063e03ff7cb1461057c578063e69bb20d1461059157600080fd5b8063befd072c146104df578063c7352ede146104f2578063cdb813061461050757600080fd5b80637304b4da1461037857806376d58e1a1461038e57806378c66596146103ae57806385572ffb146103e65780639cf1eeb814610406578063b0f479a1146104ac57600080fd5b8063306e69341161013e57806340da2da01161011857806340da2da0146102bc57806343552f19146102dc578063529c614c146102f357806371be83241461031357600080fd5b8063306e69341461027e578063322127761461029157806337ae5b56146102a657600080fd5b806301ffc9a714610191578063036115e4146101c65780630ca76175146101ea5780632124c13f1461020c57806321f343d81461021f57806329e192231461026b57600080fd5b3661018c57005b600080fd5b34801561019d57600080fd5b506101b16101ac366004612a3a565b6105b1565b60405190151581526020015b60405180910390f35b3480156101d257600080fd5b506101dc60025481565b6040519081526020016101bd565b3480156101f657600080fd5b5061020a610205366004612b94565b6105e8565b005b61020a61021a366004612c25565b61066c565b34801561022b57600080fd5b506102537f000000000000000000000000000000000000000000000000000000000000000081565b6040516001600160a01b0390911681526020016101bd565b61020a610279366004612c57565b61082f565b61020a61028c366004612c99565b6109b0565b34801561029d57600080fd5b506001546101dc565b3480156102b257600080fd5b506101dc60015481565b3480156102c857600080fd5b5061020a6102d7366004612cda565b610a95565b3480156102e857600080fd5b506101dc6202d2a881565b3480156102ff57600080fd5b5061020a61030e366004612cda565b610aa7565b34801561031f57600080fd5b5061036761032e366004612d15565b603c60205260009081526040902080546001820154600283015460039093015460ff8316936101009093046001600160a01b0316929085565b6040516101bd959493929190612d66565b34801561038457600080fd5b506101dc60005481565b34801561039a57600080fd5b5061020a6103a9366004612d15565b610ab3565b3480156103ba57600080fd5b506101dc6103c9366004612da0565b603a60209081526000928352604080842090915290825290205481565b3480156103f257600080fd5b5061020a610401366004612dd9565b610f7a565b34801561041257600080fd5b5061046b610421366004612e13565b603b60205260009081526040902080546001820154600283015460038401546004850154600586015460069096015494959394929391926001600160a01b03918216929091169087565b6040805197885260208801969096529486019390935260608501919091526001600160a01b0390811660808501521660a083015260c082015260e0016101bd565b3480156104b857600080fd5b507f0000000000000000000000000000000000000000000000000000000000000000610253565b61020a6104ed366004612da0565b610fd9565b3480156104fe57600080fd5b506000546101dc565b34801561051357600080fd5b50610253610522366004612c25565b6039602052600090815260409020546001600160a01b031681565b61020a61054b366004612d15565b61114c565b34801561055c57600080fd5b50610567620493e081565b60405163ffffffff90911681526020016101bd565b34801561058857600080fd5b5061020a6111d0565b34801561059d57600080fd5b5061020a6105ac366004612d15565b611526565b60006001600160e01b031982166385572ffb60e01b14806105e257506001600160e01b031982166301ffc9a760e01b145b92915050565b336001600160a01b037f000000000000000000000000000000000000000000000000000000000000000016146106315760405163c6829f8360e01b815260040160405180910390fd5b61063c8383836118c3565b60405183907f85e1543bf2f84fe80c6badbce3648c8539ad1df4d2b3d822938ca0538be727e690600090a2505050565b336001600160a01b037f000000000000000000000000000000000000000000000000000000000000000016146106b55760405163dbce02cb60e01b815260040160405180910390fd5b60385460005b818110156107ed57826001600160401b0316603882815481106106e0576106e0612e30565b6000918252602090912001546001600160401b0316036107e5576038805461070a90600190612e5c565b8154811061071a5761071a612e30565b906000526020600020016038828154811061073757610737612e30565b600091825260209091208254910180546001600160401b0390921667ffffffffffffffff1983168117825592546001600160e01b0319909216909217600160401b918290046001600160a01b0316909102179055603880548061079c5761079c612e6f565b60008281526020808220830160001990810180546001600160e01b03191690559092019092556001600160401b0385168252603990526040902080546001600160a01b03191690555b6001016106bb565b506040516001600160401b03831681527f1d1751498148c8993d59d4546fb8bf61eccc13ae1bb3155425cb64f59b2b38c6906020015b60405180910390a15050565b306001600160a01b037f0000000000000000000000000000000000000000000000000000000000000000161461087f57604051639760320560e01b81523060048201526024015b60405180910390fd5b336001600160a01b037f000000000000000000000000000000000000000000000000000000000000000016146108ca576040516309a99f2360e31b8152336004820152602401610876565b6001600160a01b0381166108f15760405163f83419f760e01b815260040160405180910390fd5b6002546040516370a0823160e01b81523060048201526001600160a01b038516906370a0823190602401602060405180830381865afa158015610938573d6000803e3d6000fd5b505050506040513d601f19601f8201168201806040525081019061095c9190612e85565b6109669190612e5c565b821115610986576040516343e6d3b160e01b815260040160405180910390fd5b816001546109949190612e9e565b6001556109ab6001600160a01b03841682846119c5565b505050565b336001600160a01b037f000000000000000000000000000000000000000000000000000000000000000016146109f95760405163dbce02cb60e01b815260040160405180910390fd5b6001600160a01b038216610a2057604051634dddaca960e11b815260040160405180910390fd5b6001600160401b0383166000818152603a602090815260408083206001600160a01b0387168085529083529281902085905580519384529083019190915281018290527fdd99667d4138b5918590f2a9caf43773679d46364d7d4bf0d5184dd5f85e7e899060600160405180910390a1505050565b610aa184848484611a24565b50505050565b610aa184848484611b09565b306001600160a01b037f00000000000000000000000000000000000000000000000000000000000000001614610afe57604051639760320560e01b8152306004820152602401610876565b6305f5e100811015610b295760405163088436e560e21b81526305f5e1006004820152602401610876565b60005415801590610bd957506001546040516370a0823160e01b81523060048201527f00000000000000000000000000000000000000000000000000000000000000006001600160a01b0316906370a0823190602401602060405180830381865afa158015610b9c573d6000803e3d6000fd5b505050506040513d601f19601f82011682018060405250810190610bc09190612e85565b610bca9083612e9e565b610bd49190612e9e565b600054105b15610bfc5760005460405162a6c75960e81b815260040161087691815260200190565b6038546001811015610c2157604051632eb132a960e21b815260040160405180910390fd5b60006402540be400610c34836001612e9e565b610c436402540be40086612eb1565b610c4d9190612ec8565b610c579190612ec8565b6040805160028082526060820190925291925060009190816020015b6060815260200190600190039081610c73579050509050600454604051602001610c9f91815260200190565b60405160208183030381529060405281600081518110610cc157610cc1612e30565b6020026020010181905250600554604051602001610ce191815260200190565b60405160208183030381529060405281600181518110610d0357610d03612e30565b602002602001018190525060006040518060a0016040528060006001811115610d2e57610d2e612d2e565b8152336020820152600154604080516370a0823160e01b81523060048201529201916001600160a01b037f000000000000000000000000000000000000000000000000000000000000000016906370a0823190602401602060405180830381865afa158015610da1573d6000803e3d6000fd5b505050506040513d601f19601f82011682018060405250810190610dc59190612e85565b610dcf9190612e9e565b81526020017f00000000000000000000000000000000000000000000000000000000000000006001600160a01b03166318160ddd6040518163ffffffff1660e01b8152600401602060405180830381865afa158015610e32573d6000803e3d6000fd5b505050506040513d601f19601f82011682018060405250810190610e569190612e85565b815260209081018790526000838152603c9091526040902081518154829060ff191660018381811115610e8b57610e8b612d2e565b02179055506020828101518254610100600160a81b0319166101006001600160a01b039283160217835560408085015160018501556060850151600285015560809094015160039093019290925582518881527f00000000000000000000000000000000000000000000000000000000000000009092169082015233917f6032f40b0bba291f6f676a4dd2c5ccff49667bc9810c76d9d5252ef2f3665143910160405180910390a2610f686001600160a01b037f000000000000000000000000000000000000000000000000000000000000000016333088611e4d565b610f728484611e86565b505050505050565b336001600160a01b037f00000000000000000000000000000000000000000000000000000000000000001614610fc5576040516335fdcccd60e21b8152336004820152602401610876565b610fd6610fd182612f96565b6124ec565b50565b336001600160a01b037f000000000000000000000000000000000000000000000000000000000000000016146110225760405163dbce02cb60e01b815260040160405180910390fd5b6001600160401b0382166000908152603960205260409020546001600160a01b038281169116148061105b57506001600160a01b038116155b1561107957604051634dddaca960e11b815260040160405180910390fd5b6040805180820182526001600160401b038481168083526001600160a01b03858116602080860182815260388054600181018255600091825297517f38395c5dceade9603479b177b68959049485df8aa97b39f3533039af5f45619990980180549251909516600160401b026001600160e01b0319909216979096169690961795909517909155818352603984529184902080546001600160a01b031916831790558351908152918201527fc610a78f9965e217ba78406a3a7a72bb09b3d5636ae4d23971cd517ba8d613349101610823565b336001600160a01b037f000000000000000000000000000000000000000000000000000000000000000016146111955760405163dbce02cb60e01b815260040160405180910390fd5b60008190556040518181527f652c0570d12faa6b3bfd6b0f9f4f2d15a4cd1e73eca659cfbb339c513e319a729060200160405180910390a150565b306001600160a01b037f0000000000000000000000000000000000000000000000000000000000000000161461121b57604051639760320560e01b8152306004820152602401610876565b336000908152603b6020908152604091829020825160e0810184528154815260018201549281019290925260028101549282019290925260038201546060820181905260048301546001600160a01b03908116608084015260058401541660a083015260069092015460c082015290156112b0578060600151604051636c56a63760e11b815260040161087691815260200190565b6040516370a0823160e01b81523060048201527f00000000000000000000000000000000000000000000000000000000000000006001600160a01b0316906370a0823190602401602060405180830381865afa158015611314573d6000803e3d6000fd5b505050506040513d601f19601f820116820180604052508101906113389190612e85565b81511115611359576040516343e6d3b160e01b815260040160405180910390fd5b80516002541161136a576000611379565b80516002546113799190612e5c565b6002908155336000818152603b6020908152604080832083815560018101849055948501839055600385018390556004850180546001600160a01b03199081169091556005860180549091169055600690940191909155835183516001600160a01b037f00000000000000000000000000000000000000000000000000000000000000001681529182015290917f85ce281ef2933060acd82064e425b876b6a4b5c45e0fab99bb56077c8ad9d429910160405180910390a2602081015161146e906001600160a01b037f0000000000000000000000000000000000000000000000000000000000000000169033903090611e4d565b6020810151604051630852cd8d60e31b815260048101919091527f00000000000000000000000000000000000000000000000000000000000000006001600160a01b0316906342966c6890602401600060405180830381600087803b1580156114d657600080fd5b505af11580156114ea573d6000803e3d6000fd5b50508251610fd692506001600160a01b037f000000000000000000000000000000000000000000000000000000000000000016915033906119c5565b306001600160a01b037f0000000000000000000000000000000000000000000000000000000000000000161461157157604051639760320560e01b8152306004820152602401610876565b6040516370a0823160e01b815233600482015281907f00000000000000000000000000000000000000000000000000000000000000006001600160a01b0316906370a0823190602401602060405180830381865afa1580156115d7573d6000803e3d6000fd5b505050506040513d601f19601f820116820180604052508101906115fb9190612e85565b101561161a576040516343e6d3b160e01b815260040160405180910390fd5b336000908152603b60205260409020600101541561164b5760405163071b386160e01b815260040160405180910390fd5b60385460408051600f8082526102008201909252600091816020015b606081526020019060019003908161166757905050905060005b82811015611714576038818154811061169c5761169c612e30565b600091825260209182902001546040516116d5926001600160401b03909216910160c09190911b6001600160c01b031916815260080190565b6040516020818303038152906040528282815181106116f6576116f6612e30565b6020026020010181905250808061170c90613042565b915050611681565b506040805160a081019091526000908060018152602001336001600160a01b03168152602001600081526020017f00000000000000000000000000000000000000000000000000000000000000006001600160a01b03166318160ddd6040518163ffffffff1660e01b8152600401602060405180830381865afa15801561179f573d6000803e3d6000fd5b505050506040513d601f19601f820116820180604052508101906117c39190612e85565b815260209081018690526000838152603c9091526040902081518154829060ff1916600183818111156117f8576117f8612d2e565b0217905550602082015181546001600160a01b0390911661010002610100600160a81b031990911617815560408201516001820155606082015160028201556080909101516003909101557f84492029885a3fa0f515fa1930bfde5278e0606a2db64a20aa795bda472faa42337f00000000000000000000000000000000000000000000000000000000000000006118934262091e60612e9e565b604080516001600160a01b039485168152939092166020840152908201526060015b60405180910390a150505050565b6000838152603c6020526040902081511561190e5780546040517fa280ff8e4c3f444b66553f8c5052ddea2ae0331470d22757e306078d3bbc9b0d916118b591879160ff169061305b565b6000838060200190518101906119249190612e85565b905060008183600101546119389190612e9e565b90506000835460ff16600181111561195257611952612d2e565b036119825782546002840154600385015461197d9261010090046001600160a01b0316919084611a24565b610f72565b6001835460ff16600181111561199a5761199a612d2e565b03610f7257825460028401546003850154610f729261010090046001600160a01b0316919084611b09565b6040516001600160a01b038381166024830152604482018390526109ab91859182169063a9059cbb906064015b604051602081830303815290604052915060e01b6020820180516001600160e01b038381831617835250505050612866565b6000611a2f826128c9565b90506000611a3c846128c9565b9050600060018611611a4e5781611a79565b858381611a5b8583612e9e565b611a659190612eb1565b611a6f9190612ec8565b611a799190612e5c565b6040516340c10f1960e01b81526001600160a01b038981166004830152602482018390529192507f0000000000000000000000000000000000000000000000000000000000000000909116906340c10f1990604401600060405180830381600087803b158015611ae857600080fd5b505af1158015611afc573d6000803e3d6000fd5b5050505050505050505050565b6038546001546040516370a0823160e01b8152306004820152600091907f00000000000000000000000000000000000000000000000000000000000000006001600160a01b0316906370a0823190602401602060405180830381865afa158015611b77573d6000803e3d6000fd5b505050506040513d601f19601f82011682018060405250810190611b9b9190612e85565b611ba59085612e9e565b611baf9190612e9e565b905060006402540be400866402540be40087611bca866128c9565b611bd49190612eb1565b611bde9190612eb1565b611be89190612ec8565b611bf29190612ec8565b905060006040518060e00160405280611c0a846128eb565b815260208101889052604001611c21866001612e9e565b611c2a856128eb565b611c349190612ec8565b8152602001611c44866001612e9e565b86611c4e866128eb565b611c589190612eb1565b611c629190612ec8565b81526001600160a01b037f0000000000000000000000000000000000000000000000000000000000000000811660208301528a166040820152606001611cab4262091e60612e9e565b90529050611cba846001612e9e565b611cc3836128eb565b611ccd9190612ec8565b600254611cda9190612e9e565b60029081556001600160a01b038981166000908152603b602090815260409182902085518155908501805160018301558583018051958301959095556060860180516003840155608087018051600480860180549289166001600160a01b031993841617905560a08a018051600588018054918b16919094161790925560c08a01805160069097019690965595516322c3f85160e01b815289519681019690965292516024860152955160448501525160648401529351831660848301529251821660a4820152915160c48301527f000000000000000000000000000000000000000000000000000000000000000016906322c3f8519060e401600060405180830381600087803b158015611dee57600080fd5b505af1158015611e02573d6000803e3d6000fd5b50506040516001600160a01b038b1681527fa688d1192e80d32160af534c2ff92b73fc5f6c2ed854824f2977491ac19016369250602001905060405180910390a15050505050505050565b6040516001600160a01b038481166024830152838116604483015260648201839052610aa19186918216906323b872dd906084016119f2565b604080516001808252818301909252600091829190816020015b6040805180820190915260008082526020820152815260200190600190039081611ea0579050509050600060405180604001604052807f00000000000000000000000000000000000000000000000000000000000000006001600160a01b031681526020018581525090508082600081518110611f1f57611f1f612e30565b602002602001018190525060005b858110156124e357600060388281548110611f4a57611f4a612e30565b6000918252602080832060408051808201825293909101546001600160401b0381168452600160401b90046001600160a01b03908116928401928352815160a08101909252915190911660c08201529092508060e0810160408051601f19818403018152918152908252805160006020828101829052928201819052606082015291019060800160405160208183030381529060405281526020018681526020017f00000000000000000000000000000000000000000000000000000000000000006001600160a01b0316815260200161206c60405180602001604052806205573081525060408051915160248084019190915281518084039091018152604490920190526020810180516001600160e01b03166397a657c960e01b17905290565b905282516040516320487ded60e01b81529192506000916001600160a01b037f000000000000000000000000000000000000000000000000000000000000000016916320487ded916120c3919086906004016130bf565b602060405180830381865afa1580156120e0573d6000803e3d6000fd5b505050506040513d601f19601f820116820180604052508101906121049190612e85565b6040516370a0823160e01b81523060048201529091507f00000000000000000000000000000000000000000000000000000000000000006001600160a01b0316906370a0823190602401602060405180830381865afa15801561216b573d6000803e3d6000fd5b505050506040513d601f19601f8201168201806040525081019061218f9190612e85565b811115612242576040516370a0823160e01b81523060048201527f00000000000000000000000000000000000000000000000000000000000000006001600160a01b0316906370a0823190602401602060405180830381865afa1580156121fa573d6000803e3d6000fd5b505050506040513d601f19601f8201168201806040525081019061221e9190612e85565b60405163b9dafa6360e01b8152600481019190915260248101829052604401610876565b60405163095ea7b360e01b81526001600160a01b037f000000000000000000000000000000000000000000000000000000000000000081166004830152602482018a90527f0000000000000000000000000000000000000000000000000000000000000000169063095ea7b3906044016020604051808303816000875af11580156122d1573d6000803e3d6000fd5b505050506040513d601f19601f820116820180604052508101906122f591906131a8565b5060405163095ea7b360e01b81526001600160a01b037f000000000000000000000000000000000000000000000000000000000000000081166004830152602482018390527f0000000000000000000000000000000000000000000000000000000000000000169063095ea7b3906044016020604051808303816000875af1158015612385573d6000803e3d6000fd5b505050506040513d601f19601f820116820180604052508101906123a991906131a8565b5082516040516396f4e9f960e01b81526001600160a01b037f000000000000000000000000000000000000000000000000000000000000000016916396f4e9f9916123f9919086906004016130bf565b6020604051808303816000875af1158015612418573d6000803e3d6000fd5b505050506040513d601f19601f8201168201806040525081019061243c9190612e85565b96507f22294ec229f0106c975aed3ae15993fc0912d14d410699b97c8f078efaef473787846000015185602001517f0000000000000000000000000000000000000000000000000000000000000000856040516124cd9594939291909485526001600160401b039390931660208501526001600160a01b039182166040850152166060830152608082015260a00190565b60405180910390a1836001019350505050611f2d565b50505092915050565b8060200151816040015180602001905181019061250991906131c3565b6001600160401b0382166000908152603a602090815260408083206001600160a01b0385168452909152902054600114612561576040516361ee185160e01b81526001600160a01b0382166004820152602401610876565b6000806000856060015180602001905181019061257e91906131e0565b925092509250600081876080015160008151811061259e5761259e612e30565b6020026020010151602001516125b49190612e5c565b905081156126ca578651604051632251c4ed60e11b81526000916001600160a01b037f000000000000000000000000000000000000000000000000000000000000000016916344a389da9161260f9160040190815260200190565b600060405180830381865afa15801561262c573d6000803e3d6000fd5b505050506040513d6000823e601f3d908101601f191682016040526126549190810190613295565b8851815191925014801561266a575060c0810151155b8061267457508051155b156126b2576126ad6001600160a01b037f00000000000000000000000000000000000000000000000000000000000000001685846119c5565b6126c4565b816001546126c09190612e5c565b6001555b50612791565b6001600160a01b03841615612791576001600160a01b0384166000908152603b60205260408120608089015180519192909161270857612708612e30565b60200260200101516020015181600301541015612726576000612758565b876080015160008151811061273d5761273d612e30565b60200260200101516020015181600301546127589190612e5c565b60038201556080880151805160009061277357612773612e30565b60200260200101516020015160025461278c9190612e9e565b600255505b86600001517f3adec9326f10a8916c9f0b15ce4a8bfe19969cf5bde64f05777fc6c85602f651886020015189604001518060200190518101906127d491906131c3565b8a608001516000815181106127eb576127eb612e30565b6020026020010151600001518b6080015160008151811061280e5761280e612e30565b60200260200101516020015160405161285594939291906001600160401b039490941684526001600160a01b03928316602085015291166040830152606082015260800190565b60405180910390a250505050505050565b600061287b6001600160a01b03841683612903565b905080516000141580156128a057508080602001905181019061289e91906131a8565b155b156109ab57604051635274afe760e01b81526001600160a01b0384166004820152602401610876565b6000620f42406128e1670de0b6b3a764000084612eb1565b6105e29190612ec8565b6000670de0b6b3a76400006128e1620f424084612eb1565b606061291183836000612918565b9392505050565b60608147101561293d5760405163cd78605960e01b8152306004820152602401610876565b600080856001600160a01b03168486604051612959919061336b565b60006040518083038185875af1925050503d8060008114612996576040519150601f19603f3d011682016040523d82523d6000602084013e61299b565b606091505b50915091506129ab8683836129b5565b9695505050505050565b6060826129ca576129c582612a11565b612911565b81511580156129e157506001600160a01b0384163b155b15612a0a57604051639996b31560e01b81526001600160a01b0385166004820152602401610876565b5080612911565b805115612a215780518082602001fd5b604051630a12f52160e11b815260040160405180910390fd5b600060208284031215612a4c57600080fd5b81356001600160e01b03198116811461291157600080fd5b634e487b7160e01b600052604160045260246000fd5b604080519081016001600160401b0381118282101715612a9c57612a9c612a64565b60405290565b60405160a081016001600160401b0381118282101715612a9c57612a9c612a64565b60405161010081016001600160401b0381118282101715612a9c57612a9c612a64565b604051601f8201601f191681016001600160401b0381118282101715612b0f57612b0f612a64565b604052919050565b60006001600160401b03821115612b3057612b30612a64565b50601f01601f191660200190565b600082601f830112612b4f57600080fd5b8135612b62612b5d82612b17565b612ae7565b818152846020838601011115612b7757600080fd5b816020850160208301376000918101602001919091529392505050565b600080600060608486031215612ba957600080fd5b8335925060208401356001600160401b0380821115612bc757600080fd5b612bd387838801612b3e565b93506040860135915080821115612be957600080fd5b50612bf686828701612b3e565b9150509250925092565b6001600160401b0381168114610fd657600080fd5b8035612c2081612c00565b919050565b600060208284031215612c3757600080fd5b813561291181612c00565b6001600160a01b0381168114610fd657600080fd5b600080600060608486031215612c6c57600080fd5b8335612c7781612c42565b9250602084013591506040840135612c8e81612c42565b809150509250925092565b600080600060608486031215612cae57600080fd5b8335612cb981612c00565b92506020840135612cc981612c42565b929592945050506040919091013590565b60008060008060808587031215612cf057600080fd5b8435612cfb81612c42565b966020860135965060408601359560600135945092505050565b600060208284031215612d2757600080fd5b5035919050565b634e487b7160e01b600052602160045260246000fd5b60028110612d6257634e487b7160e01b600052602160045260246000fd5b9052565b60a08101612d748288612d44565b6001600160a01b0395909516602082015260408101939093526060830191909152608090910152919050565b60008060408385031215612db357600080fd5b8235612dbe81612c00565b91506020830135612dce81612c42565b809150509250929050565b600060208284031215612deb57600080fd5b81356001600160401b03811115612e0157600080fd5b820160a0818503121561291157600080fd5b600060208284031215612e2557600080fd5b813561291181612c42565b634e487b7160e01b600052603260045260246000fd5b634e487b7160e01b600052601160045260246000fd5b818103818111156105e2576105e2612e46565b634e487b7160e01b600052603160045260246000fd5b600060208284031215612e9757600080fd5b5051919050565b808201808211156105e2576105e2612e46565b80820281158282048414176105e2576105e2612e46565b600082612ee557634e487b7160e01b600052601260045260246000fd5b500490565b600082601f830112612efb57600080fd5b813560206001600160401b03821115612f1657612f16612a64565b612f24818360051b01612ae7565b82815260069290921b84018101918181019086841115612f4357600080fd5b8286015b84811015612f8b5760408189031215612f605760008081fd5b612f68612a7a565b8135612f7381612c42565b81528185013585820152835291830191604001612f47565b509695505050505050565b600060a08236031215612fa857600080fd5b612fb0612aa2565b82358152612fc060208401612c15565b602082015260408301356001600160401b0380821115612fdf57600080fd5b612feb36838701612b3e565b6040840152606085013591508082111561300457600080fd5b61301036838701612b3e565b6060840152608085013591508082111561302957600080fd5b5061303636828601612eea565b60808301525092915050565b60006001820161305457613054612e46565b5060010190565b828152604081016129116020830184612d44565b60005b8381101561308a578181015183820152602001613072565b50506000910152565b600081518084526130ab81602086016020860161306f565b601f01601f19169290920160200192915050565b600060406001600160401b038516835260208181850152845160a0838601526130eb60e0860182613093565b905081860151603f19808784030160608801526131088383613093565b88860151888203830160808a01528051808352908601945060009350908501905b8084101561315b57845180516001600160a01b0316835286015186830152938501936001939093019290860190613129565b5060608901516001600160a01b031660a08901526080890151888203830160c08a0152955061318a8187613093565b9a9950505050505050505050565b80518015158114612c2057600080fd5b6000602082840312156131ba57600080fd5b61291182613198565b6000602082840312156131d557600080fd5b815161291181612c42565b6000806000606084860312156131f557600080fd5b835161320081612c42565b602085015190935061321181612c42565b80925050604084015190509250925092565b8051612c2081612c42565b805160028110612c2057600080fd5b8051612c2081612c00565b600082601f83011261325957600080fd5b8151613267612b5d82612b17565b81815284602083860101111561327c57600080fd5b61328d82602083016020870161306f565b949350505050565b6000602082840312156132a757600080fd5b81516001600160401b03808211156132be57600080fd5b9083019061010082860312156132d357600080fd5b6132db612ac4565b825181526132eb60208401613223565b60208201526132fc60408401613223565b6040820152606083015160608201526133176080840161322e565b608082015261332860a0840161323d565b60a082015261333960c08401613198565b60c082015260e08301518281111561335057600080fd5b61335c87828601613248565b60e08301525095945050505050565b6000825161337d81846020870161306f565b919091019291505056fea2646970667358221220e2072eb12daa293290b2c94625134a6e471ff00dc9c453cde750b029c1729e4164736f6c63430008140033",
		"linkReferences": {}
	},
	"methodIdentifiers": {
		"CL_FUNCTIONS_CALLBACK_GAS_LIMIT()": "df7b3744",
		"CL_FUNCTIONS_GAS_OVERHEAD()": "43552f19",
		"ccipReceive((bytes32,uint64,bytes,bytes,(address,uint256)[]))": "85572ffb",
		"completeWithdrawal()": "e03ff7cb",
		"depositLiquidity(uint256)": "76d58e1a",
		"getMaxCap()": "c7352ede",
		"getRouter()": "b0f479a1",
		"getUsdcInUse()": "32212776",
		"handleOracleFulfillment(bytes32,bytes,bytes)": "0ca76175",
		"i_lp()": "21f343d8",
		"orchestratorLoan(address,uint256,address)": "29e19223",
		"removePoolsFromListOfSenders(uint64)": "2124c13f",
		"s_contractsToReceiveFrom(uint64,address)": "78c66596",
		"s_loansInUse()": "37ae5b56",
		"s_maxDeposit()": "7304b4da",
		"s_pendingWithdrawRequests(address)": "9cf1eeb8",
		"s_poolToSendTo(uint64)": "cdb81306",
		"s_requests(bytes32)": "71be8324",
		"s_withdrawRequests()": "036115e4",
		"setConceroContractSender(uint64,address,uint256)": "306e6934",
		"setPoolCap(uint256)": "d835f535",
		"setPoolsToSend(uint64,address)": "befd072c",
		"startWithdrawal(uint256)": "e69bb20d",
		"supportsInterface(bytes4)": "01ffc9a7",
		"updateUSDCAmountEarned(address,uint256,uint256,uint256)": "529c614c",
		"updateUSDCAmountManually(address,uint256,uint256,uint256)": "40da2da0"
	},
	"id": 5
}