{
	"_format": "hh-sol-artifact-1",
	"contractName": "ConceroParentPool",
	"sourceName": "contracts/ConceroParentPool.sol",
	"abi": [
		{
			"inputs": [
				{
					"internalType": "address",
					"name": "_parentPoolProxy",
					"type": "address"
				},
				{
					"internalType": "address",
					"name": "_link",
					"type": "address"
				},
				{
					"internalType": "bytes32",
					"name": "_donId",
					"type": "bytes32"
				},
				{
					"internalType": "uint64",
					"name": "_subscriptionId",
					"type": "uint64"
				},
				{
					"internalType": "address",
					"name": "_functionsRouter",
					"type": "address"
				},
				{
					"internalType": "address",
					"name": "_ccipRouter",
					"type": "address"
				},
				{
					"internalType": "address",
					"name": "_usdc",
					"type": "address"
				},
				{
					"internalType": "address",
					"name": "_lpToken",
					"type": "address"
				},
				{
					"internalType": "address",
					"name": "_automation",
					"type": "address"
				},
				{
					"internalType": "address",
					"name": "_orchestrator",
					"type": "address"
				},
				{
					"internalType": "address",
					"name": "_owner",
					"type": "address"
				},
				{
					"internalType": "address[3]",
					"name": "_messengers",
					"type": "address[3]"
				}
			],
			"stateMutability": "nonpayable",
			"type": "constructor"
		},
		{
			"inputs": [
				{
					"internalType": "address",
					"name": "target",
					"type": "address"
				}
			],
			"name": "AddressEmptyCode",
			"type": "error"
		},
		{
			"inputs": [
				{
					"internalType": "address",
					"name": "account",
					"type": "address"
				}
			],
			"name": "AddressInsufficientBalance",
			"type": "error"
		},
		{
			"inputs": [],
			"name": "ConceroParentPool_ActiveRequestNotFulfilledYet",
			"type": "error"
		},
		{
			"inputs": [
				{
					"internalType": "uint256",
					"name": "minAmount",
					"type": "uint256"
				}
			],
			"name": "ConceroParentPool_AmountBelowMinimum",
			"type": "error"
		},
		{
			"inputs": [],
			"name": "ConceroParentPool_InvalidAddress",
			"type": "error"
		},
		{
			"inputs": [
				{
					"internalType": "uint256",
					"name": "maxCap",
					"type": "uint256"
				}
			],
			"name": "ConceroParentPool_MaxCapReached",
			"type": "error"
		},
		{
			"inputs": [],
			"name": "ConceroParentPool_NotAllowedToComplete",
			"type": "error"
		},
		{
			"inputs": [
				{
					"internalType": "address",
					"name": "caller",
					"type": "address"
				}
			],
			"name": "ConceroParentPool_NotConceroCLA",
			"type": "error"
		},
		{
			"inputs": [],
			"name": "ConceroParentPool_NotContractOwner",
			"type": "error"
		},
		{
			"inputs": [
				{
					"internalType": "address",
					"name": "caller",
					"type": "address"
				}
			],
			"name": "ConceroParentPool_NotInfraProxy",
			"type": "error"
		},
		{
			"inputs": [
				{
					"internalType": "address",
					"name": "caller",
					"type": "address"
				}
			],
			"name": "ConceroParentPool_NotMessenger",
			"type": "error"
		},
		{
			"inputs": [
				{
					"internalType": "address",
					"name": "caller",
					"type": "address"
				}
			],
			"name": "ConceroParentPool_NotParentPoolProxy",
			"type": "error"
		},
		{
			"inputs": [
				{
					"internalType": "bytes32",
					"name": "requestId",
					"type": "bytes32"
				}
			],
			"name": "ConceroParentPool_RequestAlreadyProceeded",
			"type": "error"
		},
		{
			"inputs": [],
			"name": "ConceroParentPool_RequestDoesntExist",
			"type": "error"
		},
		{
			"inputs": [
				{
					"internalType": "address",
					"name": "_sender",
					"type": "address"
				}
			],
			"name": "ConceroParentPool_SenderNotAllowed",
			"type": "error"
		},
		{
			"inputs": [
				{
					"internalType": "uint256",
					"name": "received",
					"type": "uint256"
				}
			],
			"name": "ConceroParentPool_WithdrawalAmountNotReady",
			"type": "error"
		},
		{
			"inputs": [],
			"name": "EmptyArgs",
			"type": "error"
		},
		{
			"inputs": [],
			"name": "EmptySource",
			"type": "error"
		},
		{
			"inputs": [],
			"name": "FailedInnerCall",
			"type": "error"
		},
		{
			"inputs": [
				{
					"internalType": "address",
					"name": "router",
					"type": "address"
				}
			],
			"name": "InvalidRouter",
			"type": "error"
		},
		{
			"inputs": [],
			"name": "NoInlineSecrets",
			"type": "error"
		},
		{
			"inputs": [],
			"name": "OnlyRouterCanFulfill",
			"type": "error"
		},
		{
			"inputs": [
				{
					"internalType": "address",
					"name": "token",
					"type": "address"
				}
			],
			"name": "SafeERC20FailedOperation",
			"type": "error"
		},
		{
			"anonymous": false,
			"inputs": [
				{
					"indexed": true,
					"internalType": "bytes32",
					"name": "ccipMessageId",
					"type": "bytes32"
				},
				{
					"indexed": false,
					"internalType": "uint64",
					"name": "srcChainSelector",
					"type": "uint64"
				},
				{
					"indexed": false,
					"internalType": "address",
					"name": "sender",
					"type": "address"
				},
				{
					"indexed": false,
					"internalType": "address",
					"name": "token",
					"type": "address"
				},
				{
					"indexed": false,
					"internalType": "uint256",
					"name": "amount",
					"type": "uint256"
				}
			],
			"name": "ConceroParentPool_CCIPReceived",
			"type": "event"
		},
		{
			"anonymous": false,
			"inputs": [
				{
					"indexed": true,
					"internalType": "bytes32",
					"name": "messageId",
					"type": "bytes32"
				},
				{
					"indexed": false,
					"internalType": "uint64",
					"name": "destinationChainSelector",
					"type": "uint64"
				},
				{
					"indexed": false,
					"internalType": "address",
					"name": "receiver",
					"type": "address"
				},
				{
					"indexed": false,
					"internalType": "address",
					"name": "linkToken",
					"type": "address"
				},
				{
					"indexed": false,
					"internalType": "uint256",
					"name": "fees",
					"type": "uint256"
				}
			],
			"name": "ConceroParentPool_CCIPSent",
			"type": "event"
		},
		{
			"anonymous": false,
			"inputs": [
				{
					"indexed": true,
					"internalType": "bytes32",
					"name": "requestId",
					"type": "bytes32"
				},
				{
					"indexed": false,
					"internalType": "enum IParentPool.RequestType",
					"name": "requestType",
					"type": "uint8"
				},
				{
					"indexed": false,
					"internalType": "bytes",
					"name": "error",
					"type": "bytes"
				}
			],
			"name": "ConceroParentPool_CLFRequestError",
			"type": "event"
		},
		{
			"anonymous": false,
			"inputs": [
				{
					"indexed": false,
					"internalType": "uint64",
					"name": "_chainSelector",
					"type": "uint64"
				}
			],
			"name": "ConceroParentPool_ChainAndAddressRemoved",
			"type": "event"
		},
		{
			"anonymous": false,
			"inputs": [
				{
					"indexed": false,
					"internalType": "address",
					"name": "concero",
					"type": "address"
				}
			],
			"name": "ConceroParentPool_ConceroContractUpdated",
			"type": "event"
		},
		{
			"anonymous": false,
			"inputs": [
				{
					"indexed": false,
					"internalType": "uint64",
					"name": "chainSelector",
					"type": "uint64"
				},
				{
					"indexed": false,
					"internalType": "address",
					"name": "conceroContract",
					"type": "address"
				},
				{
					"indexed": false,
					"internalType": "uint256",
					"name": "isAllowed",
					"type": "uint256"
				}
			],
			"name": "ConceroParentPool_ConceroSendersUpdated",
			"type": "event"
		},
		{
			"anonymous": false,
			"inputs": [
				{
					"indexed": true,
					"internalType": "bytes32",
					"name": "requestId",
					"type": "bytes32"
				},
				{
					"indexed": true,
					"internalType": "address",
					"name": "lpAddress",
					"type": "address"
				},
				{
					"indexed": false,
					"internalType": "uint256",
					"name": "usdcAmount",
					"type": "uint256"
				},
				{
					"indexed": false,
					"internalType": "uint256",
					"name": "_lpTokensToMint",
					"type": "uint256"
				}
			],
			"name": "ConceroParentPool_DepositCompleted",
			"type": "event"
		},
		{
			"anonymous": false,
			"inputs": [
				{
					"indexed": true,
					"internalType": "bytes32",
					"name": "requestId",
					"type": "bytes32"
				},
				{
					"indexed": true,
					"internalType": "address",
					"name": "liquidityProvider",
					"type": "address"
				},
				{
					"indexed": false,
					"internalType": "uint256",
					"name": "_amount",
					"type": "uint256"
				},
				{
					"indexed": false,
					"internalType": "uint256",
					"name": "deadline",
					"type": "uint256"
				}
			],
			"name": "ConceroParentPool_DepositInitiated",
			"type": "event"
		},
		{
			"anonymous": false,
			"inputs": [
				{
					"indexed": false,
					"internalType": "uint256",
					"name": "_newCap",
					"type": "uint256"
				}
			],
			"name": "ConceroParentPool_MasterPoolCapUpdated",
			"type": "event"
		},
		{
			"anonymous": false,
			"inputs": [
				{
					"indexed": false,
					"internalType": "uint64",
					"name": "chainSelector",
					"type": "uint64"
				},
				{
					"indexed": false,
					"internalType": "address",
					"name": "pool",
					"type": "address"
				}
			],
			"name": "ConceroParentPool_PoolReceiverUpdated",
			"type": "event"
		},
		{
			"anonymous": false,
			"inputs": [
				{
					"indexed": false,
					"internalType": "bytes32",
					"name": "requestId",
					"type": "bytes32"
				}
			],
			"name": "ConceroParentPool_RedistributionStarted",
			"type": "event"
		},
		{
			"anonymous": false,
			"inputs": [
				{
					"indexed": false,
					"internalType": "bytes32",
					"name": "requestId",
					"type": "bytes32"
				}
			],
			"name": "ConceroParentPool_RequestUpdated",
			"type": "event"
		},
		{
			"anonymous": false,
			"inputs": [
				{
					"indexed": true,
					"internalType": "address",
					"name": "caller",
					"type": "address"
				},
				{
					"indexed": false,
					"internalType": "contract IERC20",
					"name": "token",
					"type": "address"
				},
				{
					"indexed": false,
					"internalType": "uint256",
					"name": "deadline",
					"type": "uint256"
				}
			],
			"name": "ConceroParentPool_WithdrawRequestInitiated",
			"type": "event"
		},
		{
			"anonymous": false,
			"inputs": [
				{
					"indexed": true,
					"internalType": "address",
					"name": "to",
					"type": "address"
				},
				{
					"indexed": false,
					"internalType": "address",
					"name": "token",
					"type": "address"
				},
				{
					"indexed": false,
					"internalType": "uint256",
					"name": "amount",
					"type": "uint256"
				}
			],
			"name": "ConceroParentPool_Withdrawn",
			"type": "event"
		},
		{
			"anonymous": false,
			"inputs": [
				{
					"indexed": true,
					"internalType": "address",
					"name": "token",
					"type": "address"
				},
				{
					"indexed": true,
					"internalType": "address",
					"name": "from",
					"type": "address"
				},
				{
					"indexed": false,
					"internalType": "uint256",
					"name": "amount",
					"type": "uint256"
				}
			],
			"name": "ConceroPool_Deposited",
			"type": "event"
		},
		{
			"anonymous": false,
			"inputs": [
				{
					"indexed": false,
					"internalType": "address",
					"name": "caller",
					"type": "address"
				},
				{
					"indexed": false,
					"internalType": "address",
					"name": "token",
					"type": "address"
				},
				{
					"indexed": false,
					"internalType": "uint256",
					"name": "condition",
					"type": "uint256"
				},
				{
					"indexed": false,
					"internalType": "uint256",
					"name": "amount",
					"type": "uint256"
				}
			],
			"name": "ConceroPool_WithdrawRequest",
			"type": "event"
		},
		{
			"anonymous": false,
			"inputs": [
				{
					"indexed": true,
					"internalType": "bytes32",
					"name": "id",
					"type": "bytes32"
				}
			],
			"name": "RequestFulfilled",
			"type": "event"
		},
		{
			"anonymous": false,
			"inputs": [
				{
					"indexed": true,
					"internalType": "bytes32",
					"name": "id",
					"type": "bytes32"
				}
			],
			"name": "RequestSent",
			"type": "event"
		},
		{
			"inputs": [],
			"name": "CL_FUNCTIONS_CALLBACK_GAS_LIMIT",
			"outputs": [
				{
					"internalType": "uint32",
					"name": "",
					"type": "uint32"
				}
			],
			"stateMutability": "view",
			"type": "function"
		},
		{
			"inputs": [
				{
					"internalType": "bytes32",
					"name": "_withdrawalId",
					"type": "bytes32"
				}
			],
			"name": "addWithdrawalOnTheWayAmountById",
			"outputs": [],
			"stateMutability": "nonpayable",
			"type": "function"
		},
		{
			"inputs": [
				{
					"internalType": "uint256",
					"name": "childPoolsBalance",
					"type": "uint256"
				},
				{
					"internalType": "uint256",
					"name": "amountToDeposit",
					"type": "uint256"
				}
			],
			"name": "calculateLpAmount",
			"outputs": [
				{
					"internalType": "uint256",
					"name": "",
					"type": "uint256"
				}
			],
			"stateMutability": "view",
			"type": "function"
		},
		{
			"inputs": [
				{
					"internalType": "uint256",
					"name": "childPoolsBalance",
					"type": "uint256"
				},
				{
					"internalType": "uint256",
					"name": "clpAmount",
					"type": "uint256"
				}
			],
			"name": "calculateWithdrawableAmount",
			"outputs": [
				{
					"internalType": "uint256",
					"name": "",
					"type": "uint256"
				}
			],
			"stateMutability": "view",
			"type": "function"
		},
		{
			"inputs": [
				{
					"components": [
						{
							"internalType": "bytes32",
							"name": "messageId",
							"type": "bytes32"
						},
						{
							"internalType": "uint64",
							"name": "sourceChainSelector",
							"type": "uint64"
						},
						{
							"internalType": "bytes",
							"name": "sender",
							"type": "bytes"
						},
						{
							"internalType": "bytes",
							"name": "data",
							"type": "bytes"
						},
						{
							"components": [
								{
									"internalType": "address",
									"name": "token",
									"type": "address"
								},
								{
									"internalType": "uint256",
									"name": "amount",
									"type": "uint256"
								}
							],
							"internalType": "struct Client.EVMTokenAmount[]",
							"name": "destTokenAmounts",
							"type": "tuple[]"
						}
					],
					"internalType": "struct Client.Any2EVMMessage",
					"name": "message",
					"type": "tuple"
				}
			],
			"name": "ccipReceive",
			"outputs": [],
			"stateMutability": "nonpayable",
			"type": "function"
		},
		{
			"inputs": [
				{
					"internalType": "bytes32",
					"name": "_depositRequestId",
					"type": "bytes32"
				}
			],
			"name": "completeDeposit",
			"outputs": [],
			"stateMutability": "nonpayable",
			"type": "function"
		},
		{
			"inputs": [],
			"name": "completeWithdrawal",
			"outputs": [],
			"stateMutability": "nonpayable",
			"type": "function"
		},
		{
			"inputs": [
				{
					"internalType": "bytes1[]",
					"name": "_ids",
					"type": "bytes1[]"
				}
			],
			"name": "deleteDepositsOnTheWayByIds",
			"outputs": [],
			"stateMutability": "nonpayable",
			"type": "function"
		},
		{
			"inputs": [
				{
					"internalType": "uint64",
					"name": "_chainSelector",
					"type": "uint64"
				},
				{
					"internalType": "uint256",
					"name": "_amountToSend",
					"type": "uint256"
				},
				{
					"internalType": "bytes32",
					"name": "distributeLiquidityRequestId",
					"type": "bytes32"
				}
			],
			"name": "distributeLiquidity",
			"outputs": [],
			"stateMutability": "nonpayable",
			"type": "function"
		},
		{
			"inputs": [],
			"name": "getDepositsOnTheWay",
			"outputs": [
				{
					"components": [
						{
							"internalType": "bytes1",
							"name": "id",
							"type": "bytes1"
						},
						{
							"internalType": "uint64",
							"name": "chainSelector",
							"type": "uint64"
						},
						{
							"internalType": "bytes32",
							"name": "ccipMessageId",
							"type": "bytes32"
						},
						{
							"internalType": "uint256",
							"name": "amount",
							"type": "uint256"
						}
					],
					"internalType": "struct IParentPool.DepositOnTheWay[]",
					"name": "",
					"type": "tuple[]"
				}
			],
			"stateMutability": "view",
			"type": "function"
		},
		{
			"inputs": [],
			"name": "getMaxDeposit",
			"outputs": [
				{
					"internalType": "uint256",
					"name": "",
					"type": "uint256"
				}
			],
			"stateMutability": "view",
			"type": "function"
		},
		{
			"inputs": [],
			"name": "getRouter",
			"outputs": [
				{
					"internalType": "address",
					"name": "",
					"type": "address"
				}
			],
			"stateMutability": "view",
			"type": "function"
		},
		{
			"inputs": [],
			"name": "getUsdcInUse",
			"outputs": [
				{
					"internalType": "uint256",
					"name": "",
					"type": "uint256"
				}
			],
			"stateMutability": "view",
			"type": "function"
		},
		{
			"inputs": [
				{
					"internalType": "address",
					"name": "_lpAddress",
					"type": "address"
				}
			],
			"name": "getWithdrawalIdByLPAddress",
			"outputs": [
				{
					"internalType": "bytes32",
					"name": "",
					"type": "bytes32"
				}
			],
			"stateMutability": "view",
			"type": "function"
		},
		{
			"inputs": [
				{
					"internalType": "bytes32",
					"name": "_withdrawalId",
					"type": "bytes32"
				}
			],
			"name": "getWithdrawalRequestById",
			"outputs": [
				{
					"components": [
						{
							"internalType": "address",
							"name": "lpAddress",
							"type": "address"
						},
						{
							"internalType": "uint256",
							"name": "lpSupplySnapshot",
							"type": "uint256"
						},
						{
							"internalType": "uint256",
							"name": "lpAmountToBurn",
							"type": "uint256"
						},
						{
							"internalType": "uint256",
							"name": "totalCrossChainLiquiditySnapshot",
							"type": "uint256"
						},
						{
							"internalType": "uint256",
							"name": "amountToWithdraw",
							"type": "uint256"
						},
						{
							"internalType": "uint256",
							"name": "liquidityRequestedFromEachPool",
							"type": "uint256"
						},
						{
							"internalType": "uint256",
							"name": "remainingLiquidityFromChildPools",
							"type": "uint256"
						},
						{
							"internalType": "uint256",
							"name": "triggeredAtTimestamp",
							"type": "uint256"
						}
					],
					"internalType": "struct IParentPool.WithdrawRequest",
					"name": "",
					"type": "tuple"
				}
			],
			"stateMutability": "view",
			"type": "function"
		},
		{
			"inputs": [
				{
					"internalType": "bytes32",
					"name": "requestId",
					"type": "bytes32"
				},
				{
					"internalType": "bytes",
					"name": "response",
					"type": "bytes"
				},
				{
					"internalType": "bytes",
					"name": "err",
					"type": "bytes"
				}
			],
			"name": "handleOracleFulfillment",
			"outputs": [],
			"stateMutability": "nonpayable",
			"type": "function"
		},
		{
			"inputs": [],
			"name": "i_lp",
			"outputs": [
				{
					"internalType": "contract LPToken",
					"name": "",
					"type": "address"
				}
			],
			"stateMutability": "view",
			"type": "function"
		},
		{
			"inputs": [
				{
					"internalType": "uint64",
					"name": "_chainSelector",
					"type": "uint64"
				}
			],
			"name": "removePools",
			"outputs": [],
			"stateMutability": "payable",
			"type": "function"
		},
		{
			"inputs": [
				{
					"internalType": "bytes32",
					"name": "clfReqId",
					"type": "bytes32"
				}
			],
			"name": "s_clfRequestTypes",
			"outputs": [
				{
					"internalType": "enum IParentPool.RequestType",
					"name": "",
					"type": "uint8"
				}
			],
			"stateMutability": "view",
			"type": "function"
		},
		{
			"inputs": [
				{
					"internalType": "uint64",
					"name": "chainSelector",
					"type": "uint64"
				},
				{
					"internalType": "address",
					"name": "poolAddress",
					"type": "address"
				}
			],
			"name": "s_contractsToReceiveFrom",
			"outputs": [
				{
					"internalType": "uint256",
					"name": "",
					"type": "uint256"
				}
			],
			"stateMutability": "view",
			"type": "function"
		},
		{
			"inputs": [
				{
					"internalType": "bytes32",
					"name": "clfReqId",
					"type": "bytes32"
				}
			],
			"name": "s_depositRequests",
			"outputs": [
				{
					"internalType": "address",
					"name": "lpAddress",
					"type": "address"
				},
				{
					"internalType": "uint256",
					"name": "childPoolsLiquiditySnapshot",
					"type": "uint256"
				},
				{
					"internalType": "uint256",
					"name": "usdcAmountToDeposit",
					"type": "uint256"
				},
				{
					"internalType": "uint256",
					"name": "deadline",
					"type": "uint256"
				}
			],
			"stateMutability": "view",
			"type": "function"
		},
		{
			"inputs": [],
			"name": "s_depositsOnTheWayAmount",
			"outputs": [
				{
					"internalType": "uint256",
					"name": "",
					"type": "uint256"
				}
			],
			"stateMutability": "view",
			"type": "function"
		},
		{
			"inputs": [
				{
					"internalType": "bytes32",
					"name": "",
					"type": "bytes32"
				}
			],
			"name": "s_distributeLiquidityRequestProcessed",
			"outputs": [
				{
					"internalType": "bool",
					"name": "",
					"type": "bool"
				}
			],
			"stateMutability": "view",
			"type": "function"
		},
		{
			"inputs": [],
			"name": "s_loansInUse",
			"outputs": [
				{
					"internalType": "uint256",
					"name": "",
					"type": "uint256"
				}
			],
			"stateMutability": "view",
			"type": "function"
		},
		{
			"inputs": [],
			"name": "s_maxDeposit",
			"outputs": [
				{
					"internalType": "uint256",
					"name": "",
					"type": "uint256"
				}
			],
			"stateMutability": "view",
			"type": "function"
		},
		{
			"inputs": [
				{
					"internalType": "uint64",
					"name": "chainSelector",
					"type": "uint64"
				}
			],
			"name": "s_poolToSendTo",
			"outputs": [
				{
					"internalType": "address",
					"name": "pool",
					"type": "address"
				}
			],
			"stateMutability": "view",
			"type": "function"
		},
		{
			"inputs": [],
			"name": "s_withdrawAmountLocked",
			"outputs": [
				{
					"internalType": "uint256",
					"name": "",
					"type": "uint256"
				}
			],
			"stateMutability": "view",
			"type": "function"
		},
		{
			"inputs": [
				{
					"internalType": "bytes32",
					"name": "clfReqId",
					"type": "bytes32"
				}
			],
			"name": "s_withdrawRequests",
			"outputs": [
				{
					"internalType": "address",
					"name": "lpAddress",
					"type": "address"
				},
				{
					"internalType": "uint256",
					"name": "lpSupplySnapshot",
					"type": "uint256"
				},
				{
					"internalType": "uint256",
					"name": "lpAmountToBurn",
					"type": "uint256"
				},
				{
					"internalType": "uint256",
					"name": "totalCrossChainLiquiditySnapshot",
					"type": "uint256"
				},
				{
					"internalType": "uint256",
					"name": "amountToWithdraw",
					"type": "uint256"
				},
				{
					"internalType": "uint256",
					"name": "liquidityRequestedFromEachPool",
					"type": "uint256"
				},
				{
					"internalType": "uint256",
					"name": "remainingLiquidityFromChildPools",
					"type": "uint256"
				},
				{
					"internalType": "uint256",
					"name": "triggeredAtTimestamp",
					"type": "uint256"
				}
			],
			"stateMutability": "view",
			"type": "function"
		},
		{
			"inputs": [
				{
					"internalType": "bytes32",
					"name": "clfReqId",
					"type": "bytes32"
				}
			],
			"name": "s_withdrawalIdByCLFRequestId",
			"outputs": [
				{
					"internalType": "bytes32",
					"name": "withdrawalId",
					"type": "bytes32"
				}
			],
			"stateMutability": "view",
			"type": "function"
		},
		{
			"inputs": [
				{
					"internalType": "address",
					"name": "lpAddress",
					"type": "address"
				}
			],
			"name": "s_withdrawalIdByLPAddress",
			"outputs": [
				{
					"internalType": "bytes32",
					"name": "withdrawalId",
					"type": "bytes32"
				}
			],
			"stateMutability": "view",
			"type": "function"
		},
		{
			"inputs": [
				{
					"internalType": "uint64",
					"name": "_chainSelector",
					"type": "uint64"
				},
				{
					"internalType": "address",
					"name": "_contractAddress",
					"type": "address"
				},
				{
					"internalType": "uint256",
					"name": "_isAllowed",
					"type": "uint256"
				}
			],
			"name": "setConceroContractSender",
			"outputs": [],
			"stateMutability": "payable",
			"type": "function"
		},
		{
			"inputs": [
				{
					"internalType": "uint8",
					"name": "_slotId",
					"type": "uint8"
				}
			],
			"name": "setDonHostedSecretsSlotId",
			"outputs": [],
			"stateMutability": "payable",
			"type": "function"
		},
		{
			"inputs": [
				{
					"internalType": "uint64",
					"name": "_version",
					"type": "uint64"
				}
			],
			"name": "setDonHostedSecretsVersion",
			"outputs": [],
			"stateMutability": "payable",
			"type": "function"
		},
		{
			"inputs": [
				{
					"internalType": "bytes32",
					"name": "_ethersHashSum",
					"type": "bytes32"
				}
			],
			"name": "setEthersHashSum",
			"outputs": [],
			"stateMutability": "payable",
			"type": "function"
		},
		{
			"inputs": [
				{
					"internalType": "bytes32",
					"name": "_hashSum",
					"type": "bytes32"
				}
			],
			"name": "setHashSum",
			"outputs": [],
			"stateMutability": "payable",
			"type": "function"
		},
		{
			"inputs": [
				{
					"internalType": "uint256",
					"name": "_newCap",
					"type": "uint256"
				}
			],
			"name": "setPoolCap",
			"outputs": [],
			"stateMutability": "payable",
			"type": "function"
		},
		{
			"inputs": [
				{
					"internalType": "uint64",
					"name": "_chainSelector",
					"type": "uint64"
				},
				{
					"internalType": "address",
					"name": "_pool",
					"type": "address"
				},
				{
					"internalType": "bool",
					"name": "isRebalancingNeeded",
					"type": "bool"
				}
			],
			"name": "setPools",
			"outputs": [],
			"stateMutability": "payable",
			"type": "function"
		},
		{
			"inputs": [
				{
					"internalType": "uint256",
					"name": "_usdcAmount",
					"type": "uint256"
				}
			],
			"name": "startDeposit",
			"outputs": [],
			"stateMutability": "nonpayable",
			"type": "function"
		},
		{
			"inputs": [
				{
					"internalType": "uint256",
					"name": "_lpAmount",
					"type": "uint256"
				}
			],
			"name": "startWithdrawal",
			"outputs": [],
			"stateMutability": "nonpayable",
			"type": "function"
		},
		{
			"inputs": [
				{
					"internalType": "bytes4",
					"name": "interfaceId",
					"type": "bytes4"
				}
			],
			"name": "supportsInterface",
			"outputs": [
				{
					"internalType": "bool",
					"name": "",
					"type": "bool"
				}
			],
			"stateMutability": "pure",
			"type": "function"
		},
		{
			"inputs": [
				{
					"internalType": "address",
					"name": "_token",
					"type": "address"
				},
				{
					"internalType": "uint256",
					"name": "_amount",
					"type": "uint256"
				},
				{
					"internalType": "address",
					"name": "_receiver",
					"type": "address"
				}
			],
			"name": "takeLoan",
			"outputs": [],
			"stateMutability": "payable",
			"type": "function"
		},
		{
			"inputs": [],
			"name": "withdrawDepositFees",
			"outputs": [],
			"stateMutability": "payable",
			"type": "function"
		},
		{
			"stateMutability": "payable",
			"type": "receive"
		}
	],
	"bytecode": "0x6102406040523480156200001257600080fd5b506040516200632738038062006327833981016040819052620000359162000188565b87876001600160a01b03811662000066576040516335fdcccd60e21b81526000600482015260240160405180910390fd5b6001600160a01b0390811660805290811660a0526101809a909a526001600160401b03989098166101a05299881660c0529787166101005291861661012052851661014052841661016052505091811660e0529182166101c052805182166101e052602081015182166102005260400151166102205262000283565b80516001600160a01b0381168114620000fa57600080fd5b919050565b600082601f8301126200011157600080fd5b604051606081016001600160401b03811182821017156200014257634e487b7160e01b600052604160045260246000fd5b6040528060608401858111156200015857600080fd5b845b818110156200017d576200016e81620000e2565b8352602092830192016200015a565b509195945050505050565b6000806000806000806000806000806000806101c08d8f031215620001ac57600080fd5b620001b78d620000e2565b9b50620001c760208e01620000e2565b60408e015160608f0151919c509a506001600160401b0381168114620001ec57600080fd5b9850620001fc60808e01620000e2565b97506200020c60a08e01620000e2565b96506200021c60c08e01620000e2565b95506200022c60e08e01620000e2565b94506200023d6101008e01620000e2565b93506200024e6101208e01620000e2565b92506200025f6101408e01620000e2565b9150620002718e6101608f01620000ff565b90509295989b509295989b509295989b565b60805160a05160c05160e05161010051610120516101405161016051610180516101a0516101c0516101e0516102005161022051615e896200049e6000396000612a9b01526000612a5f01526000612a24015260008181610ae901528181610bbd01528181610ced015281816112610152818161169f015281816116ed0152818161175f015281816117e101528181611c930152818161208a01526129b9015260006132e201526000613307015260008181611151015281816112fa01526145de01526000818161034e0152818161153a0152818161237801528181612626015281816126c9015281816128de01528181612ee401526134190152600081816114f60152818161173c01528181611dcc015281816123e1015281816124100152818161279501528181612add01528181612bde01528181613362015281816136950152613af5015260008181612c9401528181612dc90152613d2001526000818161283e01526135c501526000818161095201528181610b7201528181610ca20152818161110601528181611216015281816112af01528181611418015281816116540152818161179601528181611c4801528181611cf20152818161203f015281816121a601528181612480015281816127f3015261296e015260008181610a6501526141ce015260008181610764015281816113b901528181612b0801528181612bac01528181612c650152612d190152615e896000f3fe6080604052600436106102555760003560e01c806380e3748a11610139578063cdb81306116100b6578063df7b37441161007a578063df7b374414610869578063e03ff7cb14610895578063e69bb20d146108aa578063f364c1e6146108ca578063fce32c6d146108dd578063fdb742d9146108fd57600080fd5b8063cdb81306146107ae578063cf10af02146107e4578063d4602f1214610814578063d835f53514610834578063dad355901461084757600080fd5b8063a9431ba3116100fd578063a9431ba314610720578063aac0167b1461074d578063b0f479a114610755578063b223265714610788578063c27e26cb1461079b57600080fd5b806380e3748a1461064257806385572ffb146106b85780638c503dc4146106d85780639b9cf8a2146106f8578063a4dbc6a81461070b57600080fd5b806337ae5b56116101d2578063631a5a4f11610196578063631a5a4f146104f1578063645f8a141461050757806367511437146105275780636fa37cbc146105d45780637304b4da146105f457806378c665961461060a57600080fd5b806337ae5b561461041a5780633d0a18bf146104305780634536ca72146104435780635926b8e8146104c85780635a449ce1146104de57600080fd5b806321f343d81161021957806321f343d81461033c578063231d3b6b146103885780632fdf2993146103c5578063306e6934146103f2578063322127761461040557600080fd5b806301ffc9a71461026157806303851d051461029657806307367349146102da5780630ca76175146102fc5780631eef59dd1461031c57600080fd5b3661025c57005b600080fd5b34801561026d57600080fd5b5061028161027c366004614ddf565b610910565b60405190151581526020015b60405180910390f35b3480156102a257600080fd5b506102cc6102b1366004614e1e565b6001600160a01b031660009081526043602052604090205490565b60405190815260200161028d565b3480156102e657600080fd5b506102fa6102f5366004614e5b565b610947565b005b34801561030857600080fd5b506102fa610317366004614fc0565b610a5a565b34801561032857600080fd5b506102fa61033736600461502c565b610ade565b34801561034857600080fd5b506103707f000000000000000000000000000000000000000000000000000000000000000081565b6040516001600160a01b03909116815260200161028d565b34801561039457600080fd5b506103b86103a33660046150a0565b60416020526000908152604090205460ff1681565b60405161028d91906150ed565b3480156103d157600080fd5b506102cc6103e0366004614e1e565b60436020526000908152604090205481565b6102fa610400366004615100565b610b67565b34801561041157600080fd5b506001546102cc565b34801561042657600080fd5b506102cc60015481565b6102fa61043e36600461514f565b610c97565b34801561044f57600080fd5b5061046361045e3660046150a0565b6110aa565b60405161028d919081516001600160a01b031681526020808301519082015260408083015190820152606080830151908201526080808301519082015260a0828101519082015260c0808301519082015260e091820151918101919091526101000190565b3480156104d457600080fd5b506102cc60085481565b6102fa6104ec3660046150a0565b61120b565b3480156104fd57600080fd5b506102cc60055481565b34801561051357600080fd5b506102fa6105223660046150a0565b6112a4565b34801561053357600080fd5b5061058f6105423660046150a0565b604560205260009081526040902080546001820154600283015460038401546004850154600586015460068701546007909701546001600160a01b03909616969495939492939192909188565b604080516001600160a01b0390991689526020890197909752958701949094526060860192909252608085015260a084015260c083015260e08201526101000161028d565b3480156105e057600080fd5b506102cc6105ef36600461519a565b61139b565b34801561060057600080fd5b506102cc60005481565b34801561061657600080fd5b506102cc6106253660046151bc565b603f60209081526000928352604080842090915290825290205481565b34801561064e57600080fd5b5061068e61065d3660046150a0565b60426020526000908152604090208054600182015460028301546003909301546001600160a01b0390921692909184565b604080516001600160a01b039095168552602085019390935291830152606082015260800161028d565b3480156106c457600080fd5b506102fa6106d33660046151f5565b6113ae565b3480156106e457600080fd5b506102fa6106f33660046150a0565b61140d565b6102fa6107063660046150a0565b611649565b34801561071757600080fd5b506000546102cc565b34801561072c57600080fd5b506102cc61073b3660046150a0565b60446020526000908152604090205481565b6102fa6116e2565b34801561076157600080fd5b507f0000000000000000000000000000000000000000000000000000000000000000610370565b6102fa61079636600461522f565b61178b565b6102fa6107a936600461524c565b611c3d565b3480156107ba57600080fd5b506103706107c936600461522f565b603e602052600090815260409020546001600160a01b031681565b3480156107f057600080fd5b506102816107ff3660046150a0565b60406020819052600091825290205460ff1681565b34801561082057600080fd5b506102fa61082f3660046150a0565b611ce7565b6102fa6108423660046150a0565b612034565b34801561085357600080fd5b5061085c612102565b60405161028d919061526f565b34801561087557600080fd5b50610880621e848081565b60405163ffffffff909116815260200161028d565b3480156108a157600080fd5b506102fa61219b565b3480156108b657600080fd5b506102fa6108c53660046150a0565b612475565b6102fa6108d83660046152e6565b6127e8565b3480156108e957600080fd5b506102cc6108f836600461519a565b6128d5565b6102fa61090b36600461522f565b612963565b60006001600160e01b031982166385572ffb60e01b148061094157506001600160e01b031982166301ffc9a760e01b145b92915050565b306001600160a01b037f000000000000000000000000000000000000000000000000000000000000000016146109975760405163f2d90f0b60e01b81523060048201526024015b60405180910390fd5b6109a033612a20565b6109bf5760405163ac9262e760e01b815233600482015260240161098e565b6001600160401b0383166000908152603e60205260409020546001600160a01b03166109fe576040516367f93df760e01b815260040160405180910390fd5b60008181526040602081905290205460ff1615610a3157604051630848e24b60e11b81526004810182905260240161098e565b6000818152604060208190529020805460ff19166001179055610a548383612ad4565b50505050565b336001600160a01b037f00000000000000000000000000000000000000000000000000000000000000001614610aa35760405163c6829f8360e01b815260040160405180910390fd5b610aae838383612e2c565b60405183907f85e1543bf2f84fe80c6badbce3648c8539ad1df4d2b3d822938ca0538be727e690600090a2505050565b336001600160a01b037f00000000000000000000000000000000000000000000000000000000000000001614610b27576040516354ad07a960e11b815260040160405180910390fd5b610b6382828080602002602001604051908101604052809392919081815260200183836020028082843760009201919091525061301692505050565b5050565b306001600160a01b037f00000000000000000000000000000000000000000000000000000000000000001614610bb25760405163f2d90f0b60e01b815230600482015260240161098e565b336001600160a01b037f00000000000000000000000000000000000000000000000000000000000000001614610bfb576040516354ad07a960e11b815260040160405180910390fd5b6001600160a01b038216610c22576040516367f93df760e01b815260040160405180910390fd5b6001600160401b0383166000818152603f602090815260408083206001600160a01b0387168085529083529281902085905580519384529083019190915281018290527f18e1fe458879e99b411dc55bafcfaef8d97d66d6ea0381e731999340d046b5a09060600160405180910390a1505050565b306001600160a01b037f00000000000000000000000000000000000000000000000000000000000000001614610ce25760405163f2d90f0b60e01b815230600482015260240161098e565b336001600160a01b037f00000000000000000000000000000000000000000000000000000000000000001614610d2b576040516354ad07a960e11b815260040160405180910390fd5b6001600160401b0383166000908152603e60205260409020546001600160a01b0383811691161480610d6457506001600160a01b038216155b15610d82576040516367f93df760e01b815260040160405180910390fd5b603c8054600181019091557fc6bb06cb7f92603de181bf256cd16846b93b752a170ff24824098b31aa008a7e6004820401805460039092166008026101000a6001600160401b03818102199093169286169081029290921790556000818152603e602090815260409182902080546001600160a01b0319166001600160a01b0387169081179091558251938452908301527f551adbe00ac870d2058d03176d5afbe307720914a006ff5f303b31752d9fc428910160405180910390a18015156001036110a557600082846000424344604051602001610e669695949392919061531d565b60408051808303601f190181528282528051602090910120600680845260e08401909252925060009190816020015b6060815260200190600190039081610e95579050509050600354604051602001610ec191815260200190565b60405160208183030381529060405281600081518110610ee357610ee3615376565b6020026020010181905250600454604051602001610f0391815260200190565b60405160208183030381529060405281600181518110610f2557610f25615376565b60200260200101819052506001604051602001610f42919061538c565b60405160208183030381529060405281600281518110610f6457610f64615376565b602002602001018190525084604051602001610f93919060c09190911b6001600160c01b031916815260080190565b60405160208183030381529060405281600381518110610fb557610fb5615376565b602002602001018190525081604051602001610fd391815260200190565b60405160208183030381529060405281600481518110610ff557610ff5615376565b60200260200101819052506000604051602001611012919061538c565b6040516020818303038152906040528160058151811061103457611034615376565b6020026020010181905250600061106682604051806103e001604052806103bd8152602001615a976103bd913961325c565b90507fd75d58d70d42ebace891f9fe341baa5676e0b6b95db8b4d76f2fd283d50e32618160405161109991815260200190565b60405180910390a15050505b505050565b6110fb60405180610100016040528060006001600160a01b03168152602001600081526020016000815260200160008152602001600081526020016000815260200160008152602001600081525090565b306001600160a01b037f000000000000000000000000000000000000000000000000000000000000000016146111465760405163f2d90f0b60e01b815230600482015260240161098e565b336001600160a01b037f0000000000000000000000000000000000000000000000000000000000000000161461119157604051631da78bad60e11b815233600482015260240161098e565b5060008181526045602090815260409182902082516101008101845281546001600160a01b031681526001820154928101929092526002810154928201929092526003820154606082015260048201546080820152600582015460a0820152600682015460c082015260079091015460e08201525b919050565b306001600160a01b037f000000000000000000000000000000000000000000000000000000000000000016146112565760405163f2d90f0b60e01b815230600482015260240161098e565b336001600160a01b037f0000000000000000000000000000000000000000000000000000000000000000161461129f576040516354ad07a960e11b815260040160405180910390fd5b600355565b306001600160a01b037f000000000000000000000000000000000000000000000000000000000000000016146112ef5760405163f2d90f0b60e01b815230600482015260240161098e565b336001600160a01b037f0000000000000000000000000000000000000000000000000000000000000000161461133a57604051631da78bad60e11b815233600482015260240161098e565b6000818152604560205260408120600581015460049091015461135d91906153b9565b9050806000036113805760405163144a191f60e21b815260040160405180910390fd5b806009600082825461139291906153cc565b90915550505050565b60006113a78383613333565b9392505050565b336001600160a01b037f000000000000000000000000000000000000000000000000000000000000000016146113f9576040516335fdcccd60e21b815233600482015260240161098e565b61140a6114058261548b565b6134e4565b50565b306001600160a01b037f000000000000000000000000000000000000000000000000000000000000000016146114585760405163f2d90f0b60e01b815230600482015260240161098e565b60008181526042602052604081208054600282015491926001600160a01b039091169190611489622dc6c0836153b9565b6001850154909150336001600160a01b038516146114ba57604051632619c8db60e01b815260040160405180910390fd5b806000036114db5760405163d9ec6bf960e01b815260040160405180910390fd5b60006114e78284613333565b905061151e6001600160a01b037f000000000000000000000000000000000000000000000000000000000000000016333087613950565b6040516340c10f1960e01b8152336004820152602481018290527f00000000000000000000000000000000000000000000000000000000000000006001600160a01b0316906340c10f1990604401600060405180830381600087803b15801561158657600080fd5b505af115801561159a573d6000803e3d6000fd5b505050506115a7836139b7565b622dc6c0600760008282546115bc91906153cc565b90915550506040805185815260208101839052339189917fa65ff29b695df0b2be7f33b239d6bb790c3f1b603a0531cdec7d20d9f1059206910160405180910390a35050506000938452505060426020908152604080842080546001600160a01b031916815560018101859055600281018590556003018490556041909152909120805460ff1916905550565b306001600160a01b037f000000000000000000000000000000000000000000000000000000000000000016146116945760405163f2d90f0b60e01b815230600482015260240161098e565b336001600160a01b037f000000000000000000000000000000000000000000000000000000000000000016146116dd576040516354ad07a960e11b815260040160405180910390fd5b600455565b336001600160a01b037f0000000000000000000000000000000000000000000000000000000000000000161461172b576040516354ad07a960e11b815260040160405180910390fd5b600754611784906001600160a01b037f000000000000000000000000000000000000000000000000000000000000000016907f000000000000000000000000000000000000000000000000000000000000000090613a95565b6000600755565b306001600160a01b037f000000000000000000000000000000000000000000000000000000000000000016146117d65760405163f2d90f0b60e01b815230600482015260240161098e565b336001600160a01b037f0000000000000000000000000000000000000000000000000000000000000000161461181f576040516354ad07a960e11b815260040160405180910390fd5b6000805b603c548110156119a057826001600160401b0316603c828154811061184a5761184a615376565b6000918252602090912060048204015460039091166008026101000a90046001600160401b031603611998576001600160401b0383166000908152603e6020526040902054603c80546001600160a01b039092169350906118ad906001906153b9565b815481106118bd576118bd615376565b90600052602060002090600491828204019190066008029054906101000a90046001600160401b0316603c82815481106118f9576118f9615376565b90600052602060002090600491828204019190066008026101000a8154816001600160401b0302191690836001600160401b03160217905550603c80548061194357611943615537565b6000828152602080822060046000199094019384040180546001600160401b03600860038716026101000a810219909116909155929093559085168152603e9091526040902080546001600160a01b03191690555b600101611823565b506040516001600160401b03831681527f209da0eeb33912ffc9f84f28ae619ed32fba9e7d6ad17150363077cd7cb8286e9060200160405180910390a16000818360014243446040516020016119fb9695949392919061531d565b60408051808303601f190181528282528051602090910120600680845260e08401909252925060009190816020015b6060815260200190600190039081611a2a579050509050600354604051602001611a5691815260200190565b60405160208183030381529060405281600081518110611a7857611a78615376565b6020026020010181905250600454604051602001611a9891815260200190565b60405160208183030381529060405281600181518110611aba57611aba615376565b60200260200101819052506001604051602001611ad7919061538c565b60405160208183030381529060405281600281518110611af957611af9615376565b602002602001018190525083604051602001611b28919060c09190911b6001600160c01b031916815260080190565b60405160208183030381529060405281600381518110611b4a57611b4a615376565b602002602001018190525081604051602001611b6891815260200190565b60405160208183030381529060405281600481518110611b8a57611b8a615376565b60200260200101819052506001604051602001611ba7919061538c565b60405160208183030381529060405281600581518110611bc957611bc9615376565b60200260200101819052506000611bfb82604051806103e001604052806103bd8152602001615a976103bd913961325c565b90507fd75d58d70d42ebace891f9fe341baa5676e0b6b95db8b4d76f2fd283d50e326181604051611c2e91815260200190565b60405180910390a15050505050565b306001600160a01b037f00000000000000000000000000000000000000000000000000000000000000001614611c885760405163f2d90f0b60e01b815230600482015260240161098e565b336001600160a01b037f00000000000000000000000000000000000000000000000000000000000000001614611cd1576040516354ad07a960e11b815260040160405180910390fd5b6002805460ff191660ff92909216919091179055565b306001600160a01b037f00000000000000000000000000000000000000000000000000000000000000001614611d325760405163f2d90f0b60e01b815230600482015260240161098e565b620f4240811015611d5b57604051632a1c0cc960e21b8152620f4240600482015260240161098e565b611d67600560ff61554d565b63ffffffff16603d8054905010611d9457604051632b07c58960e21b815260ff600482015260240161098e565b6000548015801590611e6157506008546001546007546040516370a0823160e01b815230600482015284939291906001600160a01b037f000000000000000000000000000000000000000000000000000000000000000016906370a0823190602401602060405180830381865afa158015611e13573d6000803e3d6000fd5b505050506040513d601f19601f82011682018060405250810190611e379190615571565b611e4190876153cc565b611e4b91906153b9565b611e5591906153cc565b611e5f91906153b9565b115b15611e8257604051632b07c58960e21b81526004810182905260240161098e565b60408051600380825260808201909252600091816020015b6060815260200190600190039081611e9a579050509050600354604051602001611ec691815260200190565b60405160208183030381529060405281600081518110611ee857611ee8615376565b6020026020010181905250600454604051602001611f0891815260200190565b60405160208183030381529060405281600181518110611f2a57611f2a615376565b60200260200101819052506000604051602001611f47919061538c565b60405160208183030381529060405281600281518110611f6957611f69615376565b60200260200101819052506000611f9b82604051806103e001604052806103bd8152602001615a976103bd913961325c565b6000818152604160205260408120805460ff19169055909150611fbf603c426153cc565b60008381526042602090815260409182902080546001600160a01b031916339081178255600282018a90556003909101849055825189815291820184905292935084917f82c4e4605400197b31e6f48ebdef98b8027e2d22fad2bf8ca5c3eee578d55355910160405180910390a35050505050565b306001600160a01b037f0000000000000000000000000000000000000000000000000000000000000000161461207f5760405163f2d90f0b60e01b815230600482015260240161098e565b336001600160a01b037f000000000000000000000000000000000000000000000000000000000000000016146120c8576040516354ad07a960e11b815260040160405180910390fd5b60008190556040518181527e501be862d99d4d08c79bac5f425be0e8df61805bf83721fdb7500f5dafd4b29060200160405180910390a150565b6060603d805480602002602001604051908101604052809291908181526020016000905b828210156121925760008481526020908190206040805160808101825260038602909201805460f881901b6001600160f81b031916845261010090046001600160401b031683850152600180820154928401929092526002015460608301529083529092019101612126565b50505050905090565b306001600160a01b037f000000000000000000000000000000000000000000000000000000000000000016146121e65760405163f2d90f0b60e01b815230600482015260240161098e565b33600090815260436020526040902054806122145760405163144a191f60e21b815260040160405180910390fd5b600081815260456020908152604080832081516101008101835281546001600160a01b03168152600182015493810193909352600281015491830182905260038101546060840152600481015460808401819052600582015460a0850152600682015460c0850181905260079092015460e085015292938390036122ab5760405163d9ec6bf960e01b815260040160405180910390fd5b600a8111156122d0576040516331b82aab60e01b81526004810182905260240161098e565b82600854116122e05760006122ee565b826008546122ee91906153b9565b60085533600090815260436020908152604080832083905587835260448252808320839055604590915280822080546001600160a01b03191681556001810183905560028101839055600381018390556004808201849055600582018490556006820184905560079091019290925551630852cd8d60e31b81529081018390526001600160a01b037f000000000000000000000000000000000000000000000000000000000000000016906342966c6890602401600060405180830381600087803b1580156123bc57600080fd5b505af11580156123d0573d6000803e3d6000fd5b5061240a9250506001600160a01b037f00000000000000000000000000000000000000000000000000000000000000001690503385613a95565b604080517f00000000000000000000000000000000000000000000000000000000000000006001600160a01b031681526020810185905233917fb515e62cb91eefbb2d01f299abad52621804175a431b7773f6c1a3bfb8bf2605910160405180910390a25050505050565b306001600160a01b037f000000000000000000000000000000000000000000000000000000000000000016146124c05760405163f2d90f0b60e01b815230600482015260240161098e565b806000036124e457604051632a1c0cc960e21b81526001600482015260240161098e565b33600090815260436020526040902054156125125760405163d9ec6bf960e01b815260040160405180910390fd5b60408051600280825260608201909252600091816020015b606081526020019060019003908161252a57905050905060035460405160200161255691815260200190565b6040516020818303038152906040528160008151811061257857612578615376565b602002602001018190525060045460405160200161259891815260200190565b604051602081830303815290604052816001815181106125ba576125ba615376565b6020908102919091018101919091526040516bffffffffffffffffffffffff193360601b16918101919091526034810183905243605482015244607482015260009060940160408051601f198184030181529190528051602090910120905061264e6001600160a01b037f000000000000000000000000000000000000000000000000000000000000000016333086613950565b600061267583604051806103e001604052806103bd8152602001615a976103bd913961325c565b6000818152604160209081526040808320805460ff1916600117905585835260458252918290208054336001600160a01b031990911617905581516318160ddd60e01b815291519293506001600160a01b037f000000000000000000000000000000000000000000000000000000000000000016926318160ddd9260048082019392918290030181865afa158015612711573d6000803e3d6000fd5b505050506040513d601f19601f820116820180604052508101906127359190615571565b600083815260456020908152604080832060018101949094556002909301879055838252604481528282208590553380835260439091529190208390557fda3cf41c6b927dce9ccfd0d83949ac6227fa42b0c48522e171a19fef4992ac9c7f00000000000000000000000000000000000000000000000000000000000000006127bf603c426153cc565b604080516001600160a01b0390931683526020830191909152015b60405180910390a250505050565b306001600160a01b037f000000000000000000000000000000000000000000000000000000000000000016146128335760405163f2d90f0b60e01b815230600482015260240161098e565b336001600160a01b037f0000000000000000000000000000000000000000000000000000000000000000161461287e5760405163f4ebd43560e01b815233600482015260240161098e565b6001600160a01b0381166128a5576040516367f93df760e01b815260040160405180910390fd5b6128b96001600160a01b0384168284613a95565b81600160008282546128cb91906153cc565b9091555050505050565b60006113a783837f00000000000000000000000000000000000000000000000000000000000000006001600160a01b03166318160ddd6040518163ffffffff1660e01b8152600401602060405180830381865afa15801561293a573d6000803e3d6000fd5b505050506040513d601f19601f8201168201806040525081019061295e9190615571565b613ac6565b306001600160a01b037f000000000000000000000000000000000000000000000000000000000000000016146129ae5760405163f2d90f0b60e01b815230600482015260240161098e565b336001600160a01b037f000000000000000000000000000000000000000000000000000000000000000016146129f7576040516354ad07a960e11b815260040160405180910390fd5b600280546001600160401b039092166101000268ffffffffffffffff0019909216919091179055565b60007f00000000000000000000000000000000000000000000000000000000000000006001600160a01b0316826001600160a01b03161480612a9357507f00000000000000000000000000000000000000000000000000000000000000006001600160a01b0316826001600160a01b0316145b8061094157507f00000000000000000000000000000000000000000000000000000000000000006001600160a01b0316826001600160a01b03161492915050565b600080612b02847f000000000000000000000000000000000000000000000000000000000000000085613be5565b905060007f00000000000000000000000000000000000000000000000000000000000000006001600160a01b03166320487ded86846040518363ffffffff1660e01b8152600401612b549291906155da565b602060405180830381865afa158015612b71573d6000803e3d6000fd5b505050506040513d601f19601f82011682018060405250810190612b959190615571565b60405163095ea7b360e01b81526001600160a01b037f000000000000000000000000000000000000000000000000000000000000000081166004830152602482018790529192507f00000000000000000000000000000000000000000000000000000000000000009091169063095ea7b3906044016020604051808303816000875af1158015612c29573d6000803e3d6000fd5b505050506040513d601f19601f82011682018060405250810190612c4d91906156be565b5060405163095ea7b360e01b81526001600160a01b037f000000000000000000000000000000000000000000000000000000000000000081166004830152602482018390527f0000000000000000000000000000000000000000000000000000000000000000169063095ea7b3906044016020604051808303816000875af1158015612cdd573d6000803e3d6000fd5b505050506040513d601f19601f82011682018060405250810190612d0191906156be565b506040516396f4e9f960e01b81526001600160a01b037f000000000000000000000000000000000000000000000000000000000000000016906396f4e9f990612d5090889086906004016155da565b6020604051808303816000875af1158015612d6f573d6000803e3d6000fd5b505050506040513d601f19601f82011682018060405250810190612d939190615571565b6001600160401b0386166000818152603e60209081526040918290205482519384526001600160a01b03908116918401919091527f00000000000000000000000000000000000000000000000000000000000000001682820152606082018490525191945084917f245ffa4bbee02ae89252f488fb2ef63bc63b02f6a5d70060db288b8c2b74fbc79181900360800190a2505092915050565b600083815260416020526040902054815160ff9091169015612fb0576000816001811115612e5c57612e5c6150b9565b03612e9457600084815260426020526040812080546001600160a01b0319168155600181018290556002810182905560030155612f7e565b6001816001811115612ea857612ea86150b9565b03612f7e57600084815260446020908152604080832054808452604590925290912080546002909101546001600160a01b0391821691612f0b907f0000000000000000000000000000000000000000000000000000000000000000168383613a95565b50600091825260456020908152604080842080546001600160a01b03191681556001810185905560028101859055600381018590556004810185905560058101859055600681018590556007018490556001600160a01b0392909216835260438152818320839055868352604490528120555b837fb018c90b76b67eeab234f24fecd3b6be52cf03eae9ce32a1151389b77a4dd7df82846040516127da9291906156db565b6000816001811115612fc457612fc46150b9565b03612fd857612fd38484613daa565b612ffb565b6001816001811115612fec57612fec6150b9565b03612ffb57612ffb8484613dd8565b5050506000908152604160205260409020805460ff19169055565b80516000036130225750565b603d548151600082900361303557505050565b8060000361304257505050565b600f60005b838110156132555760005b838110156132355785818151811061306c5761306c615376565b60200260200101516001600160f81b031916603d838154811061309157613091615376565b600091825260209091206003909102015460f81b6001600160f81b0319160361320c57600554603d83815481106130ca576130ca615376565b90600052602060002090600302016002015411156130ec576000600555613128565b603d82815481106130ff576130ff615376565b9060005260206000209060030201600201546005600082825461312291906153b9565b90915550505b603d613133866156fd565b9550858154811061314657613146615376565b9060005260206000209060030201603d838154811061316757613167615376565b600091825260209091208254600390920201805460ff90921660ff1983168117825583546001600160401b0361010091829004160268ffffffffffffffffff199093161791909117815560018083015490820155600291820154910155603d8054806131d5576131d5615537565b600082815260208120600360001990930192830201805468ffffffffffffffffff1916815560018101829055600201559055613235565b6001600160401b03831661322082846153cc565b1061322d57505050505050565b600101613052565b50816001600160401b0316811061324d575050505050565b600101613047565b5050505050565b600061329f6040805160e0810190915280600081526020016000815260200160008152602001606081526020016060815260200160608152602001606081525090565b6132a98184613e24565b6002546132ca90829060ff81169061010090046001600160401b0316613e31565b6132d48185613ec7565b61332b6132e082613ef1565b7f0000000000000000000000000000000000000000000000000000000000000000621e84807f00000000000000000000000000000000000000000000000000000000000000006141c9565b949350505050565b6007546005546001546040516370a0823160e01b81523060048201526000938493909290916001600160a01b037f000000000000000000000000000000000000000000000000000000000000000016906370a0823190602401602060405180830381865afa1580156133a9573d6000803e3d6000fd5b505050506040513d601f19601f820116820180604052508101906133cd9190615571565b6133d791906153cc565b6133e191906153cc565b6133eb91906153b9565b905060006133f982866153cc565b905060006134068261429b565b905060006134138661429b565b905060007f00000000000000000000000000000000000000000000000000000000000000006001600160a01b03166318160ddd6040518163ffffffff1660e01b8152600401602060405180830381865afa158015613475573d6000803e3d6000fd5b505050506040513d601f19601f820116820180604052508101906134999190615571565b9050600081156134d5578184816134b086836153cc565b6134ba9190615714565b6134c49190615741565b6134ce91906153b9565b90506134d8565b50815b98975050505050505050565b806020015181604001518060200190518101906135019190615755565b6001600160401b0382166000908152603f602090815260408083206001600160a01b038516845290915290205460011461355957604051631cc6bc1360e01b81526001600160a01b038216600482015260240161098e565b600080600085606001518060200190518101906135769190615772565b9250925092506000808211801561359557506001600160a01b03831615155b90506001600160a01b0384161515811561372357875160405163255709e560e11b81526000916001600160a01b037f00000000000000000000000000000000000000000000000000000000000000001691634aae13ca916135fc9160040190815260200190565b600060405180830381865afa158015613619573d6000803e3d6000fd5b505050506040513d6000823e601f3d908101601f19168201604052613641919081019061581f565b8951815191925060009114801561365a575060c0820151155b8061366457508151155b905080156136d1576136cc868b6080015160008151811061368757613687615376565b6020026020010151602001517f00000000000000000000000000000000000000000000000000000000000000006001600160a01b0316613a959092919063ffffffff16565b61371c565b6000858b608001516000815181106136eb576136eb615376565b60200260200101516020015161370191906153b9565b9050806001600082825461371591906153b9565b9091555050505b505061387a565b801561387a576001600160a01b038516600090815260436020526040902054806137605760405163144a191f60e21b815260040160405180910390fd5b600081815260456020526040812060808b015180519192909161378557613785615376565b602002602001015160200151816006015410156137a35760006137d5565b89608001516000815181106137ba576137ba615376565b60200260200101516020015181600601546137d591906153b9565b600682015560808a015180516000906137f0576137f0615376565b602002602001015160200151600954101561380c57600061383c565b896080015160008151811061382357613823615376565b60200260200101516020015160095461383c91906153b9565b60095560808a0151805160009061385557613855615376565b6020026020010151602001516008600082825461387291906153cc565b909155505050505b87600001517f51cb40e9081d9a8a44348b461bf87b7272f3cfb240e2bb94ffe3e45b1215af4f89602001518a604001518060200190518101906138bd9190615755565b8b608001516000815181106138d4576138d4615376565b6020026020010151600001518c608001516000815181106138f7576138f7615376565b60200260200101516020015160405161393e94939291906001600160401b039490941684526001600160a01b03928316602085015291166040830152606082015260800190565b60405180910390a25050505050505050565b6040516001600160a01b038481166024830152838116604483015260648201839052610a549186918216906323b872dd906084015b604051602081830303815290604052915060e01b6020820180516001600160e01b0383818316178352505050506142bd565b603c5460006402540be4006139cd8360016153cc565b6139dc6402540be40086615714565b6139e69190615741565b6139f09190615741565b905060005b82811015610a54576000613a44603c8381548110613a1557613a15615376565b90600052602060002090600491828204019190066008029054906101000a90046001600160401b031684612ad4565b9050613a8c81603c8481548110613a5d57613a5d615376565b90600052602060002090600491828204019190066008029054906101000a90046001600160401b031685614320565b506001016139f5565b6040516001600160a01b038381166024830152604482018390526110a591859182169063a9059cbb90606401613985565b6007546005546001546040516370a0823160e01b81523060048201526000938493909290916001600160a01b037f000000000000000000000000000000000000000000000000000000000000000016906370a0823190602401602060405180830381865afa158015613b3c573d6000803e3d6000fd5b505050506040513d601f19601f82011682018060405250810190613b609190615571565b613b6a91906153cc565b613b7491906153cc565b613b7e91906153b9565b90506000613b8c82876153cc565b905060006402540be400856402540be40088613ba78661429b565b613bb19190615714565b613bbb9190615714565b613bc59190615741565b613bcf9190615741565b9050613bda81614471565b979650505050505050565b613c206040518060a0016040528060608152602001606081526020016060815260200160006001600160a01b03168152602001606081525090565b604080516001808252818301909252600091816020015b6040805180820190915260008082526020820152815260200190600190039081613c375790505090506040518060400160405280856001600160a01b031681526020018481525081600081518110613c9157613c91615376565b6020908102919091018101919091526040805160a0810182526001600160401b0388166000908152603e9093529120546001600160a01b031660c08201528060e0810160408051601f19818403018152918152908252805160006020828101829052928201819052606082015291019060800160405160208183030381529060405281526020018281526020017f00000000000000000000000000000000000000000000000000000000000000006001600160a01b03168152602001613d9f60405180602001604052806205573081525060408051915160248084019190915281518084039091018152604490920190526020810180516001600160e01b03166397a657c960e01b17905290565b905295945050505050565b60008281526042602052604081209080613dc384614489565b60018501829055909250905061325581613016565b600080613de483614489565b600086815260446020908152604080832054808452604590925290912092945090925090613e13818386614566565b613e1c83613016565b505050505050565b610b638260008084614685565b6000613e3e610100614703565b9050613e71604051806040016040528060068152602001651cdb1bdd125160d21b8152508261472490919063ffffffff16565b613e7e8160ff851661473d565b6040805180820190915260078152663b32b939b4b7b760c91b6020820152613ea7908290614724565b613eb1818361473d565b6002602085015251516080909301929092525050565b8051600003613ee95760405163fe936cb760e01b815260040160405180910390fd5b60c090910152565b60606000613f00610100614703565b9050613f396040518060400160405280600c81526020016b31b7b232a637b1b0ba34b7b760a11b8152508261472490919063ffffffff16565b8251613f57906002811115613f5057613f506150b9565b8290614749565b6040805180820190915260088152676c616e677561676560c01b6020820152613f81908290614724565b6040830151613f98908015613f5057613f506150b9565b604080518082019091526006815265736f7572636560d01b6020820152613fc0908290614724565b6060830151613fd0908290614724565b60a08301515115614064576040805180820190915260048152636172677360e01b6020820152614001908290614724565b61400a81614782565b60005b8360a001515181101561405a5761404a8460a00151828151811061403357614033615376565b60200260200101518361472490919063ffffffff16565b614053816158f5565b905061400d565b50614064816147a6565b6080830151511561412857600083602001516002811115614087576140876150b9565b036140a55760405163a80d31f760e01b815260040160405180910390fd5b60408051808201909152600f81526e39b2b1b932ba39a637b1b0ba34b7b760891b60208201526140d6908290614724565b6140ef83602001516002811115613f5057613f506150b9565b6040805180820190915260078152667365637265747360c81b6020820152614118908290614724565b60808301516141289082906147c4565b60c083015151156141c15760408051808201909152600981526862797465734172677360b81b602082015261415e908290614724565b61416781614782565b60005b8360c00151518110156141b7576141a78460c00151828151811061419057614190615376565b6020026020010151836147c490919063ffffffff16565b6141b0816158f5565b905061416a565b506141c1816147a6565b515192915050565b6000807f00000000000000000000000000000000000000000000000000000000000000006001600160a01b031663461d27628688600188886040518663ffffffff1660e01b815260040161422195949392919061590e565b6020604051808303816000875af1158015614240573d6000803e3d6000fd5b505050506040513d601f19601f820116820180604052508101906142649190615571565b60405190915081907f1131472297a800fee664d1d89cfa8f7676ff07189ecc53f80bbb5f4969099db890600090a295945050505050565b6000620f42406142b3670de0b6b3a764000084615714565b6109419190615741565b60006142d26001600160a01b038416836147d1565b905080516000141580156142f75750808060200190518101906142f591906156be565b155b156110a557604051635274afe760e01b81526001600160a01b038416600482015260240161098e565b60065460009060ff9081161061433d576143386147df565b61436b565b600680546000906143509060ff16615957565b91906101000a81548160ff021916908360ff160217905560f81b5b604080516080810182526001600160f81b0319831681526001600160401b038087166020830190815292820188815260608301878152603d80546001810182556000918252945160039095027fece66cfdbd22e3f37d348a3d8e19074452862cd65fd4b9a11f0336d1ac6d1dc38101805497519095166101000268ffffffffffffffffff1990971660f89690961c9590951795909517909255517fece66cfdbd22e3f37d348a3d8e19074452862cd65fd4b9a11f0336d1ac6d1dc4830155517fece66cfdbd22e3f37d348a3d8e19074452862cd65fd4b9a11f0336d1ac6d1dc5909101556005805492935084929091906144669084906153cc565b909155505050505050565b6000670de0b6b3a76400006142b3620f424084615714565b600060606000602084015190506000602085516144a691906153b9565b6001600160401b038111156144bd576144bd614e90565b6040519080825280602002602001820160405280156144e6578160200160208202803683370190505b50905060205b855181101561455b5785818151811061450757614507615376565b602001015160f81c60f81b8260208361452091906153b9565b8151811061453057614530615376565b6001600160f81b03199092166020928302919091019091015280614553816158f5565b9150506144ec565b509094909350915050565b60028301546001840154603c546000614580858585613ac6565b9050600061458f8360016153cc565b6145999083615741565b600489018390556005890181905590506145b381836153b9565b60068901556145c3603c426153cc565b600789015560405163ebbde5bb60e01b8152600481018890527f00000000000000000000000000000000000000000000000000000000000000006001600160a01b03169063ebbde5bb90602401600060405180830381600087803b15801561462a57600080fd5b505af115801561463e573d6000803e3d6000fd5b505050507f072cfc8eeed900142cd597457dffbf08beac40f556855ea38bdc1f9efd7837e88760405161467391815260200190565b60405180910390a15050505050505050565b80516000036146a7576040516322ce3edd60e01b815260040160405180910390fd5b838360028111156146ba576146ba6150b9565b908160028111156146cd576146cd6150b9565b905250604084018280156146e3576146e36150b9565b908180156146f3576146f36150b9565b9052506060909301929092525050565b61470b614daa565b805161471790836148ea565b5060006020820152919050565b6147318260038351614961565b81516110a59082614a7a565b610b6382600083614961565b81516147569060c2614a9b565b50610b63828260405160200161476e91815260200190565b6040516020818303038152906040526147c4565b61478d816004614b04565b6001816020018181516147a091906153cc565b90525050565b6147b1816007614b04565b6001816020018181516147a091906153b9565b6147318260028351614961565b60606113a783836000614b1b565b600080603d805480602002602001604051908101604052809291908181526020016000905b828210156148705760008481526020908190206040805160808101825260038602909201805460f881901b6001600160f81b031916845261010090046001600160401b031683850152600180820154928401929092526002015460608301529083529092019101614804565b5050825192935060019150600090505b828110156148df578160f81b6001600160f81b0319168482815181106148a8576148a8615376565b6020026020010151600001516001600160f81b031916036148d7576148cc82615957565b915060009050614880565b600101614880565b5060f81b9392505050565b60408051808201909152606081526000602082015261490a602083615976565b156149325761491a602083615976565b6149259060206153b9565b61492f90836153cc565b91505b60208084018390526040518085526000815290818401018181101561495657600080fd5b604052509192915050565b6017816001600160401b031611614987578251610a549060e0600585901b168317614a9b565b60ff816001600160401b0316116149c75782516149af906018611fe0600586901b1617614a9b565b508251610a54906001600160401b0383166001614bb8565b61ffff816001600160401b031611614a085782516149f0906019611fe0600586901b1617614a9b565b508251610a54906001600160401b0383166002614bb8565b63ffffffff816001600160401b031611614a4b578251614a3390601a611fe0600586901b1617614a9b565b508251610a54906001600160401b0383166004614bb8565b8251614a6290601b611fe0600586901b1617614a9b565b508251610a54906001600160401b0383166008614bb8565b6040805180820190915260608152600060208201526113a783838451614c3d565b6040805180820190915260608152600060208201528251516000614ac08260016153cc565b905084602001518210614ae157614ae185614adc836002615714565b614d0e565b8451602083820101858153508051821115614afa578181525b5093949350505050565b81516110a590601f611fe0600585901b1617614a9b565b606081471015614b405760405163cd78605960e01b815230600482015260240161098e565b600080856001600160a01b03168486604051614b5c919061598a565b60006040518083038185875af1925050503d8060008114614b99576040519150601f19603f3d011682016040523d82523d6000602084013e614b9e565b606091505b5091509150614bae868383614d25565b9695505050505050565b6040805180820190915260608152600060208201528351516000614bdc82856153cc565b90508560200151811115614bf957614bf986614adc836002615714565b60006001614c0986610100615a8a565b614c1391906153b9565b90508651828101878319825116178152508051831115614c31578281525b50959695505050505050565b6040805180820190915260608152600060208201528251821115614c6057600080fd5b8351516000614c6f84836153cc565b90508560200151811115614c8c57614c8c86614adc836002615714565b855180518382016020019160009180851115614ca6578482525b505050602086015b60208610614ce65780518252614cc56020836153cc565b9150614cd26020826153cc565b9050614cdf6020876153b9565b9550614cae565b51815160001960208890036101000a0190811690199190911617905250849150509392505050565b8151614d1a83836148ea565b50610a548382614a7a565b606082614d3a57614d3582614d81565b6113a7565b8151158015614d5157506001600160a01b0384163b155b15614d7a57604051639996b31560e01b81526001600160a01b038516600482015260240161098e565b50806113a7565b805115614d915780518082602001fd5b604051630a12f52160e11b815260040160405180910390fd5b6040518060400160405280614dd2604051806040016040528060608152602001600081525090565b8152602001600081525090565b600060208284031215614df157600080fd5b81356001600160e01b0319811681146113a757600080fd5b6001600160a01b038116811461140a57600080fd5b600060208284031215614e3057600080fd5b81356113a781614e09565b6001600160401b038116811461140a57600080fd5b803561120681614e3b565b600080600060608486031215614e7057600080fd5b8335614e7b81614e3b565b95602085013595506040909401359392505050565b634e487b7160e01b600052604160045260246000fd5b604080519081016001600160401b0381118282101715614ec857614ec8614e90565b60405290565b60405160a081016001600160401b0381118282101715614ec857614ec8614e90565b60405161010081016001600160401b0381118282101715614ec857614ec8614e90565b604051601f8201601f191681016001600160401b0381118282101715614f3b57614f3b614e90565b604052919050565b60006001600160401b03821115614f5c57614f5c614e90565b50601f01601f191660200190565b600082601f830112614f7b57600080fd5b8135614f8e614f8982614f43565b614f13565b818152846020838601011115614fa357600080fd5b816020850160208301376000918101602001919091529392505050565b600080600060608486031215614fd557600080fd5b8335925060208401356001600160401b0380821115614ff357600080fd5b614fff87838801614f6a565b9350604086013591508082111561501557600080fd5b5061502286828701614f6a565b9150509250925092565b6000806020838503121561503f57600080fd5b82356001600160401b038082111561505657600080fd5b818501915085601f83011261506a57600080fd5b81358181111561507957600080fd5b8660208260051b850101111561508e57600080fd5b60209290920196919550909350505050565b6000602082840312156150b257600080fd5b5035919050565b634e487b7160e01b600052602160045260246000fd5b6002811061140a57634e487b7160e01b600052602160045260246000fd5b602081016150fa836150cf565b91905290565b60008060006060848603121561511557600080fd5b833561512081614e3b565b9250602084013561513081614e09565b929592945050506040919091013590565b801515811461140a57600080fd5b60008060006060848603121561516457600080fd5b833561516f81614e3b565b9250602084013561517f81614e09565b9150604084013561518f81615141565b809150509250925092565b600080604083850312156151ad57600080fd5b50508035926020909101359150565b600080604083850312156151cf57600080fd5b82356151da81614e3b565b915060208301356151ea81614e09565b809150509250929050565b60006020828403121561520757600080fd5b81356001600160401b0381111561521d57600080fd5b820160a081850312156113a757600080fd5b60006020828403121561524157600080fd5b81356113a781614e3b565b60006020828403121561525e57600080fd5b813560ff811681146113a757600080fd5b602080825282518282018190526000919060409081850190868401855b828110156152d957815180516001600160f81b0319168552868101516001600160401b0316878601528581015186860152606090810151908501526080909301929085019060010161528c565b5091979650505050505050565b6000806000606084860312156152fb57600080fd5b833561530681614e09565b925060208401359150604084013561518f81614e09565b606087901b6bffffffffffffffffffffffff1916815260c086901b6001600160c01b0319166014820152615350856150cf565b60f89490941b601c850152601d840192909252603d830152605d820152607d0192915050565b634e487b7160e01b600052603260045260246000fd5b615395826150cf565b60f89190911b815260010190565b634e487b7160e01b600052601160045260246000fd5b81810381811115610941576109416153a3565b80820180821115610941576109416153a3565b600082601f8301126153f057600080fd5b813560206001600160401b0382111561540b5761540b614e90565b615419818360051b01614f13565b82815260069290921b8401810191818101908684111561543857600080fd5b8286015b8481101561548057604081890312156154555760008081fd5b61545d614ea6565b813561546881614e09565b8152818501358582015283529183019160400161543c565b509695505050505050565b600060a0823603121561549d57600080fd5b6154a5614ece565b823581526154b560208401614e50565b602082015260408301356001600160401b03808211156154d457600080fd5b6154e036838701614f6a565b604084015260608501359150808211156154f957600080fd5b61550536838701614f6a565b6060840152608085013591508082111561551e57600080fd5b5061552b368286016153df565b60808301525092915050565b634e487b7160e01b600052603160045260246000fd5b63ffffffff82811682821603908082111561556a5761556a6153a3565b5092915050565b60006020828403121561558357600080fd5b5051919050565b60005b838110156155a557818101518382015260200161558d565b50506000910152565b600081518084526155c681602086016020860161558a565b601f01601f19169290920160200192915050565b600060406001600160401b038516835260208181850152845160a08386015261560660e08601826155ae565b905081860151603f198087840301606088015261562383836155ae565b88860151888203830160808a01528051808352908601945060009350908501905b8084101561567657845180516001600160a01b0316835286015186830152938501936001939093019290860190615644565b5060608901516001600160a01b031660a08901526080890151888203830160c08a015295506156a581876155ae565b9a9950505050505050505050565b805161120681615141565b6000602082840312156156d057600080fd5b81516113a781615141565b6156e4836150cf565b82815260406020820152600061332b60408301846155ae565b60008161570c5761570c6153a3565b506000190190565b8082028115828204841417610941576109416153a3565b634e487b7160e01b600052601260045260246000fd5b6000826157505761575061572b565b500490565b60006020828403121561576757600080fd5b81516113a781614e09565b60008060006060848603121561578757600080fd5b835161579281614e09565b60208501519093506157a381614e09565b80925050604084015190509250925092565b805161120681614e09565b80516002811061120657600080fd5b805161120681614e3b565b600082601f8301126157eb57600080fd5b81516157f9614f8982614f43565b81815284602083860101111561580e57600080fd5b61332b82602083016020870161558a565b60006020828403121561583157600080fd5b81516001600160401b038082111561584857600080fd5b90830190610100828603121561585d57600080fd5b615865614ef0565b82518152615875602084016157b5565b6020820152615886604084016157b5565b6040820152606083015160608201526158a1608084016157c0565b60808201526158b260a084016157cf565b60a08201526158c360c084016156b3565b60c082015260e0830151828111156158da57600080fd5b6158e6878286016157da565b60e08301525095945050505050565b600060018201615907576159076153a3565b5060010190565b6001600160401b038616815260a06020820152600061593060a08301876155ae565b61ffff9590951660408301525063ffffffff92909216606083015260809091015292915050565b600060ff821660ff810361596d5761596d6153a3565b60010192915050565b6000826159855761598561572b565b500690565b6000825161599c81846020870161558a565b9190910192915050565b600181815b808511156159e15781600019048211156159c7576159c76153a3565b808516156159d457918102915b93841c93908002906159ab565b509250929050565b6000826159f857506001610941565b81615a0557506000610941565b8160018114615a1b5760028114615a2557615a41565b6001915050610941565b60ff841115615a3657615a366153a3565b50506001821b610941565b5060208310610133831016604e8410600b8410161715615a64575081810a610941565b615a6e83836159a6565b8060001904821115615a8257615a826153a3565b029392505050565b60006113a783836159e956fe747279207b20636f6e73742075203d202768747470733a2f2f7261772e67697468756275736572636f6e74656e742e636f6d2f6574686572732d696f2f6574686572732e6a732f76362e31302e302f646973742f6574686572732e756d642e6d696e2e6a73273b20636f6e73742071203d202768747470733a2f2f7261772e67697468756275736572636f6e74656e742e636f6d2f636f6e6365726f2f636f6e7472616374732d636369702f27202b202772656c6561736527202b20602f7061636b616765732f686172646861742f7461736b732f434c46536372697074732f646973742f706f6f6c2f247b6279746573417267735b325d203d3d3d202730783127203f2027646973747269627574654c697175696469747927203a2027676574546f74616c42616c616e6365277d2e6d696e2e6a73603b20636f6e7374205b742c20705d203d2061776169742050726f6d6973652e616c6c285b66657463682875292c2066657463682871295d293b20636f6e7374205b652c20635d203d2061776169742050726f6d6973652e616c6c285b742e7465787428292c20702e7465787428295d293b20636f6e73742067203d206173796e632073203d3e207b2072657475726e20282027307827202b2041727261792e66726f6d286e65772055696e743841727261792861776169742063727970746f2e737562746c652e64696765737428275348412d323536272c206e65772054657874456e636f64657228292e656e636f6465287329292929202e6d61702876203d3e2028273027202b20762e746f537472696e6728313629292e736c696365282d32292e746f4c6f77657243617365282929202e6a6f696e2827272920293b207d3b20636f6e73742072203d20617761697420672863293b20636f6e73742078203d20617761697420672865293b20636f6e73742062203d206279746573417267735b305d2e746f4c6f7765724361736528293b20636f6e7374206f203d206279746573417267735b315d2e746f4c6f7765724361736528293b206966202872203d3d3d20622026262078203d3d3d206f29207b20636f6e737420657468657273203d206e65772046756e6374696f6e2865202b20273b2072657475726e206574686572733b272928293b2072657475726e206177616974206576616c2863293b207d207468726f77206e6577204572726f722860247b727d213d247b627d7c7c247b787d213d247b6f7d60293b207d20636174636820286529207b207468726f77206e6577204572726f7228652e6d6573736167652e736c69636528302c2032353529293b7da264697066735822122072fe4b5fcecd7e7bc3db53cc1637473bc4e88acc13af62e7f87ab0424d6db8eb64736f6c63430008140033",
	"linkReferences": {},
	"deployedLinkReferences": {}
}