{
	"_format": "hh-sol-artifact-1",
	"contractName": "ConceroParentPool",
	"sourceName": "contracts/ConceroParentPool.sol",
	"abi": [
		{
			"inputs": [
				{
					"internalType": "address",
					"name": "_parentPoolProxy",
					"type": "address"
				},
				{
					"internalType": "address",
					"name": "_link",
					"type": "address"
				},
				{
					"internalType": "bytes32",
					"name": "_donId",
					"type": "bytes32"
				},
				{
					"internalType": "uint64",
					"name": "_subscriptionId",
					"type": "uint64"
				},
				{
					"internalType": "address",
					"name": "_functionsRouter",
					"type": "address"
				},
				{
					"internalType": "address",
					"name": "_ccipRouter",
					"type": "address"
				},
				{
					"internalType": "address",
					"name": "_usdc",
					"type": "address"
				},
				{
					"internalType": "address",
					"name": "_lpToken",
					"type": "address"
				},
				{
					"internalType": "address",
					"name": "_automation",
					"type": "address"
				},
				{
					"internalType": "address",
					"name": "_orchestrator",
					"type": "address"
				},
				{
					"internalType": "address",
					"name": "_owner",
					"type": "address"
				},
				{
					"internalType": "address[3]",
					"name": "_messengers",
					"type": "address[3]"
				}
			],
			"stateMutability": "nonpayable",
			"type": "constructor"
		},
		{
			"inputs": [
				{
					"internalType": "address",
					"name": "target",
					"type": "address"
				}
			],
			"name": "AddressEmptyCode",
			"type": "error"
		},
		{
			"inputs": [
				{
					"internalType": "address",
					"name": "account",
					"type": "address"
				}
			],
			"name": "AddressInsufficientBalance",
			"type": "error"
		},
		{
			"inputs": [],
			"name": "ConceroParentPool_ActiveRequestNotFulfilledYet",
			"type": "error"
		},
		{
			"inputs": [
				{
					"internalType": "uint256",
					"name": "minAmount",
					"type": "uint256"
				}
			],
			"name": "ConceroParentPool_AmountBelowMinimum",
			"type": "error"
		},
		{
			"inputs": [],
			"name": "ConceroParentPool_InvalidAddress",
			"type": "error"
		},
		{
			"inputs": [
				{
					"internalType": "uint256",
					"name": "maxCap",
					"type": "uint256"
				}
			],
			"name": "ConceroParentPool_MaxCapReached",
			"type": "error"
		},
		{
			"inputs": [],
			"name": "ConceroParentPool_NotAllowedToComplete",
			"type": "error"
		},
		{
			"inputs": [
				{
					"internalType": "address",
					"name": "caller",
					"type": "address"
				}
			],
			"name": "ConceroParentPool_NotConceroCLA",
			"type": "error"
		},
		{
			"inputs": [],
			"name": "ConceroParentPool_NotContractOwner",
			"type": "error"
		},
		{
			"inputs": [
				{
					"internalType": "address",
					"name": "caller",
					"type": "address"
				}
			],
			"name": "ConceroParentPool_NotInfraProxy",
			"type": "error"
		},
		{
			"inputs": [
				{
					"internalType": "address",
					"name": "caller",
					"type": "address"
				}
			],
			"name": "ConceroParentPool_NotMessenger",
			"type": "error"
		},
		{
			"inputs": [
				{
					"internalType": "address",
					"name": "caller",
					"type": "address"
				}
			],
			"name": "ConceroParentPool_NotParentPoolProxy",
			"type": "error"
		},
		{
			"inputs": [
				{
					"internalType": "bytes32",
					"name": "requestId",
					"type": "bytes32"
				}
			],
			"name": "ConceroParentPool_RequestAlreadyProceeded",
			"type": "error"
		},
		{
			"inputs": [],
			"name": "ConceroParentPool_RequestDoesntExist",
			"type": "error"
		},
		{
			"inputs": [
				{
					"internalType": "address",
					"name": "_sender",
					"type": "address"
				}
			],
			"name": "ConceroParentPool_SenderNotAllowed",
			"type": "error"
		},
		{
			"inputs": [
				{
					"internalType": "uint256",
					"name": "received",
					"type": "uint256"
				}
			],
			"name": "ConceroParentPool_WithdrawalAmountNotReady",
			"type": "error"
		},
		{
			"inputs": [],
			"name": "EmptyArgs",
			"type": "error"
		},
		{
			"inputs": [],
			"name": "EmptySource",
			"type": "error"
		},
		{
			"inputs": [],
			"name": "FailedInnerCall",
			"type": "error"
		},
		{
			"inputs": [
				{
					"internalType": "address",
					"name": "router",
					"type": "address"
				}
			],
			"name": "InvalidRouter",
			"type": "error"
		},
		{
			"inputs": [],
			"name": "NoInlineSecrets",
			"type": "error"
		},
		{
			"inputs": [],
			"name": "OnlyRouterCanFulfill",
			"type": "error"
		},
		{
			"inputs": [
				{
					"internalType": "address",
					"name": "token",
					"type": "address"
				}
			],
			"name": "SafeERC20FailedOperation",
			"type": "error"
		},
		{
			"anonymous": false,
			"inputs": [
				{
					"indexed": true,
					"internalType": "bytes32",
					"name": "ccipMessageId",
					"type": "bytes32"
				},
				{
					"indexed": false,
					"internalType": "uint64",
					"name": "srcChainSelector",
					"type": "uint64"
				},
				{
					"indexed": false,
					"internalType": "address",
					"name": "sender",
					"type": "address"
				},
				{
					"indexed": false,
					"internalType": "address",
					"name": "token",
					"type": "address"
				},
				{
					"indexed": false,
					"internalType": "uint256",
					"name": "amount",
					"type": "uint256"
				}
			],
			"name": "ConceroParentPool_CCIPReceived",
			"type": "event"
		},
		{
			"anonymous": false,
			"inputs": [
				{
					"indexed": true,
					"internalType": "bytes32",
					"name": "messageId",
					"type": "bytes32"
				},
				{
					"indexed": false,
					"internalType": "uint64",
					"name": "destinationChainSelector",
					"type": "uint64"
				},
				{
					"indexed": false,
					"internalType": "address",
					"name": "receiver",
					"type": "address"
				},
				{
					"indexed": false,
					"internalType": "address",
					"name": "linkToken",
					"type": "address"
				},
				{
					"indexed": false,
					"internalType": "uint256",
					"name": "fees",
					"type": "uint256"
				}
			],
			"name": "ConceroParentPool_CCIPSent",
			"type": "event"
		},
		{
			"anonymous": false,
			"inputs": [
				{
					"indexed": true,
					"internalType": "bytes32",
					"name": "requestId",
					"type": "bytes32"
				},
				{
					"indexed": false,
					"internalType": "enum IParentPool.RequestType",
					"name": "requestType",
					"type": "uint8"
				},
				{
					"indexed": false,
					"internalType": "bytes",
					"name": "error",
					"type": "bytes"
				}
			],
			"name": "ConceroParentPool_CLFRequestError",
			"type": "event"
		},
		{
			"anonymous": false,
			"inputs": [
				{
					"indexed": false,
					"internalType": "uint64",
					"name": "_chainSelector",
					"type": "uint64"
				}
			],
			"name": "ConceroParentPool_ChainAndAddressRemoved",
			"type": "event"
		},
		{
			"anonymous": false,
			"inputs": [
				{
					"indexed": false,
					"internalType": "address",
					"name": "concero",
					"type": "address"
				}
			],
			"name": "ConceroParentPool_ConceroContractUpdated",
			"type": "event"
		},
		{
			"anonymous": false,
			"inputs": [
				{
					"indexed": false,
					"internalType": "uint64",
					"name": "chainSelector",
					"type": "uint64"
				},
				{
					"indexed": false,
					"internalType": "address",
					"name": "conceroContract",
					"type": "address"
				},
				{
					"indexed": false,
					"internalType": "uint256",
					"name": "isAllowed",
					"type": "uint256"
				}
			],
			"name": "ConceroParentPool_ConceroSendersUpdated",
			"type": "event"
		},
		{
			"anonymous": false,
			"inputs": [
				{
					"indexed": true,
					"internalType": "bytes32",
					"name": "requestId",
					"type": "bytes32"
				},
				{
					"indexed": true,
					"internalType": "address",
					"name": "lpAddress",
					"type": "address"
				},
				{
					"indexed": false,
					"internalType": "uint256",
					"name": "usdcAmount",
					"type": "uint256"
				},
				{
					"indexed": false,
					"internalType": "uint256",
					"name": "_lpTokensToMint",
					"type": "uint256"
				},
				{
					"indexed": false,
					"internalType": "uint256",
					"name": "totalCrossChainLiquiditySnapshot",
					"type": "uint256"
				}
			],
			"name": "ConceroParentPool_DepositCompleted",
			"type": "event"
		},
		{
			"anonymous": false,
			"inputs": [
				{
					"indexed": true,
					"internalType": "bytes32",
					"name": "requestId",
					"type": "bytes32"
				},
				{
					"indexed": true,
					"internalType": "address",
					"name": "liquidityProvider",
					"type": "address"
				},
				{
					"indexed": false,
					"internalType": "uint256",
					"name": "_amount",
					"type": "uint256"
				},
				{
					"indexed": false,
					"internalType": "uint256",
					"name": "deadline",
					"type": "uint256"
				}
			],
			"name": "ConceroParentPool_DepositInitiated",
			"type": "event"
		},
		{
			"anonymous": false,
			"inputs": [
				{
					"indexed": false,
					"internalType": "uint256",
					"name": "_newCap",
					"type": "uint256"
				}
			],
			"name": "ConceroParentPool_MasterPoolCapUpdated",
			"type": "event"
		},
		{
			"anonymous": false,
			"inputs": [
				{
					"indexed": false,
					"internalType": "uint64",
					"name": "chainSelector",
					"type": "uint64"
				},
				{
					"indexed": false,
					"internalType": "address",
					"name": "pool",
					"type": "address"
				}
			],
			"name": "ConceroParentPool_PoolReceiverUpdated",
			"type": "event"
		},
		{
			"anonymous": false,
			"inputs": [
				{
					"indexed": false,
					"internalType": "bytes32",
					"name": "requestId",
					"type": "bytes32"
				}
			],
			"name": "ConceroParentPool_RedistributionStarted",
			"type": "event"
		},
		{
			"anonymous": false,
			"inputs": [
				{
					"indexed": false,
					"internalType": "bytes32",
					"name": "requestId",
					"type": "bytes32"
				}
			],
			"name": "ConceroParentPool_RequestUpdated",
			"type": "event"
		},
		{
			"anonymous": false,
			"inputs": [
				{
					"indexed": false,
					"internalType": "address",
					"name": "caller",
					"type": "address"
				},
				{
					"indexed": false,
					"internalType": "contract IERC20",
					"name": "token",
					"type": "address"
				},
				{
					"indexed": false,
					"internalType": "uint256",
					"name": "deadline",
					"type": "uint256"
				}
			],
			"name": "ConceroParentPool_WithdrawRequestInitiated",
			"type": "event"
		},
		{
			"anonymous": false,
			"inputs": [
				{
					"indexed": true,
					"internalType": "address",
					"name": "to",
					"type": "address"
				},
				{
					"indexed": false,
					"internalType": "address",
					"name": "token",
					"type": "address"
				},
				{
					"indexed": false,
					"internalType": "uint256",
					"name": "amount",
					"type": "uint256"
				}
			],
			"name": "ConceroParentPool_Withdrawn",
			"type": "event"
		},
		{
			"anonymous": false,
			"inputs": [
				{
					"indexed": true,
					"internalType": "address",
					"name": "token",
					"type": "address"
				},
				{
					"indexed": true,
					"internalType": "address",
					"name": "from",
					"type": "address"
				},
				{
					"indexed": false,
					"internalType": "uint256",
					"name": "amount",
					"type": "uint256"
				}
			],
			"name": "ConceroPool_Deposited",
			"type": "event"
		},
		{
			"anonymous": false,
			"inputs": [
				{
					"indexed": false,
					"internalType": "address",
					"name": "caller",
					"type": "address"
				},
				{
					"indexed": false,
					"internalType": "address",
					"name": "token",
					"type": "address"
				},
				{
					"indexed": false,
					"internalType": "uint256",
					"name": "condition",
					"type": "uint256"
				},
				{
					"indexed": false,
					"internalType": "uint256",
					"name": "amount",
					"type": "uint256"
				}
			],
			"name": "ConceroPool_WithdrawRequest",
			"type": "event"
		},
		{
			"anonymous": false,
			"inputs": [
				{
					"indexed": true,
					"internalType": "bytes32",
					"name": "id",
					"type": "bytes32"
				}
			],
			"name": "RequestFulfilled",
			"type": "event"
		},
		{
			"anonymous": false,
			"inputs": [
				{
					"indexed": true,
					"internalType": "bytes32",
					"name": "id",
					"type": "bytes32"
				}
			],
			"name": "RequestSent",
			"type": "event"
		},
		{
			"inputs": [],
			"name": "CL_FUNCTIONS_CALLBACK_GAS_LIMIT",
			"outputs": [
				{
					"internalType": "uint32",
					"name": "",
					"type": "uint32"
				}
			],
			"stateMutability": "view",
			"type": "function"
		},
		{
			"inputs": [
				{
					"internalType": "bytes32",
					"name": "_withdrawalId",
					"type": "bytes32"
				}
			],
			"name": "addWithdrawalOnTheWayAmountById",
			"outputs": [],
			"stateMutability": "nonpayable",
			"type": "function"
		},
		{
			"inputs": [
				{
					"components": [
						{
							"internalType": "bytes32",
							"name": "messageId",
							"type": "bytes32"
						},
						{
							"internalType": "uint64",
							"name": "sourceChainSelector",
							"type": "uint64"
						},
						{
							"internalType": "bytes",
							"name": "sender",
							"type": "bytes"
						},
						{
							"internalType": "bytes",
							"name": "data",
							"type": "bytes"
						},
						{
							"components": [
								{
									"internalType": "address",
									"name": "token",
									"type": "address"
								},
								{
									"internalType": "uint256",
									"name": "amount",
									"type": "uint256"
								}
							],
							"internalType": "struct Client.EVMTokenAmount[]",
							"name": "destTokenAmounts",
							"type": "tuple[]"
						}
					],
					"internalType": "struct Client.Any2EVMMessage",
					"name": "message",
					"type": "tuple"
				}
			],
			"name": "ccipReceive",
			"outputs": [],
			"stateMutability": "nonpayable",
			"type": "function"
		},
		{
			"inputs": [
				{
					"internalType": "bytes32",
					"name": "_depositRequestId",
					"type": "bytes32"
				}
			],
			"name": "completeDeposit",
			"outputs": [],
			"stateMutability": "nonpayable",
			"type": "function"
		},
		{
			"inputs": [],
			"name": "completeWithdrawal",
			"outputs": [],
			"stateMutability": "nonpayable",
			"type": "function"
		},
		{
			"inputs": [
				{
					"internalType": "bytes1[]",
					"name": "_ids",
					"type": "bytes1[]"
				}
			],
			"name": "deleteDepositsOnTheWayByIds",
			"outputs": [],
			"stateMutability": "nonpayable",
			"type": "function"
		},
		{
			"inputs": [
				{
					"internalType": "uint64",
					"name": "_chainSelector",
					"type": "uint64"
				},
				{
					"internalType": "uint256",
					"name": "_amountToSend",
					"type": "uint256"
				},
				{
					"internalType": "bytes32",
					"name": "distributeLiquidityRequestId",
					"type": "bytes32"
				}
			],
			"name": "distributeLiquidity",
			"outputs": [],
			"stateMutability": "nonpayable",
			"type": "function"
		},
		{
			"inputs": [],
			"name": "getDepositsOnTheWay",
			"outputs": [
				{
					"components": [
						{
							"internalType": "bytes1",
							"name": "id",
							"type": "bytes1"
						},
						{
							"internalType": "uint64",
							"name": "chainSelector",
							"type": "uint64"
						},
						{
							"internalType": "bytes32",
							"name": "ccipMessageId",
							"type": "bytes32"
						},
						{
							"internalType": "uint256",
							"name": "amount",
							"type": "uint256"
						}
					],
					"internalType": "struct IParentPool.DepositOnTheWay[]",
					"name": "",
					"type": "tuple[]"
				}
			],
			"stateMutability": "view",
			"type": "function"
		},
		{
			"inputs": [],
			"name": "getMaxDeposit",
			"outputs": [
				{
					"internalType": "uint256",
					"name": "",
					"type": "uint256"
				}
			],
			"stateMutability": "view",
			"type": "function"
		},
		{
			"inputs": [],
			"name": "getRouter",
			"outputs": [
				{
					"internalType": "address",
					"name": "",
					"type": "address"
				}
			],
			"stateMutability": "view",
			"type": "function"
		},
		{
			"inputs": [],
			"name": "getUsdcInUse",
			"outputs": [
				{
					"internalType": "uint256",
					"name": "",
					"type": "uint256"
				}
			],
			"stateMutability": "view",
			"type": "function"
		},
		{
			"inputs": [
				{
					"internalType": "address",
					"name": "_lpAddress",
					"type": "address"
				}
			],
			"name": "getWithdrawalIdByLPAddress",
			"outputs": [
				{
					"internalType": "bytes32",
					"name": "",
					"type": "bytes32"
				}
			],
			"stateMutability": "view",
			"type": "function"
		},
		{
			"inputs": [
				{
					"internalType": "bytes32",
					"name": "_withdrawalId",
					"type": "bytes32"
				}
			],
			"name": "getWithdrawalRequestById",
			"outputs": [
				{
					"components": [
						{
							"internalType": "address",
							"name": "lpAddress",
							"type": "address"
						},
						{
							"internalType": "uint256",
							"name": "lpSupplySnapshot",
							"type": "uint256"
						},
						{
							"internalType": "uint256",
							"name": "lpAmountToBurn",
							"type": "uint256"
						},
						{
							"internalType": "uint256",
							"name": "totalCrossChainLiquiditySnapshot",
							"type": "uint256"
						},
						{
							"internalType": "uint256",
							"name": "amountToWithdraw",
							"type": "uint256"
						},
						{
							"internalType": "uint256",
							"name": "liquidityRequestedFromEachPool",
							"type": "uint256"
						},
						{
							"internalType": "uint256",
							"name": "remainingLiquidityFromChildPools",
							"type": "uint256"
						},
						{
							"internalType": "uint256",
							"name": "triggeredAtTimestamp",
							"type": "uint256"
						}
					],
					"internalType": "struct IParentPool.WithdrawRequest",
					"name": "",
					"type": "tuple"
				}
			],
			"stateMutability": "view",
			"type": "function"
		},
		{
			"inputs": [
				{
					"internalType": "bytes32",
					"name": "requestId",
					"type": "bytes32"
				},
				{
					"internalType": "bytes",
					"name": "response",
					"type": "bytes"
				},
				{
					"internalType": "bytes",
					"name": "err",
					"type": "bytes"
				}
			],
			"name": "handleOracleFulfillment",
			"outputs": [],
			"stateMutability": "nonpayable",
			"type": "function"
		},
		{
			"inputs": [],
			"name": "i_lp",
			"outputs": [
				{
					"internalType": "contract LPToken",
					"name": "",
					"type": "address"
				}
			],
			"stateMutability": "view",
			"type": "function"
		},
		{
			"inputs": [
				{
					"internalType": "uint64",
					"name": "_chainSelector",
					"type": "uint64"
				}
			],
			"name": "removePools",
			"outputs": [],
			"stateMutability": "payable",
			"type": "function"
		},
		{
			"inputs": [
				{
					"internalType": "bytes32",
					"name": "clfReqId",
					"type": "bytes32"
				}
			],
			"name": "s_clfRequestTypes",
			"outputs": [
				{
					"internalType": "enum IParentPool.RequestType",
					"name": "",
					"type": "uint8"
				}
			],
			"stateMutability": "view",
			"type": "function"
		},
		{
			"inputs": [
				{
					"internalType": "uint64",
					"name": "chainSelector",
					"type": "uint64"
				},
				{
					"internalType": "address",
					"name": "poolAddress",
					"type": "address"
				}
			],
			"name": "s_contractsToReceiveFrom",
			"outputs": [
				{
					"internalType": "uint256",
					"name": "",
					"type": "uint256"
				}
			],
			"stateMutability": "view",
			"type": "function"
		},
		{
			"inputs": [
				{
					"internalType": "bytes32",
					"name": "clfReqId",
					"type": "bytes32"
				}
			],
			"name": "s_depositRequests",
			"outputs": [
				{
					"internalType": "address",
					"name": "lpAddress",
					"type": "address"
				},
				{
					"internalType": "uint256",
					"name": "childPoolsLiquiditySnapshot",
					"type": "uint256"
				},
				{
					"internalType": "uint256",
					"name": "usdcAmountToDeposit",
					"type": "uint256"
				},
				{
					"internalType": "uint256",
					"name": "deadline",
					"type": "uint256"
				}
			],
			"stateMutability": "view",
			"type": "function"
		},
		{
			"inputs": [],
			"name": "s_depositsOnTheWayAmount",
			"outputs": [
				{
					"internalType": "uint256",
					"name": "",
					"type": "uint256"
				}
			],
			"stateMutability": "view",
			"type": "function"
		},
		{
			"inputs": [
				{
					"internalType": "bytes32",
					"name": "",
					"type": "bytes32"
				}
			],
			"name": "s_distributeLiquidityRequestProcessed",
			"outputs": [
				{
					"internalType": "bool",
					"name": "",
					"type": "bool"
				}
			],
			"stateMutability": "view",
			"type": "function"
		},
		{
			"inputs": [],
			"name": "s_loansInUse",
			"outputs": [
				{
					"internalType": "uint256",
					"name": "",
					"type": "uint256"
				}
			],
			"stateMutability": "view",
			"type": "function"
		},
		{
			"inputs": [],
			"name": "s_maxDeposit",
			"outputs": [
				{
					"internalType": "uint256",
					"name": "",
					"type": "uint256"
				}
			],
			"stateMutability": "view",
			"type": "function"
		},
		{
			"inputs": [
				{
					"internalType": "uint64",
					"name": "chainSelector",
					"type": "uint64"
				}
			],
			"name": "s_poolToSendTo",
			"outputs": [
				{
					"internalType": "address",
					"name": "pool",
					"type": "address"
				}
			],
			"stateMutability": "view",
			"type": "function"
		},
		{
			"inputs": [],
			"name": "s_totalWithdrawRequestsAmount",
			"outputs": [
				{
					"internalType": "uint256",
					"name": "",
					"type": "uint256"
				}
			],
			"stateMutability": "view",
			"type": "function"
		},
		{
			"inputs": [
				{
					"internalType": "bytes32",
					"name": "clfReqId",
					"type": "bytes32"
				}
			],
			"name": "s_withdrawRequests",
			"outputs": [
				{
					"internalType": "address",
					"name": "lpAddress",
					"type": "address"
				},
				{
					"internalType": "uint256",
					"name": "lpSupplySnapshot",
					"type": "uint256"
				},
				{
					"internalType": "uint256",
					"name": "lpAmountToBurn",
					"type": "uint256"
				},
				{
					"internalType": "uint256",
					"name": "totalCrossChainLiquiditySnapshot",
					"type": "uint256"
				},
				{
					"internalType": "uint256",
					"name": "amountToWithdraw",
					"type": "uint256"
				},
				{
					"internalType": "uint256",
					"name": "liquidityRequestedFromEachPool",
					"type": "uint256"
				},
				{
					"internalType": "uint256",
					"name": "remainingLiquidityFromChildPools",
					"type": "uint256"
				},
				{
					"internalType": "uint256",
					"name": "triggeredAtTimestamp",
					"type": "uint256"
				}
			],
			"stateMutability": "view",
			"type": "function"
		},
		{
			"inputs": [
				{
					"internalType": "bytes32",
					"name": "clfReqId",
					"type": "bytes32"
				}
			],
			"name": "s_withdrawalIdByCLFRequestId",
			"outputs": [
				{
					"internalType": "bytes32",
					"name": "withdrawalId",
					"type": "bytes32"
				}
			],
			"stateMutability": "view",
			"type": "function"
		},
		{
			"inputs": [
				{
					"internalType": "address",
					"name": "lpAddress",
					"type": "address"
				}
			],
			"name": "s_withdrawalIdByLPAddress",
			"outputs": [
				{
					"internalType": "bytes32",
					"name": "withdrawalId",
					"type": "bytes32"
				}
			],
			"stateMutability": "view",
			"type": "function"
		},
		{
			"inputs": [
				{
					"internalType": "uint64",
					"name": "_chainSelector",
					"type": "uint64"
				},
				{
					"internalType": "address",
					"name": "_contractAddress",
					"type": "address"
				},
				{
					"internalType": "uint256",
					"name": "_isAllowed",
					"type": "uint256"
				}
			],
			"name": "setConceroContractSender",
			"outputs": [],
			"stateMutability": "payable",
			"type": "function"
		},
		{
			"inputs": [
				{
					"internalType": "uint8",
					"name": "_slotId",
					"type": "uint8"
				}
			],
			"name": "setDonHostedSecretsSlotId",
			"outputs": [],
			"stateMutability": "payable",
			"type": "function"
		},
		{
			"inputs": [
				{
					"internalType": "uint64",
					"name": "_version",
					"type": "uint64"
				}
			],
			"name": "setDonHostedSecretsVersion",
			"outputs": [],
			"stateMutability": "payable",
			"type": "function"
		},
		{
			"inputs": [
				{
					"internalType": "bytes32",
					"name": "_ethersHashSum",
					"type": "bytes32"
				}
			],
			"name": "setEthersHashSum",
			"outputs": [],
			"stateMutability": "payable",
			"type": "function"
		},
		{
			"inputs": [
				{
					"internalType": "bytes32",
					"name": "_hashSum",
					"type": "bytes32"
				}
			],
			"name": "setHashSum",
			"outputs": [],
			"stateMutability": "payable",
			"type": "function"
		},
		{
			"inputs": [
				{
					"internalType": "uint256",
					"name": "_newCap",
					"type": "uint256"
				}
			],
			"name": "setPoolCap",
			"outputs": [],
			"stateMutability": "payable",
			"type": "function"
		},
		{
			"inputs": [
				{
					"internalType": "uint64",
					"name": "_chainSelector",
					"type": "uint64"
				},
				{
					"internalType": "address",
					"name": "_pool",
					"type": "address"
				},
				{
					"internalType": "bool",
					"name": "isRebalancingNeeded",
					"type": "bool"
				}
			],
			"name": "setPools",
			"outputs": [],
			"stateMutability": "payable",
			"type": "function"
		},
		{
			"inputs": [
				{
					"internalType": "uint256",
					"name": "_usdcAmount",
					"type": "uint256"
				}
			],
			"name": "startDeposit",
			"outputs": [],
			"stateMutability": "nonpayable",
			"type": "function"
		},
		{
			"inputs": [
				{
					"internalType": "uint256",
					"name": "_lpAmount",
					"type": "uint256"
				}
			],
			"name": "startWithdrawal",
			"outputs": [],
			"stateMutability": "nonpayable",
			"type": "function"
		},
		{
			"inputs": [
				{
					"internalType": "bytes4",
					"name": "interfaceId",
					"type": "bytes4"
				}
			],
			"name": "supportsInterface",
			"outputs": [
				{
					"internalType": "bool",
					"name": "",
					"type": "bool"
				}
			],
			"stateMutability": "pure",
			"type": "function"
		},
		{
			"inputs": [
				{
					"internalType": "address",
					"name": "_token",
					"type": "address"
				},
				{
					"internalType": "uint256",
					"name": "_amount",
					"type": "uint256"
				},
				{
					"internalType": "address",
					"name": "_receiver",
					"type": "address"
				}
			],
			"name": "takeLoan",
			"outputs": [],
			"stateMutability": "payable",
			"type": "function"
		},
		{
			"inputs": [],
			"name": "withdrawDepositFees",
			"outputs": [],
			"stateMutability": "payable",
			"type": "function"
		},
		{
			"stateMutability": "payable",
			"type": "receive"
		}
	],
	"bytecode": "0x6102406040523480156200001257600080fd5b50604051620061b8380380620061b8833981016040819052620000359162000188565b87876001600160a01b03811662000066576040516335fdcccd60e21b81526000600482015260240160405180910390fd5b6001600160a01b0390811660805290811660a0526101809a909a526001600160401b03989098166101a05299881660c0529787166101005291861661012052851661014052841661016052505091811660e0529182166101c052805182166101e052602081015182166102005260400151166102205262000283565b80516001600160a01b0381168114620000fa57600080fd5b919050565b600082601f8301126200011157600080fd5b604051606081016001600160401b03811182821017156200014257634e487b7160e01b600052604160045260246000fd5b6040528060608401858111156200015857600080fd5b845b818110156200017d576200016e81620000e2565b8352602092830192016200015a565b509195945050505050565b6000806000806000806000806000806000806101c08d8f031215620001ac57600080fd5b620001b78d620000e2565b9b50620001c760208e01620000e2565b60408e015160608f0151919c509a506001600160401b0381168114620001ec57600080fd5b9850620001fc60808e01620000e2565b97506200020c60a08e01620000e2565b96506200021c60c08e01620000e2565b95506200022c60e08e01620000e2565b94506200023d6101008e01620000e2565b93506200024e6101208e01620000e2565b92506200025f6101408e01620000e2565b9150620002718e6101608f01620000ff565b90509295989b509295989b509295989b565b60805160a05160c05160e05161010051610120516101405161016051610180516101a0516101c0516101e0516102005161022051615d21620004976000396000612aee01526000612ab201526000612a77015260008181610a9301528181610b6701528181610c970152818161120b01528181611787015281816117d501528181611847015281816118c901528181611d7b015281816121640152612a0c01526000613343015260006133680152600081816110fb015281816112a401526144880152600081816103380152818161153e015281816116180152818161245201528181612700015281816127a30152612f3701526000818161149e015281816115d40152818161182401528181611eb0015281816124bb015281816124ea0152818161287001528181612b3001528181612c3101528181613545015261433f015260008181612ce701528181612e1c0152613add01526000818161291f01526134750152600081816108fc01528181610b1c01528181610c4c015281816110b0015281816111c001528181611259015281816113af0152818161173c0152818161187e01528181611d3001528181611dda01528181612119015281816122800152818161255a015281816128d401526129c1015260008181610a0f0152613f8b01526000818161072e0152818161135001528181612b5b01528181612bff01528181612cb80152612d6c0152615d216000f3fe60806040526004361061023f5760003560e01c806385572ffb1161012e578063cdb81306116100ab578063df7b37441161006f578063df7b374414610833578063e03ff7cb1461085f578063e69bb20d14610874578063f364c1e614610894578063fdb742d9146108a757600080fd5b8063cdb8130614610778578063cf10af02146107ae578063d4602f12146107de578063d835f535146107fe578063dad355901461081157600080fd5b8063a9431ba3116100f2578063a9431ba3146106ea578063aac0167b14610717578063b0f479a11461071f578063b223265714610752578063c27e26cb1461076557600080fd5b806385572ffb1461066c5780638c503dc41461068c5780639b9cf8a2146106ac578063a4dbc6a8146106bf578063a624333b146106d457600080fd5b806337ae5b56116101bc578063645f8a1411610180578063645f8a14146104db57806367511437146104fb5780637304b4da146105a857806378c66596146105be57806380e3748a146105f657600080fd5b806337ae5b56146104045780633d0a18bf1461041a5780634536ca721461042d5780635a449ce1146104b2578063631a5a4f146104c557600080fd5b806321f343d81161020357806321f343d814610326578063231d3b6b146103725780632fdf2993146103af578063306e6934146103dc57806332212776146103ef57600080fd5b806301ffc9a71461024b57806303851d051461028057806307367349146102c45780630ca76175146102e65780631eef59dd1461030657600080fd5b3661024657005b600080fd5b34801561025757600080fd5b5061026b610266366004614c99565b6108ba565b60405190151581526020015b60405180910390f35b34801561028c57600080fd5b506102b661029b366004614cd8565b6001600160a01b031660009081526043602052604090205490565b604051908152602001610277565b3480156102d057600080fd5b506102e46102df366004614d15565b6108f1565b005b3480156102f257600080fd5b506102e4610301366004614e7a565b610a04565b34801561031257600080fd5b506102e4610321366004614ee6565b610a88565b34801561033257600080fd5b5061035a7f000000000000000000000000000000000000000000000000000000000000000081565b6040516001600160a01b039091168152602001610277565b34801561037e57600080fd5b506103a261038d366004614f5a565b60416020526000908152604090205460ff1681565b6040516102779190614fa7565b3480156103bb57600080fd5b506102b66103ca366004614cd8565b60436020526000908152604090205481565b6102e46103ea366004614fba565b610b11565b3480156103fb57600080fd5b506001546102b6565b34801561041057600080fd5b506102b660015481565b6102e4610428366004615009565b610c41565b34801561043957600080fd5b5061044d610448366004614f5a565b611054565b604051610277919081516001600160a01b031681526020808301519082015260408083015190820152606080830151908201526080808301519082015260a0828101519082015260c0808301519082015260e091820151918101919091526101000190565b6102e46104c0366004614f5a565b6111b5565b3480156104d157600080fd5b506102b660055481565b3480156104e757600080fd5b506102e46104f6366004614f5a565b61124e565b34801561050757600080fd5b50610563610516366004614f5a565b604560205260009081526040902080546001820154600283015460038401546004850154600586015460068701546007909701546001600160a01b03909616969495939492939192909188565b604080516001600160a01b0390991689526020890197909752958701949094526060860192909252608085015260a084015260c083015260e082015261010001610277565b3480156105b457600080fd5b506102b660005481565b3480156105ca57600080fd5b506102b66105d9366004615054565b603f60209081526000928352604080842090915290825290205481565b34801561060257600080fd5b50610642610611366004614f5a565b60426020526000908152604090208054600182015460028301546003909301546001600160a01b0390921692909184565b604080516001600160a01b0390951685526020850193909352918301526060820152608001610277565b34801561067857600080fd5b506102e461068736600461508d565b611345565b34801561069857600080fd5b506102e46106a7366004614f5a565b6113a4565b6102e46106ba366004614f5a565b611731565b3480156106cb57600080fd5b506000546102b6565b3480156106e057600080fd5b506102b660085481565b3480156106f657600080fd5b506102b6610705366004614f5a565b60446020526000908152604090205481565b6102e46117ca565b34801561072b57600080fd5b507f000000000000000000000000000000000000000000000000000000000000000061035a565b6102e46107603660046150c7565b611873565b6102e46107733660046150e4565b611d25565b34801561078457600080fd5b5061035a6107933660046150c7565b603e602052600090815260409020546001600160a01b031681565b3480156107ba57600080fd5b5061026b6107c9366004614f5a565b60406020819052600091825290205460ff1681565b3480156107ea57600080fd5b506102e46107f9366004614f5a565b611dcf565b6102e461080c366004614f5a565b61210e565b34801561081d57600080fd5b506108266121dc565b6040516102779190615107565b34801561083f57600080fd5b5061084a621e848081565b60405163ffffffff9091168152602001610277565b34801561086b57600080fd5b506102e4612275565b34801561088057600080fd5b506102e461088f366004614f5a565b61254f565b6102e46108a236600461517e565b6128c9565b6102e46108b53660046150c7565b6129b6565b60006001600160e01b031982166385572ffb60e01b14806108eb57506001600160e01b031982166301ffc9a760e01b145b92915050565b306001600160a01b037f000000000000000000000000000000000000000000000000000000000000000016146109415760405163f2d90f0b60e01b81523060048201526024015b60405180910390fd5b61094a33612a73565b6109695760405163ac9262e760e01b8152336004820152602401610938565b6001600160401b0383166000908152603e60205260409020546001600160a01b03166109a8576040516367f93df760e01b815260040160405180910390fd5b60008181526040602081905290205460ff16156109db57604051630848e24b60e11b815260048101829052602401610938565b6000818152604060208190529020805460ff191660011790556109fe8383612b27565b50505050565b336001600160a01b037f00000000000000000000000000000000000000000000000000000000000000001614610a4d5760405163c6829f8360e01b815260040160405180910390fd5b610a58838383612e7f565b60405183907f85e1543bf2f84fe80c6badbce3648c8539ad1df4d2b3d822938ca0538be727e690600090a2505050565b336001600160a01b037f00000000000000000000000000000000000000000000000000000000000000001614610ad1576040516354ad07a960e11b815260040160405180910390fd5b610b0d82828080602002602001604051908101604052809392919081815260200183836020028082843760009201919091525061307792505050565b5050565b306001600160a01b037f00000000000000000000000000000000000000000000000000000000000000001614610b5c5760405163f2d90f0b60e01b8152306004820152602401610938565b336001600160a01b037f00000000000000000000000000000000000000000000000000000000000000001614610ba5576040516354ad07a960e11b815260040160405180910390fd5b6001600160a01b038216610bcc576040516367f93df760e01b815260040160405180910390fd5b6001600160401b0383166000818152603f602090815260408083206001600160a01b0387168085529083529281902085905580519384529083019190915281018290527f18e1fe458879e99b411dc55bafcfaef8d97d66d6ea0381e731999340d046b5a09060600160405180910390a1505050565b306001600160a01b037f00000000000000000000000000000000000000000000000000000000000000001614610c8c5760405163f2d90f0b60e01b8152306004820152602401610938565b336001600160a01b037f00000000000000000000000000000000000000000000000000000000000000001614610cd5576040516354ad07a960e11b815260040160405180910390fd5b6001600160401b0383166000908152603e60205260409020546001600160a01b0383811691161480610d0e57506001600160a01b038216155b15610d2c576040516367f93df760e01b815260040160405180910390fd5b603c8054600181019091557fc6bb06cb7f92603de181bf256cd16846b93b752a170ff24824098b31aa008a7e6004820401805460039092166008026101000a6001600160401b03818102199093169286169081029290921790556000818152603e602090815260409182902080546001600160a01b0319166001600160a01b0387169081179091558251938452908301527f551adbe00ac870d2058d03176d5afbe307720914a006ff5f303b31752d9fc428910160405180910390a180151560010361104f57600082846000424344604051602001610e10969594939291906151b5565b60408051808303601f190181528282528051602090910120600680845260e08401909252925060009190816020015b6060815260200190600190039081610e3f579050509050600354604051602001610e6b91815260200190565b60405160208183030381529060405281600081518110610e8d57610e8d61520e565b6020026020010181905250600454604051602001610ead91815260200190565b60405160208183030381529060405281600181518110610ecf57610ecf61520e565b60200260200101819052506001604051602001610eec9190615224565b60405160208183030381529060405281600281518110610f0e57610f0e61520e565b602002602001018190525084604051602001610f3d919060c09190911b6001600160c01b031916815260080190565b60405160208183030381529060405281600381518110610f5f57610f5f61520e565b602002602001018190525081604051602001610f7d91815260200190565b60405160208183030381529060405281600481518110610f9f57610f9f61520e565b60200260200101819052506000604051602001610fbc9190615224565b60405160208183030381529060405281600581518110610fde57610fde61520e565b6020026020010181905250600061101082604051806103e001604052806103bd815260200161592f6103bd91396132bd565b90507fd75d58d70d42ebace891f9fe341baa5676e0b6b95db8b4d76f2fd283d50e32618160405161104391815260200190565b60405180910390a15050505b505050565b6110a560405180610100016040528060006001600160a01b03168152602001600081526020016000815260200160008152602001600081526020016000815260200160008152602001600081525090565b306001600160a01b037f000000000000000000000000000000000000000000000000000000000000000016146110f05760405163f2d90f0b60e01b8152306004820152602401610938565b336001600160a01b037f0000000000000000000000000000000000000000000000000000000000000000161461113b57604051631da78bad60e11b8152336004820152602401610938565b5060008181526045602090815260409182902082516101008101845281546001600160a01b031681526001820154928101929092526002810154928201929092526003820154606082015260048201546080820152600582015460a0820152600682015460c082015260079091015460e08201525b919050565b306001600160a01b037f000000000000000000000000000000000000000000000000000000000000000016146112005760405163f2d90f0b60e01b8152306004820152602401610938565b336001600160a01b037f00000000000000000000000000000000000000000000000000000000000000001614611249576040516354ad07a960e11b815260040160405180910390fd5b600355565b306001600160a01b037f000000000000000000000000000000000000000000000000000000000000000016146112995760405163f2d90f0b60e01b8152306004820152602401610938565b336001600160a01b037f000000000000000000000000000000000000000000000000000000000000000016146112e457604051631da78bad60e11b8152336004820152602401610938565b600081815260456020526040812060058101546004909101546113079190615251565b90508060000361132a5760405163144a191f60e21b815260040160405180910390fd5b806009600082825461133c9190615264565b90915550505050565b336001600160a01b037f00000000000000000000000000000000000000000000000000000000000000001614611390576040516335fdcccd60e21b8152336004820152602401610938565b6113a161139c82615323565b613394565b50565b306001600160a01b037f000000000000000000000000000000000000000000000000000000000000000016146113ef5760405163f2d90f0b60e01b8152306004820152602401610938565b60008181526042602052604081208054600282015491926001600160a01b039091169190611420622dc6c083615251565b6001850154909150336001600160a01b0385161461145157604051632619c8db60e01b815260040160405180910390fd5b806000036114725760405163d9ec6bf960e01b815260040160405180910390fd5b6007546005546001546040516370a0823160e01b81523060048201526000939291906001600160a01b037f000000000000000000000000000000000000000000000000000000000000000016906370a0823190602401602060405180830381865afa1580156114e5573d6000803e3d6000fd5b505050506040513d601f19601f8201168201806040525081019061150991906153cf565b6115139190615264565b61151d9190615264565b6115279190615251565b905060006115358284615264565b905060006115c57f00000000000000000000000000000000000000000000000000000000000000006001600160a01b03166318160ddd6040518163ffffffff1660e01b8152600401602060405180830381865afa15801561159a573d6000803e3d6000fd5b505050506040513d601f19601f820116820180604052508101906115be91906153cf565b86846137c8565b90506115fc6001600160a01b037f00000000000000000000000000000000000000000000000000000000000000001633308961382c565b6040516340c10f1960e01b8152336004820152602481018290527f00000000000000000000000000000000000000000000000000000000000000006001600160a01b0316906340c10f1990604401600060405180830381600087803b15801561166457600080fd5b505af1158015611678573d6000803e3d6000fd5b5050505061168585613893565b622dc6c06007600082825461169a9190615264565b9091555050604080518781526020810183905290810183905233908a907f5f317d3d590d9a8726139f5ae5c10efc35e053ea68ce90a3846d48e1179b7ff89060600160405180910390a35050506000958652505060426020908152604080862080546001600160a01b031916815560018101879055600281018790556003018690556041909152909320805460ff19169055505050565b306001600160a01b037f0000000000000000000000000000000000000000000000000000000000000000161461177c5760405163f2d90f0b60e01b8152306004820152602401610938565b336001600160a01b037f000000000000000000000000000000000000000000000000000000000000000016146117c5576040516354ad07a960e11b815260040160405180910390fd5b600455565b336001600160a01b037f00000000000000000000000000000000000000000000000000000000000000001614611813576040516354ad07a960e11b815260040160405180910390fd5b60075461186c906001600160a01b037f000000000000000000000000000000000000000000000000000000000000000016907f000000000000000000000000000000000000000000000000000000000000000090613971565b6000600755565b306001600160a01b037f000000000000000000000000000000000000000000000000000000000000000016146118be5760405163f2d90f0b60e01b8152306004820152602401610938565b336001600160a01b037f00000000000000000000000000000000000000000000000000000000000000001614611907576040516354ad07a960e11b815260040160405180910390fd5b6000805b603c54811015611a8857826001600160401b0316603c82815481106119325761193261520e565b6000918252602090912060048204015460039091166008026101000a90046001600160401b031603611a80576001600160401b0383166000908152603e6020526040902054603c80546001600160a01b0390921693509061199590600190615251565b815481106119a5576119a561520e565b90600052602060002090600491828204019190066008029054906101000a90046001600160401b0316603c82815481106119e1576119e161520e565b90600052602060002090600491828204019190066008026101000a8154816001600160401b0302191690836001600160401b03160217905550603c805480611a2b57611a2b6153e8565b6000828152602080822060046000199094019384040180546001600160401b03600860038716026101000a810219909116909155929093559085168152603e9091526040902080546001600160a01b03191690555b60010161190b565b506040516001600160401b03831681527f209da0eeb33912ffc9f84f28ae619ed32fba9e7d6ad17150363077cd7cb8286e9060200160405180910390a1600081836001424344604051602001611ae3969594939291906151b5565b60408051808303601f190181528282528051602090910120600680845260e08401909252925060009190816020015b6060815260200190600190039081611b12579050509050600354604051602001611b3e91815260200190565b60405160208183030381529060405281600081518110611b6057611b6061520e565b6020026020010181905250600454604051602001611b8091815260200190565b60405160208183030381529060405281600181518110611ba257611ba261520e565b60200260200101819052506001604051602001611bbf9190615224565b60405160208183030381529060405281600281518110611be157611be161520e565b602002602001018190525083604051602001611c10919060c09190911b6001600160c01b031916815260080190565b60405160208183030381529060405281600381518110611c3257611c3261520e565b602002602001018190525081604051602001611c5091815260200190565b60405160208183030381529060405281600481518110611c7257611c7261520e565b60200260200101819052506001604051602001611c8f9190615224565b60405160208183030381529060405281600581518110611cb157611cb161520e565b60200260200101819052506000611ce382604051806103e001604052806103bd815260200161592f6103bd91396132bd565b90507fd75d58d70d42ebace891f9fe341baa5676e0b6b95db8b4d76f2fd283d50e326181604051611d1691815260200190565b60405180910390a15050505050565b306001600160a01b037f00000000000000000000000000000000000000000000000000000000000000001614611d705760405163f2d90f0b60e01b8152306004820152602401610938565b336001600160a01b037f00000000000000000000000000000000000000000000000000000000000000001614611db9576040516354ad07a960e11b815260040160405180910390fd5b6002805460ff191660ff92909216919091179055565b306001600160a01b037f00000000000000000000000000000000000000000000000000000000000000001614611e1a5760405163f2d90f0b60e01b8152306004820152602401610938565b620f4240811015611e4357604051632a1c0cc960e21b8152620f42406004820152602401610938565b611e4f600560ff6153fe565b63ffffffff16603d8054905010611e7c57604051632b07c58960e21b815260ff6004820152602401610938565b6000548015801590611f3b57506001546007546040516370a0823160e01b8152306004820152839291906001600160a01b037f000000000000000000000000000000000000000000000000000000000000000016906370a0823190602401602060405180830381865afa158015611ef7573d6000803e3d6000fd5b505050506040513d601f19601f82011682018060405250810190611f1b91906153cf565b611f259086615264565b611f2f9190615251565b611f399190615264565b115b15611f5c57604051632b07c58960e21b815260048101829052602401610938565b60408051600380825260808201909252600091816020015b6060815260200190600190039081611f74579050509050600354604051602001611fa091815260200190565b60405160208183030381529060405281600081518110611fc257611fc261520e565b6020026020010181905250600454604051602001611fe291815260200190565b604051602081830303815290604052816001815181106120045761200461520e565b602002602001018190525060006040516020016120219190615224565b604051602081830303815290604052816002815181106120435761204361520e565b6020026020010181905250600061207582604051806103e001604052806103bd815260200161592f6103bd91396132bd565b6000818152604160205260408120805460ff19169055909150612099603c42615264565b60008381526042602090815260409182902080546001600160a01b031916339081178255600282018a90556003909101849055825189815291820184905292935084917f82c4e4605400197b31e6f48ebdef98b8027e2d22fad2bf8ca5c3eee578d55355910160405180910390a35050505050565b306001600160a01b037f000000000000000000000000000000000000000000000000000000000000000016146121595760405163f2d90f0b60e01b8152306004820152602401610938565b336001600160a01b037f000000000000000000000000000000000000000000000000000000000000000016146121a2576040516354ad07a960e11b815260040160405180910390fd5b60008190556040518181527e501be862d99d4d08c79bac5f425be0e8df61805bf83721fdb7500f5dafd4b29060200160405180910390a150565b6060603d805480602002602001604051908101604052809291908181526020016000905b8282101561226c5760008481526020908190206040805160808101825260038602909201805460f881901b6001600160f81b031916845261010090046001600160401b031683850152600180820154928401929092526002015460608301529083529092019101612200565b50505050905090565b306001600160a01b037f000000000000000000000000000000000000000000000000000000000000000016146122c05760405163f2d90f0b60e01b8152306004820152602401610938565b33600090815260436020526040902054806122ee5760405163144a191f60e21b815260040160405180910390fd5b600081815260456020908152604080832081516101008101835281546001600160a01b03168152600182015493810193909352600281015491830182905260038101546060840152600481015460808401819052600582015460a0850152600682015460c0850181905260079092015460e085015292938390036123855760405163d9ec6bf960e01b815260040160405180910390fd5b600a8111156123aa576040516331b82aab60e01b815260048101829052602401610938565b82600854116123ba5760006123c8565b826008546123c89190615251565b60085533600090815260436020908152604080832083905587835260448252808320839055604590915280822080546001600160a01b03191681556001810183905560028101839055600381018390556004808201849055600582018490556006820184905560079091019290925551630852cd8d60e31b81529081018390526001600160a01b037f000000000000000000000000000000000000000000000000000000000000000016906342966c6890602401600060405180830381600087803b15801561249657600080fd5b505af11580156124aa573d6000803e3d6000fd5b506124e49250506001600160a01b037f00000000000000000000000000000000000000000000000000000000000000001690503385613971565b604080517f00000000000000000000000000000000000000000000000000000000000000006001600160a01b031681526020810185905233917fb515e62cb91eefbb2d01f299abad52621804175a431b7773f6c1a3bfb8bf2605910160405180910390a25050505050565b306001600160a01b037f0000000000000000000000000000000000000000000000000000000000000000161461259a5760405163f2d90f0b60e01b8152306004820152602401610938565b806000036125be57604051632a1c0cc960e21b815260016004820152602401610938565b33600090815260436020526040902054156125ec5760405163d9ec6bf960e01b815260040160405180910390fd5b60408051600280825260608201909252600091816020015b606081526020019060019003908161260457905050905060035460405160200161263091815260200190565b604051602081830303815290604052816000815181106126525761265261520e565b602002602001018190525060045460405160200161267291815260200190565b604051602081830303815290604052816001815181106126945761269461520e565b6020908102919091018101919091526040516bffffffffffffffffffffffff193360601b16918101919091526034810183905243605482015244607482015260009060940160408051601f19818403018152919052805160209091012090506127286001600160a01b037f00000000000000000000000000000000000000000000000000000000000000001633308661382c565b600061274f83604051806103e001604052806103bd815260200161592f6103bd91396132bd565b6000818152604160209081526040808320805460ff1916600117905585835260458252918290208054336001600160a01b031990911617905581516318160ddd60e01b815291519293506001600160a01b037f000000000000000000000000000000000000000000000000000000000000000016926318160ddd9260048082019392918290030181865afa1580156127eb573d6000803e3d6000fd5b505050506040513d601f19601f8201168201806040525081019061280f91906153cf565b600083815260456020908152604080832060018101949094556002909301879055838252604481528282208590553380835260439091529190208390557fda3cf41c6b927dce9ccfd0d83949ac6227fa42b0c48522e171a19fef4992ac9c907f000000000000000000000000000000000000000000000000000000000000000061289a603c42615264565b604080516001600160a01b0394851681529390921660208401529082015260600160405180910390a150505050565b306001600160a01b037f000000000000000000000000000000000000000000000000000000000000000016146129145760405163f2d90f0b60e01b8152306004820152602401610938565b336001600160a01b037f0000000000000000000000000000000000000000000000000000000000000000161461295f5760405163f4ebd43560e01b8152336004820152602401610938565b6001600160a01b038116612986576040516367f93df760e01b815260040160405180910390fd5b61299a6001600160a01b0384168284613971565b81600160008282546129ac9190615264565b9091555050505050565b306001600160a01b037f00000000000000000000000000000000000000000000000000000000000000001614612a015760405163f2d90f0b60e01b8152306004820152602401610938565b336001600160a01b037f00000000000000000000000000000000000000000000000000000000000000001614612a4a576040516354ad07a960e11b815260040160405180910390fd5b600280546001600160401b039092166101000268ffffffffffffffff0019909216919091179055565b60007f00000000000000000000000000000000000000000000000000000000000000006001600160a01b0316826001600160a01b03161480612ae657507f00000000000000000000000000000000000000000000000000000000000000006001600160a01b0316826001600160a01b0316145b806108eb57507f00000000000000000000000000000000000000000000000000000000000000006001600160a01b0316826001600160a01b03161492915050565b600080612b55847f0000000000000000000000000000000000000000000000000000000000000000856139a2565b905060007f00000000000000000000000000000000000000000000000000000000000000006001600160a01b03166320487ded86846040518363ffffffff1660e01b8152600401612ba7929190615472565b602060405180830381865afa158015612bc4573d6000803e3d6000fd5b505050506040513d601f19601f82011682018060405250810190612be891906153cf565b60405163095ea7b360e01b81526001600160a01b037f000000000000000000000000000000000000000000000000000000000000000081166004830152602482018790529192507f00000000000000000000000000000000000000000000000000000000000000009091169063095ea7b3906044016020604051808303816000875af1158015612c7c573d6000803e3d6000fd5b505050506040513d601f19601f82011682018060405250810190612ca09190615556565b5060405163095ea7b360e01b81526001600160a01b037f000000000000000000000000000000000000000000000000000000000000000081166004830152602482018390527f0000000000000000000000000000000000000000000000000000000000000000169063095ea7b3906044016020604051808303816000875af1158015612d30573d6000803e3d6000fd5b505050506040513d601f19601f82011682018060405250810190612d549190615556565b506040516396f4e9f960e01b81526001600160a01b037f000000000000000000000000000000000000000000000000000000000000000016906396f4e9f990612da39088908690600401615472565b6020604051808303816000875af1158015612dc2573d6000803e3d6000fd5b505050506040513d601f19601f82011682018060405250810190612de691906153cf565b6001600160401b0386166000818152603e60209081526040918290205482519384526001600160a01b03908116918401919091527f00000000000000000000000000000000000000000000000000000000000000001682820152606082018490525191945084917f245ffa4bbee02ae89252f488fb2ef63bc63b02f6a5d70060db288b8c2b74fbc79181900360800190a2505092915050565b600083815260416020526040902054815160ff9091169015613011576000816001811115612eaf57612eaf614f73565b03612ee757600084815260426020526040812080546001600160a01b0319168155600181018290556002810182905560030155612fd1565b6001816001811115612efb57612efb614f73565b03612fd157600084815260446020908152604080832054808452604590925290912080546002909101546001600160a01b0391821691612f5e907f0000000000000000000000000000000000000000000000000000000000000000168383613971565b50600091825260456020908152604080842080546001600160a01b03191681556001810185905560028101859055600381018590556004810185905560058101859055600681018590556007018490556001600160a01b0392909216835260438152818320839055868352604490528120555b837fb018c90b76b67eeab234f24fecd3b6be52cf03eae9ce32a1151389b77a4dd7df8284604051613003929190615573565b60405180910390a250505050565b600081600181111561302557613025614f73565b03613039576130348484613b67565b61305c565b600181600181111561304d5761304d614f73565b0361305c5761305c8484613b95565b5050506000908152604160205260409020805460ff19169055565b80516000036130835750565b603d548151600082900361309657505050565b806000036130a357505050565b600f60005b838110156132b65760005b83811015613296578581815181106130cd576130cd61520e565b60200260200101516001600160f81b031916603d83815481106130f2576130f261520e565b600091825260209091206003909102015460f81b6001600160f81b0319160361326d57600554603d838154811061312b5761312b61520e565b906000526020600020906003020160020154111561314d576000600555613189565b603d82815481106131605761316061520e565b906000526020600020906003020160020154600560008282546131839190615251565b90915550505b603d61319486615595565b955085815481106131a7576131a761520e565b9060005260206000209060030201603d83815481106131c8576131c861520e565b600091825260209091208254600390920201805460ff90921660ff1983168117825583546001600160401b0361010091829004160268ffffffffffffffffff199093161791909117815560018083015490820155600291820154910155603d805480613236576132366153e8565b600082815260208120600360001990930192830201805468ffffffffffffffffff1916815560018101829055600201559055613296565b6001600160401b0383166132818284615264565b1061328e57505050505050565b6001016130b3565b50816001600160401b031681106132ae575050505050565b6001016130a8565b5050505050565b60006133006040805160e0810190915280600081526020016000815260200160008152602001606081526020016060815260200160608152602001606081525090565b61330a8184613be1565b60025461332b90829060ff81169061010090046001600160401b0316613bee565b6133358185613c84565b61338c61334182613cae565b7f0000000000000000000000000000000000000000000000000000000000000000621e84807f0000000000000000000000000000000000000000000000000000000000000000613f86565b949350505050565b806020015181604001518060200190518101906133b191906155ac565b6001600160401b0382166000908152603f602090815260408083206001600160a01b038516845290915290205460011461340957604051631cc6bc1360e01b81526001600160a01b0382166004820152602401610938565b6000806000856060015180602001905181019061342691906155c9565b9250925092506000808211801561344557506001600160a01b03831615155b90506001600160a01b038416151581156135d357875160405163255709e560e11b81526000916001600160a01b037f00000000000000000000000000000000000000000000000000000000000000001691634aae13ca916134ac9160040190815260200190565b600060405180830381865afa1580156134c9573d6000803e3d6000fd5b505050506040513d6000823e601f3d908101601f191682016040526134f19190810190615676565b8951815191925060009114801561350a575060c0820151155b8061351457508151155b905080156135815761357c868b608001516000815181106135375761353761520e565b6020026020010151602001517f00000000000000000000000000000000000000000000000000000000000000006001600160a01b03166139719092919063ffffffff16565b6135cc565b6000858b6080015160008151811061359b5761359b61520e565b6020026020010151602001516135b19190615251565b905080600160008282546135c59190615251565b9091555050505b50506136f2565b80156136f2576001600160a01b038516600090815260436020526040902054806136105760405163144a191f60e21b815260040160405180910390fd5b600081815260456020526040812060808b01518051919290916136355761363561520e565b60200260200101516020015181600601541015613653576000613685565b896080015160008151811061366a5761366a61520e565b60200260200101516020015181600601546136859190615251565b600682015560808a015180516000906136a0576136a061520e565b60200260200101516020015160095410156136bc5760006136ec565b89608001516000815181106136d3576136d361520e565b6020026020010151602001516009546136ec9190615251565b60095550505b87600001517f51cb40e9081d9a8a44348b461bf87b7272f3cfb240e2bb94ffe3e45b1215af4f89602001518a6040015180602001905181019061373591906155ac565b8b6080015160008151811061374c5761374c61520e565b6020026020010151600001518c6080015160008151811061376f5761376f61520e565b6020026020010151602001516040516137b694939291906001600160401b039490941684526001600160a01b03928316602085015291166040830152606082015260800190565b60405180910390a25050505050505050565b6000806137d483614058565b905060006137e185614058565b90506000861561381d578683816137f88583615264565b613802919061574c565b61380c9190615779565b6138169190615251565b9050613820565b50805b925050505b9392505050565b6040516001600160a01b0384811660248301528381166044830152606482018390526109fe9186918216906323b872dd906084015b604051602081830303815290604052915060e01b6020820180516001600160e01b03838183161783525050505061407a565b603c5460006402540be4006138a9836001615264565b6138b86402540be4008661574c565b6138c29190615779565b6138cc9190615779565b905060005b828110156109fe576000613920603c83815481106138f1576138f161520e565b90600052602060002090600491828204019190066008029054906101000a90046001600160401b031684612b27565b905061396881603c84815481106139395761393961520e565b90600052602060002090600491828204019190066008029054906101000a90046001600160401b0316856140dd565b506001016138d1565b6040516001600160a01b0383811660248301526044820183905261104f91859182169063a9059cbb90606401613861565b6139dd6040518060a0016040528060608152602001606081526020016060815260200160006001600160a01b03168152602001606081525090565b604080516001808252818301909252600091816020015b60408051808201909152600080825260208201528152602001906001900390816139f45790505090506040518060400160405280856001600160a01b031681526020018481525081600081518110613a4e57613a4e61520e565b6020908102919091018101919091526040805160a0810182526001600160401b0388166000908152603e9093529120546001600160a01b031660c08201528060e0810160408051601f19818403018152918152908252805160006020828101829052928201819052606082015291019060800160405160208183030381529060405281526020018281526020017f00000000000000000000000000000000000000000000000000000000000000006001600160a01b03168152602001613b5c60405180602001604052806205573081525060408051915160248084019190915281518084039091018152604490920190526020810180516001600160e01b03166397a657c960e01b17905290565b905295945050505050565b60008281526042602052604081209080613b808461422e565b6001850182905590925090506132b681613077565b600080613ba18361422e565b600086815260446020908152604080832054808452604590925290912092945090925090613bd081838661430b565b613bd983613077565b505050505050565b610b0d8260008084614531565b6000613bfb6101006145af565b9050613c2e604051806040016040528060068152602001651cdb1bdd125160d21b815250826145d090919063ffffffff16565b613c3b8160ff85166145e9565b6040805180820190915260078152663b32b939b4b7b760c91b6020820152613c649082906145d0565b613c6e81836145e9565b6002602085015251516080909301929092525050565b8051600003613ca65760405163fe936cb760e01b815260040160405180910390fd5b60c090910152565b60606000613cbd6101006145af565b9050613cf66040518060400160405280600c81526020016b31b7b232a637b1b0ba34b7b760a11b815250826145d090919063ffffffff16565b8251613d14906002811115613d0d57613d0d614f73565b82906145f5565b6040805180820190915260088152676c616e677561676560c01b6020820152613d3e9082906145d0565b6040830151613d55908015613d0d57613d0d614f73565b604080518082019091526006815265736f7572636560d01b6020820152613d7d9082906145d0565b6060830151613d8d9082906145d0565b60a08301515115613e21576040805180820190915260048152636172677360e01b6020820152613dbe9082906145d0565b613dc78161462e565b60005b8360a0015151811015613e1757613e078460a001518281518110613df057613df061520e565b6020026020010151836145d090919063ffffffff16565b613e108161578d565b9050613dca565b50613e2181614652565b60808301515115613ee557600083602001516002811115613e4457613e44614f73565b03613e625760405163a80d31f760e01b815260040160405180910390fd5b60408051808201909152600f81526e39b2b1b932ba39a637b1b0ba34b7b760891b6020820152613e939082906145d0565b613eac83602001516002811115613d0d57613d0d614f73565b6040805180820190915260078152667365637265747360c81b6020820152613ed59082906145d0565b6080830151613ee5908290614670565b60c08301515115613f7e5760408051808201909152600981526862797465734172677360b81b6020820152613f1b9082906145d0565b613f248161462e565b60005b8360c0015151811015613f7457613f648460c001518281518110613f4d57613f4d61520e565b60200260200101518361467090919063ffffffff16565b613f6d8161578d565b9050613f27565b50613f7e81614652565b515192915050565b6000807f00000000000000000000000000000000000000000000000000000000000000006001600160a01b031663461d27628688600188886040518663ffffffff1660e01b8152600401613fde9594939291906157a6565b6020604051808303816000875af1158015613ffd573d6000803e3d6000fd5b505050506040513d601f19601f8201168201806040525081019061402191906153cf565b60405190915081907f1131472297a800fee664d1d89cfa8f7676ff07189ecc53f80bbb5f4969099db890600090a295945050505050565b6000620f4240614070670de0b6b3a76400008461574c565b6108eb9190615779565b600061408f6001600160a01b0384168361467d565b905080516000141580156140b45750808060200190518101906140b29190615556565b155b1561104f57604051635274afe760e01b81526001600160a01b0384166004820152602401610938565b60065460009060ff908116106140fa576140f561468b565b614128565b6006805460009061410d9060ff166157ef565b91906101000a81548160ff021916908360ff160217905560f81b5b604080516080810182526001600160f81b0319831681526001600160401b038087166020830190815292820188815260608301878152603d80546001810182556000918252945160039095027fece66cfdbd22e3f37d348a3d8e19074452862cd65fd4b9a11f0336d1ac6d1dc38101805497519095166101000268ffffffffffffffffff1990971660f89690961c9590951795909517909255517fece66cfdbd22e3f37d348a3d8e19074452862cd65fd4b9a11f0336d1ac6d1dc4830155517fece66cfdbd22e3f37d348a3d8e19074452862cd65fd4b9a11f0336d1ac6d1dc590910155600580549293508492909190614223908490615264565b909155505050505050565b6000606060006020840151905060006020855161424b9190615251565b6001600160401b0381111561426257614262614d4a565b60405190808252806020026020018201604052801561428b578160200160208202803683370190505b50905060205b8551811015614300578581815181106142ac576142ac61520e565b602001015160f81c60f81b826020836142c59190615251565b815181106142d5576142d561520e565b6001600160f81b031990921660209283029190910190910152806142f88161578d565b915050614291565b509094909350915050565b6002830154600180850154603c5460075460095493546040516370a0823160e01b81523060048201529394929360009391907f00000000000000000000000000000000000000000000000000000000000000006001600160a01b0316906370a0823190602401602060405180830381865afa15801561438e573d6000803e3d6000fd5b505050506040513d601f19601f820116820180604052508101906143b291906153cf565b6143bc9089615264565b6143c69190615264565b6143d09190615264565b6143da9190615251565b905060006402540be400846402540be400876143f586614058565b6143ff919061574c565b614409919061574c565b6144139190615779565b61441d9190615779565b9050600061442a82614796565b90506000614439856001615264565b6144439083615779565b60048b0183905560058b01819055905061445d8183615251565b60068b015561446d603c42615264565b60078b015560405163ebbde5bb60e01b8152600481018a90527f00000000000000000000000000000000000000000000000000000000000000006001600160a01b03169063ebbde5bb90602401600060405180830381600087803b1580156144d457600080fd5b505af11580156144e8573d6000803e3d6000fd5b505050507f072cfc8eeed900142cd597457dffbf08beac40f556855ea38bdc1f9efd7837e88960405161451d91815260200190565b60405180910390a150505050505050505050565b8051600003614553576040516322ce3edd60e01b815260040160405180910390fd5b8383600281111561456657614566614f73565b9081600281111561457957614579614f73565b9052506040840182801561458f5761458f614f73565b9081801561459f5761459f614f73565b9052506060909301929092525050565b6145b7614c64565b80516145c390836147ae565b5060006020820152919050565b6145dd8260038351614825565b815161104f908261493e565b610b0d82600083614825565b81516146029060c261495f565b50610b0d828260405160200161461a91815260200190565b604051602081830303815290604052614670565b6146398160046149c8565b60018160200181815161464c9190615264565b90525050565b61465d8160076149c8565b60018160200181815161464c9190615251565b6145dd8260028351614825565b6060613825838360006149df565b600080603d805480602002602001604051908101604052809291908181526020016000905b8282101561471c5760008481526020908190206040805160808101825260038602909201805460f881901b6001600160f81b031916845261010090046001600160401b0316838501526001808201549284019290925260020154606083015290835290920191016146b0565b5050825192935060019150600090505b8281101561478b578160f81b6001600160f81b0319168482815181106147545761475461520e565b6020026020010151600001516001600160f81b0319160361478357614778826157ef565b91506000905061472c565b60010161472c565b5060f81b9392505050565b6000670de0b6b3a7640000614070620f42408461574c565b6040805180820190915260608152600060208201526147ce60208361580e565b156147f6576147de60208361580e565b6147e9906020615251565b6147f39083615264565b91505b60208084018390526040518085526000815290818401018181101561481a57600080fd5b604052509192915050565b6017816001600160401b03161161484b5782516109fe9060e0600585901b16831761495f565b60ff816001600160401b03161161488b578251614873906018611fe0600586901b161761495f565b5082516109fe906001600160401b0383166001614a72565b61ffff816001600160401b0316116148cc5782516148b4906019611fe0600586901b161761495f565b5082516109fe906001600160401b0383166002614a72565b63ffffffff816001600160401b03161161490f5782516148f790601a611fe0600586901b161761495f565b5082516109fe906001600160401b0383166004614a72565b825161492690601b611fe0600586901b161761495f565b5082516109fe906001600160401b0383166008614a72565b60408051808201909152606081526000602082015261382583838451614af7565b6040805180820190915260608152600060208201528251516000614984826001615264565b9050846020015182106149a5576149a5856149a083600261574c565b614bc8565b84516020838201018581535080518211156149be578181525b5093949350505050565b815161104f90601f611fe0600585901b161761495f565b606081471015614a045760405163cd78605960e01b8152306004820152602401610938565b600080856001600160a01b03168486604051614a209190615822565b60006040518083038185875af1925050503d8060008114614a5d576040519150601f19603f3d011682016040523d82523d6000602084013e614a62565b606091505b5091509150613820868383614bdf565b6040805180820190915260608152600060208201528351516000614a968285615264565b90508560200151811115614ab357614ab3866149a083600261574c565b60006001614ac386610100615922565b614acd9190615251565b90508651828101878319825116178152508051831115614aeb578281525b50959695505050505050565b6040805180820190915260608152600060208201528251821115614b1a57600080fd5b8351516000614b298483615264565b90508560200151811115614b4657614b46866149a083600261574c565b855180518382016020019160009180851115614b60578482525b505050602086015b60208610614ba05780518252614b7f602083615264565b9150614b8c602082615264565b9050614b99602087615251565b9550614b68565b51815160001960208890036101000a0190811690199190911617905250849150509392505050565b8151614bd483836147ae565b506109fe838261493e565b606082614bf457614bef82614c3b565b613825565b8151158015614c0b57506001600160a01b0384163b155b15614c3457604051639996b31560e01b81526001600160a01b0385166004820152602401610938565b5080613825565b805115614c4b5780518082602001fd5b604051630a12f52160e11b815260040160405180910390fd5b6040518060400160405280614c8c604051806040016040528060608152602001600081525090565b8152602001600081525090565b600060208284031215614cab57600080fd5b81356001600160e01b03198116811461382557600080fd5b6001600160a01b03811681146113a157600080fd5b600060208284031215614cea57600080fd5b813561382581614cc3565b6001600160401b03811681146113a157600080fd5b80356111b081614cf5565b600080600060608486031215614d2a57600080fd5b8335614d3581614cf5565b95602085013595506040909401359392505050565b634e487b7160e01b600052604160045260246000fd5b604080519081016001600160401b0381118282101715614d8257614d82614d4a565b60405290565b60405160a081016001600160401b0381118282101715614d8257614d82614d4a565b60405161010081016001600160401b0381118282101715614d8257614d82614d4a565b604051601f8201601f191681016001600160401b0381118282101715614df557614df5614d4a565b604052919050565b60006001600160401b03821115614e1657614e16614d4a565b50601f01601f191660200190565b600082601f830112614e3557600080fd5b8135614e48614e4382614dfd565b614dcd565b818152846020838601011115614e5d57600080fd5b816020850160208301376000918101602001919091529392505050565b600080600060608486031215614e8f57600080fd5b8335925060208401356001600160401b0380821115614ead57600080fd5b614eb987838801614e24565b93506040860135915080821115614ecf57600080fd5b50614edc86828701614e24565b9150509250925092565b60008060208385031215614ef957600080fd5b82356001600160401b0380821115614f1057600080fd5b818501915085601f830112614f2457600080fd5b813581811115614f3357600080fd5b8660208260051b8501011115614f4857600080fd5b60209290920196919550909350505050565b600060208284031215614f6c57600080fd5b5035919050565b634e487b7160e01b600052602160045260246000fd5b600281106113a157634e487b7160e01b600052602160045260246000fd5b60208101614fb483614f89565b91905290565b600080600060608486031215614fcf57600080fd5b8335614fda81614cf5565b92506020840135614fea81614cc3565b929592945050506040919091013590565b80151581146113a157600080fd5b60008060006060848603121561501e57600080fd5b833561502981614cf5565b9250602084013561503981614cc3565b9150604084013561504981614ffb565b809150509250925092565b6000806040838503121561506757600080fd5b823561507281614cf5565b9150602083013561508281614cc3565b809150509250929050565b60006020828403121561509f57600080fd5b81356001600160401b038111156150b557600080fd5b820160a0818503121561382557600080fd5b6000602082840312156150d957600080fd5b813561382581614cf5565b6000602082840312156150f657600080fd5b813560ff8116811461382557600080fd5b602080825282518282018190526000919060409081850190868401855b8281101561517157815180516001600160f81b0319168552868101516001600160401b03168786015285810151868601526060908101519085015260809093019290850190600101615124565b5091979650505050505050565b60008060006060848603121561519357600080fd5b833561519e81614cc3565b925060208401359150604084013561504981614cc3565b606087901b6bffffffffffffffffffffffff1916815260c086901b6001600160c01b03191660148201526151e885614f89565b60f89490941b601c850152601d840192909252603d830152605d820152607d0192915050565b634e487b7160e01b600052603260045260246000fd5b61522d82614f89565b60f89190911b815260010190565b634e487b7160e01b600052601160045260246000fd5b818103818111156108eb576108eb61523b565b808201808211156108eb576108eb61523b565b600082601f83011261528857600080fd5b813560206001600160401b038211156152a3576152a3614d4a565b6152b1818360051b01614dcd565b82815260069290921b840181019181810190868411156152d057600080fd5b8286015b8481101561531857604081890312156152ed5760008081fd5b6152f5614d60565b813561530081614cc3565b815281850135858201528352918301916040016152d4565b509695505050505050565b600060a0823603121561533557600080fd5b61533d614d88565b8235815261534d60208401614d0a565b602082015260408301356001600160401b038082111561536c57600080fd5b61537836838701614e24565b6040840152606085013591508082111561539157600080fd5b61539d36838701614e24565b606084015260808501359150808211156153b657600080fd5b506153c336828601615277565b60808301525092915050565b6000602082840312156153e157600080fd5b5051919050565b634e487b7160e01b600052603160045260246000fd5b63ffffffff82811682821603908082111561541b5761541b61523b565b5092915050565b60005b8381101561543d578181015183820152602001615425565b50506000910152565b6000815180845261545e816020860160208601615422565b601f01601f19169290920160200192915050565b600060406001600160401b038516835260208181850152845160a08386015261549e60e0860182615446565b905081860151603f19808784030160608801526154bb8383615446565b88860151888203830160808a01528051808352908601945060009350908501905b8084101561550e57845180516001600160a01b03168352860151868301529385019360019390930192908601906154dc565b5060608901516001600160a01b031660a08901526080890151888203830160c08a0152955061553d8187615446565b9a9950505050505050505050565b80516111b081614ffb565b60006020828403121561556857600080fd5b815161382581614ffb565b61557c83614f89565b82815260406020820152600061338c6040830184615446565b6000816155a4576155a461523b565b506000190190565b6000602082840312156155be57600080fd5b815161382581614cc3565b6000806000606084860312156155de57600080fd5b83516155e981614cc3565b60208501519093506155fa81614cc3565b80925050604084015190509250925092565b80516111b081614cc3565b8051600281106111b057600080fd5b80516111b081614cf5565b600082601f83011261564257600080fd5b8151615650614e4382614dfd565b81815284602083860101111561566557600080fd5b61338c826020830160208701615422565b60006020828403121561568857600080fd5b81516001600160401b038082111561569f57600080fd5b9083019061010082860312156156b457600080fd5b6156bc614daa565b825181526156cc6020840161560c565b60208201526156dd6040840161560c565b6040820152606083015160608201526156f860808401615617565b608082015261570960a08401615626565b60a082015261571a60c0840161554b565b60c082015260e08301518281111561573157600080fd5b61573d87828601615631565b60e08301525095945050505050565b80820281158282048414176108eb576108eb61523b565b634e487b7160e01b600052601260045260246000fd5b60008261578857615788615763565b500490565b60006001820161579f5761579f61523b565b5060010190565b6001600160401b038616815260a0602082015260006157c860a0830187615446565b61ffff9590951660408301525063ffffffff92909216606083015260809091015292915050565b600060ff821660ff81036158055761580561523b565b60010192915050565b60008261581d5761581d615763565b500690565b60008251615834818460208701615422565b9190910192915050565b600181815b8085111561587957816000190482111561585f5761585f61523b565b8085161561586c57918102915b93841c9390800290615843565b509250929050565b600082615890575060016108eb565b8161589d575060006108eb565b81600181146158b357600281146158bd576158d9565b60019150506108eb565b60ff8411156158ce576158ce61523b565b50506001821b6108eb565b5060208310610133831016604e8410600b84101617156158fc575081810a6108eb565b615906838361583e565b806000190482111561591a5761591a61523b565b029392505050565b6000613825838361588156fe747279207b20636f6e73742075203d202768747470733a2f2f7261772e67697468756275736572636f6e74656e742e636f6d2f6574686572732d696f2f6574686572732e6a732f76362e31302e302f646973742f6574686572732e756d642e6d696e2e6a73273b20636f6e73742071203d202768747470733a2f2f7261772e67697468756275736572636f6e74656e742e636f6d2f636f6e6365726f2f636f6e7472616374732d636369702f27202b202772656c6561736527202b20602f7061636b616765732f686172646861742f7461736b732f434c46536372697074732f646973742f706f6f6c2f247b6279746573417267735b325d203d3d3d202730783127203f2027646973747269627574654c697175696469747927203a2027676574546f74616c42616c616e6365277d2e6d696e2e6a73603b20636f6e7374205b742c20705d203d2061776169742050726f6d6973652e616c6c285b66657463682875292c2066657463682871295d293b20636f6e7374205b652c20635d203d2061776169742050726f6d6973652e616c6c285b742e7465787428292c20702e7465787428295d293b20636f6e73742067203d206173796e632073203d3e207b2072657475726e20282027307827202b2041727261792e66726f6d286e65772055696e743841727261792861776169742063727970746f2e737562746c652e64696765737428275348412d323536272c206e65772054657874456e636f64657228292e656e636f6465287329292929202e6d61702876203d3e2028273027202b20762e746f537472696e6728313629292e736c696365282d32292e746f4c6f77657243617365282929202e6a6f696e2827272920293b207d3b20636f6e73742072203d20617761697420672863293b20636f6e73742078203d20617761697420672865293b20636f6e73742062203d206279746573417267735b305d2e746f4c6f7765724361736528293b20636f6e7374206f203d206279746573417267735b315d2e746f4c6f7765724361736528293b206966202872203d3d3d20622026262078203d3d3d206f29207b20636f6e737420657468657273203d206e65772046756e6374696f6e2865202b20273b2072657475726e206574686572733b272928293b2072657475726e206177616974206576616c2863293b207d207468726f77206e6577204572726f722860247b727d213d247b627d7c7c247b787d213d247b6f7d60293b207d20636174636820286529207b207468726f77206e6577204572726f7228652e6d6573736167652e736c69636528302c2032353529293b7da26469706673582212200a1aa0b614c0af9df48589aa8f471bb2626941c6e1e2f81e802e806dcd78339364736f6c63430008140033",
	"linkReferences": {},
	"deployedLinkReferences": {}
}